:1000000000000120E12D0000092E00000B2E000051
:100010000D2E00000F2E0000112E00000000000029
:10002000000000000000000000000000132E00008F
:10003000152E000000000000172E0000192E0000F1
:100040001B2E00001B2E0000291E00001B2E00008E
:100050001B2E00001B2E00001B2E00001B2E00007C
:10006000692D00001B2E00001B2E00001B2E00001F
:100070001B2E00001B2E00001B2E00001B2E00005C
:100080001B2E00001B2E00001B2E00001B2E00004C
:100090001B2E00001B2E00001B2E00001B2E00003C
:1000A0001B2E00001B2E00001B2E00001B2E00002C
:1000B0001B2E00001B2E00000000000000000000AE
:1000C0001B2E00001B2E00001B2E00001B2E00000C
:1000D0001B2E00001B2E00001B2E00000000000045
:1000E0000000000000000000000000000000000010
:1000F0000000000000000000000000000000000000
:1001000000000000000000000000000000000000EF
:1001100000000000000000000000000000000000DF
:1001200000000000000000000000000000000000CF
:1001300000000000000000000000000000000000BF
:1001400000000000000000000000000000000000AF
:10015000000000000000000000000000000000009F
:10016000000000000000000000000000000000008F
:10017000000000000000000000000000000000007F
:10018000000000000000000000000000000000006F
:10019000000000000000000000000000000000005F
:1001A000000000000000000000000000000000004F
:1001B000000000000000000000000000000000003F
:1001C000000000000000000000000000000000002F
:1001D000000000000000000000000000000000001F
:1001E000000000000000000000000000000000000F
:1001F00000000000000000000000000000000000FF
:1002000010B5054C237833B9044B13B10448AFF350
:1002100000800123237010BD80000020000000003A
:100220009061000008B5034B1BB103490348AFF3CD
:10023000008008BD000000008400002090610000E4
:10024000A3F5803A704700BF154B002B08BF114B38
:100250009D46FFF7F5FF00218B460F461148124AD5
:10026000121A03F030FD0C4B002B00D098470B4BBB
:10027000002B00D098470020002104000D000B48FF
:1002800003F0E0FB03F06EFD2000290002F0FAF914
:1002900003F0DEFB0000080000000000000000008A
:1002A000000001208000002094060020AD3D0000E9
:1002B00080B483B000AF78604FF0A04318460C378D
:1002C000BD465DF8047B704780B584B000AF7860B0
:1002D000084611461A460346FB700B46BB70134690
:1002E0007B703B1D1846FFF7E3FFF860FA78BB7898
:1002F0005B001A437B789B001A433B7E1B0242EA59
:1003000003013B7F1B047A681943FB6802F5E07226
:1003100043F8221000BF1037BD4680BD80B584B0C1
:1003200002AF786000230193002300930023012291
:1003300001217868FFF7C8FF00BF0837BD4680BDC0
:1003400080B584B000AF78603B1D1846FFF7B0FF62
:10035000F8607B68012202FA03F31946F86800F09E
:100360002CF800BF1037BD4680BD80B584B000AF0B
:1003700078603B1D1846FFF79BFFF8607B68012201
:1003800002FA03F31946F86800F026F800BF1037A8
:10039000BD4680BD80B582B000AF786039603B68F3
:1003A000002B03D17868FFF7E0FF02E07868FFF7E1
:1003B000C7FF00BF0837BD4680BD80B483B000AF23
:1003C000786039607B683A68C3F8082500BF0C374D
:1003D000BD465DF8047B704780B483B000AF7860A1
:1003E00039607B683A68C3F80C2500BF0C37BD46FE
:1003F0005DF8047B7047000080B582B000AF786084
:10040000054A7B6813441B7801211846FFF7C2FF99
:1004100000BF0837BD4680BDF056000080B582B0F1
:1004200000AF00237B6005E07868FFF7E5FF7B689D
:1004300001337B607B68032BF6D900BF00BF083710
:10044000BD4680BD80B582B000AF00237B6009E06F
:10045000094A7B6813441B781846FFF75FFF7B68E7
:1004600001337B607B68032BF2D9FFF7D7FF00BF16
:100470000837BD4680BD00BFF056000080B586B08D
:1004800000AF78600023BB8100233B617B687B6108
:1004900007F10C031A46002144F2010000F01CF899
:1004A00000BF1837BD4680BD80B400AFBFF34F8F8B
:1004B00000BF074BDB6803F4E0620549054B1343BB
:1004C000CB60BFF34F8F00BF00BF00BF00BFFBE793
:1004D00000ED00E00400FA0580B584B000AFF860DC
:1004E000B9607A60064B1B6803F00103002B00D053
:1004F000FFDEFFF7D9FF00BF1037BD4680BD00BF4C
:10050000F0ED00E080B485B000AF78607B689B6858
:10051000FB607B68DA68FB68D31A18461437BD465F
:100520005DF8047B704780B483B000AF78600B4601
:10053000FB707B681A687B68DB68796889880B4088
:100540001344FA781A707B68DB685A1C7B68DA609F
:1005500000BF0C37BD465DF8047B704780B485B0A2
:1005600000AFF8600B467A607B81FB681A68FB6815
:1005700099687B890B44F96889880B4013441A7881
:100580007B681A7000BF1437BD465DF8047B704766
:1005900080B582B000AF786039603A680021786831
:1005A000FFF7DCFF7B689B685A1C7B689A6000BF82
:1005B0000837BD4680BD80B485B000AFF860B96033
:1005C0001346FB80BB68002B01D10E2319E0FB888A
:1005D000002B05D0FB885A1EFB881340002B01D04E
:1005E00009230EE0FB68BA681A60FB88013B9AB2E7
:1005F000FB689A80FB6800229A60FB680022DA6040
:10060000002318461437BD465DF8047B704780B55B
:1006100082B000AF78600B46FB707868FFF772FF1E
:1006200002467B689B889A4206D8FB781946786810
:10063000FFF779FF002300E0042318460837BD4682
:1006400080BD80B582B000AF786039607868FFF710
:1006500059FF0346002B05D039687868FFF798FFEB
:10066000002300E0052318460837BD4680BD80B44E
:1006700085B000AF78607B689B68FB607B68DA6858
:10068000FB68D31A18461437BD465DF8047B7047E3
:1006900080B586B000AF786039607B681B78022B2C
:1006A0003BD0022B60DC002B48D0012B5CD17B6857
:1006B0005B681B7819462F48FFF7A9FF78617B69B3
:1006C000002B0AD001233B737B693B612A4B1B68DB
:1006D00007F10C02104698470DE02648FFF7C7FFC8
:1006E0000346002B07D000233B73234B1B6807F105
:1006F0000C02104698471F48FFF7B9FF03461D4AF2
:100700009288934205D801221C491D4801F0F8F84F
:100710002BE01C4B01221A7027E002233B737B68FD
:10072000DB683B6101221549154801F0E9F8124BDD
:100730001B6807F10C021046984716E0124913484F
:10074000FFF77FFF0346002B05D101220E490C481D
:1007500000F0FCFE09E003233B73074B1B6807F125
:100760000C021046984700E000BF00BF1837BD4696
:1007700080BD00BFA80000209C000020A400002035
:1007800000000020A5000020A0000020B8000020EC
:10079000B0B58EB000AFF860B9607A60FB703F4AC8
:1007A0007B681360BB68002B01D1072372E0BB6834
:1007B0001968BB685B689BB21A463948FFF7FBFEB5
:1007C00078637B6B002B01D07B6B63E0BB6899681F
:1007D000BB68DB689BB21A463248FFF7ECFE7863D1
:1007E0007B6B002B01D07B6B54E02F4B07F1140483
:1007F0001D460FCD0FC495E80F0084E80F00FB687D
:100800005B69FB62FB681B7C002B14BF0123002388
:10081000DBB287F82830FB7887F83030FB685B7CE8
:10082000002B01D00E2300E0002387F82930FB685D
:10083000DB68FB61FB689B683B62FB681B68BB6114
:10084000FB685B687B6107F11403184A1946184876
:1008500000F046FD78637B6B002B01D07B6B19E0C9
:10086000144B00221A70FB681B68B3F1FF3F10D0D5
:1008700097F8313083F00103DBB2002B02D00C4833
:1008800001F0E0F801220C49094801F039F803466B
:1008900000E0002318463837BD46B0BD9C0000205C
:1008A000A8000020B8000020F456000091060000C7
:1008B00000000020A5000020A400002080B586B024
:1008C00000AF7860104B1B78FB7579680F48FFF715
:1008D000B8FE3861FB7D002B10D00B4B00221A7044
:1008E00001220B490B4801F00BF8F860FB68BB6074
:1008F000BB68002B02D0B868FFF7C0FD3B69184603
:100900001837BD4680BD00BFA5000020A80000200C
:10091000A40000200000002080B584B000AF034692
:10092000FB71FB7919461148FFF771FEF860FB680F
:10093000002B15D10E4800F057FE034683F001034B
:10094000DBB2002B0CD00B490848FFF77AFE0346B8
:10095000002B05D101220749054800F0F7FDF8609A
:10096000FB6818461037BD4680BD00BFB8000020A8
:1009700000000020A000002080B586B000AFF86025
:10098000B9607A6000237B6109E0BB685A1CBA60D9
:100990001B781846FFF7C0FF7B6901337B617A69DA
:1009A0007B689A42F1DB7B6818461837BD4680BDEC
:1009B00080B584B000AFF860B9607A6000BFB868F5
:1009C000FFF77CFF0346052BF9D0012318461037AB
:1009D000BD4680BD80B483B000AF0346FB71FB7998
:1009E00003F01F02074997F907305B09012000FA5D
:1009F00002F241F8232000BF0C37BD465DF8047BAE
:100A0000704700BF00E100E080B483B000AF034650
:100A1000FB71FB7903F01F02074997F907305B0967
:100A2000012000FA02F2603341F8232000BF0C37A6
:100A3000BD465DF8047B704700E100E080B483B000
:100A400000AF03463960FB7197F90730002B0BDAD2
:100A50003B68DAB20C49FB7903F00F03043B520107
:100A6000D2B20B441A7609E03B68DAB2074997F92B
:100A700007305201D2B20B4483F8002300BF0C3779
:100A8000BD465DF8047B704700ED00E000E100E04A
:100A900080B582B000AF03460A46FB711346BB71B6
:100AA000BA7997F9073011461846FFF7C7FF97F94B
:100AB00007301846FFF7A8FF97F907301846FFF7E9
:100AC00089FF00BF0837BD4680BD80B485B000AF48
:100AD00078600B467B807B887A68134400221A601A
:100AE0007B887A6813441B68FB60FB6800BF14377F
:100AF000BD465DF8047B704780B483B000AF78607A
:100B00000B467B807B887A6813441B68002B14BFDC
:100B100001230023DBB218460C37BD465DF8047B89
:100B2000704780B483B000AF786039607B683A6802
:100B3000C3F8042300BF0C37BD465DF8047B704743
:100B400080B483B000AF786039607B68D3F8042349
:100B50003B681340002B14BF01230023DBB218466F
:100B60000C37BD465DF8047B704780B483B000AF9E
:100B7000786039607B683A68C3F8082300BF0C3797
:100B8000BD465DF8047B704780B485B000AF7860E7
:100B90007B68D3F88034FB607B68FA68C3F88024F4
:100BA000FB6818461437BD465DF8047B704780B477
:100BB00083B000AF78607B680422C3F8002500BFD3
:100BC0000C37BD465DF8047B704780B485B000AF3C
:100BD000F860B9607A60FB687A68C3F81425FB682E
:100BE000BA68C3F80C2500BF1437BD465DF8047B16
:100BF000704780B485B000AFF860B9607A60FB6878
:100C0000BA68C3F80825FB687A68C3F8102500BFE6
:100C10001437BD465DF8047B704780B483B000AFE5
:100C200078607B68D3F81835DBB218460C37BD46C0
:100C30005DF8047B704780B483B000AF78600B46EA
:100C4000FB70FA787B68C3F81C2500BF0C37BD46E3
:100C50005DF8047B704780B483B000AF78600B46CA
:100C6000FB70FB787A68134401221A6000BF0C37CE
:100C7000BD465DF8047B704780B483B000AF7860F8
:100C80000B46FB701346BB70FA78BB781343DBB29C
:100C90001A467B68C3F86C2500BF0C37BD465DF86B
:100CA000047B704780B483B000AF786039607B68A4
:100CB0003A68C3F8242500BF0C37BD465DF8047BB5
:100CC000704780B485B000AF78600B467B807B882E
:100CD0007A68134400221A607B887A6813441B6880
:100CE000FB60FB6800BF1437BD465DF8047B7047AE
:100CF00080B483B000AF78600B467B807B887A68D5
:100D000013441B68002B14BF01230023DBB21846D9
:100D10000C37BD465DF8047B704780B483B000AFEC
:100D2000786039607B68D3F800223B681A437B689F
:100D3000C3F8002200BF0C37BD465DF8047B704746
:100D400080B483B000AF786039607B68D3F800224C
:100D50003B68DB431A407B68C3F8002200BF0C37B6
:100D6000BD465DF8047B704780B483B000AF786007
:100D700039607B683A68C3F8042300BF0C37BD466E
:100D80005DF8047B704780B483B000AF7860396051
:100D90007B683A68C3F8082300BF0C37BD465DF88E
:100DA000047B704780B485B000AF78607B68D3F86F
:100DB0008034FB607B68FA68C3F88024FB681846BF
:100DC0001437BD465DF8047B704780B483B000AF34
:100DD00078607B680822C3F8002500BF0C37BD4649
:100DE0005DF8047B704780B485B000AFF860B960EF
:100DF0007A60FB68BA68C3F80C25FB687A68C3F8A8
:100E0000142500BF1437BD465DF8047B704780B4DD
:100E100085B000AFF860B9607A60FB68BA68C3F863
:100E20000825FB687A68C3F8102500BF1437BD4653
:100E30005DF8047B704780B483B000AF78600B46E8
:100E4000FB70FB787A68134401221A6000BF0C37EC
:100E5000BD465DF8047B704780B483B000AF786016
:100E60000B46FB701346BB70FA78BB781343DBB2BA
:100E70001A467B68C3F86C2500BF0C37BD465DF889
:100E8000047B704780B483B000AF786039607B68C2
:100E90003A68C3F8242500BF0C37BD465DF8047BD3
:100EA000704780B485B000AFF860B9601346FB713D
:100EB000BA68FB68C3F84425FA79FB68C3F848258B
:100EC00000BF1437BD465DF8047B704780B483B023
:100ED00000AF78607B68D3F84C3518460C37BD46B8
:100EE0005DF8047B704780B485B000AFF860B960EE
:100EF0001346FB71BA68FB68C3F83425FA79FB68BE
:100F0000C3F8382500BF1437BD465DF8047B704731
:100F100080B483B000AF78607B68D3F83C35184666
:100F20000C37BD465DF8047B704780B485B000AFD8
:100F300078607B681B0BFB7397F90F3018461437EA
:100F4000BD465DF8047B704780B483B000AF786025
:100F50007B6803F06043B3F1005F0CBF0123002303
:100F6000DBB218460C37BD465DF8047B704780B491
:100F700083B000AF78604FF0A04318460C37BD46F1
:100F80005DF8047B704780B584B000AF7860084698
:100F900011461A460346FB700B46BB7013467B7026
:100FA0003B1D1846FFF7E3FFF860FA78BB785B005B
:100FB0001A437B789B001A433B7E1B0242EA0301E3
:100FC0003B7F1B047A681943FB6802F5E07243F823
:100FD000221000BF1037BD4680BD80B584B002AF7F
:100FE0007860002301930023009300230122012154
:100FF0007868FFF7C8FF00BF0837BD4680BD80B5E1
:1010000084B002AF78600B46FB70FB78002201923F
:1010100000220092002200217868FFF7B4FF00BF91
:101020000837BD4680BD80B584B000AF78603B1DF9
:101030001846FFF79CFFF8607B68012202FA03F371
:101040001946F86800F004F800BF1037BD4680BDAF
:1010500080B483B000AF786039607B683A68C3F8C9
:10106000082500BF0C37BD465DF8047B70470000C3
:1010700080B582B000AF786039603B681B68B3F11F
:10108000FF3F09D03B681B681846FFF7CCFF3B6861
:101090001B681846FFF7A1FF3B685B68B3F1FF3F91
:1010A00005D03B685B6800211846FFF7A8FF7B6806
:1010B0001B79474A5B0113441C331B78002B41D03A
:1010C0007B681A683B689B6919461046FFF7DAFE91
:1010D0007B6818683B68597D3B681B7D1A46FFF7A3
:1010E000BBFE7B6818683B6819683B685B681A46FA
:1010F000FFF779FE3B681B7D012B64D13B689B6841
:10110000B3F1FF3F05D03B689B6800211846FFF70D
:1011100076FF3B68DB68B3F1FF3F09D03B68DB68D3
:101120001846FFF780FF3B68DB681846FFF755FF5E
:101130007B6818683B68D9683B689B681A46FFF76C
:1011400066FE40E07B681A683B689B69194610465A
:10115000FFF7A8FD7B6818683B68597D3B681B7DDD
:101160001A46FFF789FD7B6818683B6819683B6879
:101170005B681A46FFF729FD3B681B7D012B22D1D6
:101180003B689B68B3F1FF3F05D03B689B6800213B
:101190001846FFF734FF3B68DB68B3F1FF3F09D027
:1011A0003B68DB681846FFF73EFF3B68DB68184684
:1011B000FFF713FF7B6818683B68D9683B689B683A
:1011C0001A46FFF716FD00BF0837BD4680BD00BFB9
:1011D000C800002080B582B000AF78600B46FB707D
:1011E0007B681B792C4A5B0113441C331B78002B52
:1011F0002ED07B681B684FF488711846FFF761FD9D
:101200007B681B684FF490711846FFF75AFD7B68A6
:101210001B684FF492711846FFF753FD7B681B68FB
:101220004FF4A2711846FFF74CFD7B681B681B4901
:101230001846FFF799FD7B681B681846FFF775FE97
:1012400003461A46FB7819461046FFF721FC1FE0BB
:101250007B681B684FF48E711846FFF736FC7B687D
:101260001B684FF4A2711846FFF72FFC7B681B68C0
:101270000B491846FFF755FC7B681B681846FFF7BB
:1012800054FE03461A46FB7819461046FFF700FC49
:1012900000BF0837BD4680BDC80000201003020013
:1012A0008000020080B582B000AF78607B681B7957
:1012B0000A4A5B0113441C331B78002B05D07B6862
:1012C0001B681846FFF781FD04E07B681B68184621
:1012D000FFF76DFC00BF0837BD4680BDC800002089
:1012E00080B586B000AFF860B9607A60FB681B79A2
:1012F0005B011E4A13447B6100233B617B69DB7EFB
:10130000002B03D008233B613B692BE0BB685A7F6D
:101310007B691A77B968F868FFF7AAFE7B697A6873
:101320005A60BB681A697B691A607B695B68002B2D
:1013300005D0BB681B7F1946F868FFF74BFFF868BC
:10134000FFF7B0FF7B690022DA757B6900221A760D
:101350007B6900229A757B690122DA767B6900221B
:101360009A763B6918461837BD4680BDC8000020F4
:1013700080B584B000AF786039604FF48E717868C2
:10138000FFF7A3FB3B689B683A68928A92B21344CA
:101390001B78FB733B689B8A9BB201339AB23B6814
:1013A0009A82FB7B19467868FFF745FC00BF10372F
:1013B000BD4680BD80B584B000AF78607B681B7986
:1013C0005B01344A1344BB600023FB607B681B68ED
:1013D0004FF48E711846FFF778FB7B681B68082175
:1013E0001846FFF738FC7B681B68B9681846FFF79A
:1013F000BFFFBB685B68002B47D11FE000BF7B6865
:101400001B684FF48E711846FFF776FB034683F096
:101410000103DBB2002B05D0BB689B8A9BB2B3F5FE
:10142000807FECD1BB689B8A9BB2B3F5807F05D0EF
:101430007B681B68B9681846FFF79AFFBB689B8AF0
:101440009BB2BA68927D9342D8D3BB689B8A9BB209
:10145000B3F5807F02D10F23FB6013E000BF7B68F0
:101460001B684FF48E711846FFF746FB034683F066
:101470000103DBB2002BF2D17B681B680C211846FC
:10148000FFF7E9FBBB6800229A75FB681846103726
:10149000BD4680BDC800002080B586B000AF786032
:1014A0007B681B795B01284A13443B6100237B6105
:1014B0007B681B684FF490711846FFF702FC7B684D
:1014C0001B684FF4AC711846FFF7FBFB7B6818688C
:1014D0003B6999683B699B7D1A46FFF7E2FC7B6894
:1014E0001B6808211846FFF7A6FC3B695B68002BC8
:1014F00025D17B681B684FF490711846FFF7F8FB05
:101500000346FB737B681B684FF4AC711846FFF70A
:10151000EFFB0346BB73FB7B83F00103DBB2002BC5
:1015200005D0BB7B83F00103DBB2002BE1D1BB7B99
:10153000002B01D00F237B613B6900229A757B69E8
:1015400018461837BD4680BDC800002080B586B05B
:1015500000AFF860B9601346FB71FB681B795B0153
:10156000204A13447B61FB681B791E4A5B011344CC
:101570001C331B78002B0CD0B868FFF7E5FC034642
:1015800083F00103DBB2002B03D010233B613B69E6
:1015900024E0F86800F028F80346002B03D011235C
:1015A0003B613B691AE07B69FA799A757B69BA6895
:1015B0009A607B6900229A82FB681B79094A5B0169
:1015C00013441C331B78002B04D0F868FFF764FF2A
:1015D000034603E0F868FFF7EDFE034618461837A8
:1015E000BD4680BDC800002080B483B000AF7860E5
:1015F0007B681B79074A5B01134416331B78002B69
:1016000014BF01230023DBB218460C37BD465DF83A
:10161000047B7047C800002080B582B000AF7860BE
:101620007B681B684FF492711846FFF74EFA7B688F
:101630001B684FF484711846FFF747FA7B681B68F4
:1016400000211846FFF707FB00BF0837BD4680BDE5
:1016500090B583B000AF786039603B68DB7D002BCC
:1016600008D14FF484717868FFF72FFA7868FFF794
:10167000D4FA16E04FF484717868FFF726FA3B68D5
:10168000DB683A68527ED2B29C187868FFF7C5FAD8
:10169000034623703B685B7EDBB20133DAB23B6802
:1016A0005A760C37BD4690BD80B588B000AFF86063
:1016B000B96011461A460B46FB711346BB71FB68B5
:1016C0001B795B01474A1344FB61FB699B7E83F0F6
:1016D0000103DBB2002B08D0BB7983F00103DBB23E
:1016E000002B02D0F868FFF797FFFB695B68002BBF
:1016F00069D1FB681B684FF4A2711846FFF7E5F942
:10170000FB681B684FF492711846FFF7F5F9034622
:10171000FB76FB681B684FF484711846FFF7ECF901
:101720000346BB76FB681B684FF4A2711846FFF7AF
:10173000E3F903467B76BB7E83F00103DBB2002B2B
:101740000BD07B7E83F00103DBB2002B05D0FB7E48
:1017500083F00103DBB2002BD2D1FB7E002B0FD133
:101760007B7E002B0CD1FB681B68F9691846FFF7DC
:101770006FFFFB69DA7DFB695B7EDBB29A42BFD803
:10178000FB690022DA75FB7E002B03D003237B610B
:101790007B6922E07B7E002B03D00F237B617B697A
:1017A0001BE0FB699B7E002B06D0FB681B680021B9
:1017B0001846FFF750FA0DE0FB681B680421184635
:1017C000FFF749FA06E0FB681B684FF40171184601
:1017D000FFF7A7F900237B617B6918462037BD46D8
:1017E00080BD00BFC800002080B586B000AFF860A3
:1017F000B96011461A460B46FB711346BB710023B4
:101800007B61FB681B684FF488711846FFF759FA33
:10181000FB681B684FF4A2711846FFF752FAFB6889
:101820001B68FA79B9681846FFF75DFBBB7983F04E
:101830000103DBB2002B06D0FB681B6800211846B1
:10184000FFF7F9FA05E0FB681B6820211846FFF74F
:1018500064FAFB681B79294A5B01134404331B6853
:10186000002B3FD1FB681B684FF488711846FFF7C7
:101870003FFA0346FB74FB681B684FF4A2711846DD
:10188000FFF736FA0346BB74FB681B684FF492718E
:101890001846FFF72DFA03467B74FB7C83F00103A7
:1018A000DBB2002B0BD0BB7C83F00103DBB2002B3F
:1018B00005D07B7C83F00103DBB2002BD2D1FB6827
:1018C0001B790E4A5B011344173300221A707B7C8C
:1018D000002B01D003237B61BB7C002B09D00F239D
:1018E0007B6106E0FB681B684FF404711846FFF744
:1018F0003BFA7B6918461837BD4680BDC8000020FA
:1019000080B588B000AFF860B9601346FB71FB6822
:101910001B795B014A4A1344BB61FB681B79484A47
:101920005B0113441C331B78002B0CD0B868FFF705
:101930000BFB034683F00103DBB2002B03D0102323
:101940007B617B6978E00023FB77BB695B68002BD8
:1019500017D0FB681B793A4A5B0113441C331B7890
:10196000002B07D0FB681B684FF404711846FFF783
:101970000AFA06E0FB681B684FF401711846FFF78E
:10198000F4F8BB69DB7D002B25D0BB691B7E002BE7
:101990001FD0BB695B68002B17D0FB681B79284AF6
:1019A0005B0113441C331B78002B07D0FB681B68BA
:1019B0004FF404711846FFF7D7F906E0FB681B687F
:1019C0004FF401711846FFF7ACF811237B617B6976
:1019D00032E00123FB77FB7F83F00103DBB2002BB6
:1019E0000CD0BB69FA79DA75BB69BA68DA60BB6991
:1019F00000225A76BB6900221A7605E0BB69BA68F4
:101A00001A61BB69FA791A76FB681B790C4A5B018B
:101A100013441C331B78002B07D0FB7FFA79B9687D
:101A2000F868FFF7E1FE034606E0FB7FFA79B96844
:101A3000F868FFF739FE034618462037BD4680BDDB
:101A4000C800002080B582B000AF78607B681B7949
:101A5000104A5B0113441C331B78002B16D17B68A2
:101A60001B790C4A5B0113441A331B7883F0010382
:101A7000DBB2002B0AD07868FFF7CEFD7B681B79BC
:101A8000044A5B0113441A3301221A7000BF08375D
:101A9000BD4680BDC800002080B588B000AFF860AA
:101AA0000B467A60FB7201233B74FB7A3B767B68C2
:101AB0007B61FB685B68FA68116807F110021046E9
:101AC000984700BF2037BD4680BD80B586B000AFC7
:101AD00078600B46FB7000233B72FB783B747B689D
:101AE0009B68FB607B6800229A757B685B687A68FC
:101AF000116807F108021046984700BF1837BD4625
:101B000080BD80B588B000AF786039604FF4007157
:101B10007868FFF715F80346002B38D04FF4927120
:101B20007868FEF7E9FF0346002B30D04FF492713E
:101B30007868FEF7CAFF4FF401717868FFF715F86F
:101B40003B689B7E83F00103DBB2002B03D00421B2
:101B50007868FFF780F802233B727868FFF714F883
:101B600003467B613B68DB7D3B743B68DB68FB6065
:101B70003B680022DA753B6800221A763B685B6896
:101B80003A68116807F108021046984754E00421AA
:101B90007868FEF7D5FF0346002B4DD04FF48471D3
:101BA0007868FEF7A9FF0346002B45D039687868AE
:101BB000FFF74EFD3B68DA7D3B685B7EDBB29A4205
:101BC0003AD13B681B7E002B1AD03B68DB68FB6177
:101BD0003B685B7EFB763B681A7E3B68DA753B6848
:101BE0001A693B68DA603B6800221A763B6800227B
:101BF0005A76FB7EFA6919463868FFF74DFF1BE0FD
:101C00003B689B7E83F00103DBB2002B03D00421F1
:101C10007868FFF720F84FF401717868FEF7A5FFA8
:101C20003B680022DA753B685B7ED9B23B68DB68B3
:101C30001A463868FFF730FF4FF48E717868FEF768
:101C40005BFF0346002B1AD03B689B8A9BB23A6825
:101C5000927D934204D239687868FFF789FB0EE0E1
:101C60004FF48E717868FEF730FF3B689B7D002B48
:101C700005D03B689B7D19463868FFF726FF4FF477
:101C8000A2717868FEF738FF0346002B1CD04FF492
:101C9000A2717868FEF719FF3B689B7E002B03D08A
:101CA00000217868FEF7D7FF3B68DB7D002B0BD067
:101CB0003B680022DA753B685B7ED9B23B68DB6823
:101CC0001A463868FFF7E8FE00BF2037BD4680BDE2
:101CD00080B588B000AF786039604FF49271786851
:101CE000FFF706F80346002B23D04FF49271786873
:101CF000FEF7E7FF02233B727868FFF753F80346CD
:101D00007B617868FFF704F90346DBB23B743B68FC
:101D1000DB68FB603B680022DA753B6800221A76BC
:101D20003B685B683A68116807F1080210469847FB
:101D30003DE04FF488717868FEF7DAFF0346002B28
:101D400035D04FF488717868FEF7BBFF7868FFF7ED
:101D5000DFF80346FB773B68DB7DFA7F9A4226D1AA
:101D60003B681B7E002B18D03B68DB68BB612021E1
:101D70007868FEF7E5FF3B681A7E3B68DA753B68DA
:101D80001A693B68DA603B6800221A76FB7FBA6901
:101D900019463868FFF780FE09E03B680022DA75D3
:101DA0003B68DA68FB7F19463868FFF775FE4FF429
:101DB000A2717868FEF79CFF0346002B16D04FF403
:101DC000A2717868FEF77DFF3B68DB7D002B0DD0AC
:101DD0003B680022DA757868FFF79AF80346D9B2B3
:101DE0003B68DB681A463868FFF756FE4FF490717F
:101DF0007868FEF77DFF0346002B11D04FF49071F9
:101E00007868FEF75EFF3B689B7D002B08D0786802
:101E1000FFF75CF80346DBB219463868FFF755FE5A
:101E200000BF2037BD4680BD80B500AF074B1B7F8C
:101E3000002B04D005490648FFF74AFF03E0034999
:101E40000348FFF75EFE00BF80BD00BFC800002052
:101E50000020004080B483B000AF0346FB71FB79E3
:101E600003F01F02074997F907305B09012000FAC8
:101E700002F241F8232000BF0C37BD465DF8047B19
:101E8000704700BF00E100E080B485B000AF78602B
:101E9000254BFB607B68002B40D0244B1A68F96807
:101EA0007B6800BF00BF00BF00BF00BF00BF00BF16
:101EB00000BF8A422FD000BF00BF00BF00BF00BFDD
:101EC00000BF00BF00BF00BF00BF00BF00BF00BF1A
:101ED00000BF00BF00BF00BF00BF00BF00BF00BF0A
:101EE00000BF00BF00BF00BF00BF00BF00BF00BFFA
:101EF00000BF00BF00BF00BF00BF00BF00BF00BFEA
:101F000000BF00BF00BF00BF00BF00BF00BF00BFD9
:101F100000BF00BF00BF013BC3D17B6000BF1437CF
:101F2000BD465DF8047B70470024F40014000020D7
:101F300080B582B000AF78607B684FF47A7202FBA4
:101F400003F31846FFF7A0FF00BF0837BD4680BD6A
:101F500080B582B000AF78607B681B78022B05D11A
:101F60007B685B681846FEF789FA08E07B681B7897
:101F7000012B04D17B685B681846FEF77FFA00BF2F
:101F80000837BD4680BD000080B400AF0C4B012275
:101F90001A604FF080430022C3F800214FF08043C5
:101FA00001221A6000BF4FF08043D3F80031002BAC
:101FB000F9D000BF00BFBD465DF8047B704700BF8D
:101FC00000D0004080B500AF214801F015FE214847
:101FD00001F012FE204801F00FFE204801F00CFE37
:101FE0001F4801F009FE1F4801F006FE0A20FFF716
:101FF0009FFF1D4801F000FE1C4801F0FDFD1C483C
:1020000001F0FAFD1B4801F0F7FD1B4801F0F4FD5B
:102010001A4801F0F1FD1A4801F0EEFD0A20FFF721
:1020200087FF184801F0E8FD174801F0E5FD174863
:1020300001F0E2FD164801F0DFFD164801F0DCFD7D
:10204000154801F0D9FD154801F0D6FD00BF80BD4F
:10205000145700002057000060570000845700000C
:102060009C570000C8570000E4570000FC570000D0
:102070001C580000345800006458000078580000D4
:102080008C580000A4580000C4580000DC58000020
:10209000F058000000590000245900004459000085
:1020A00080B582B000AF1E4801F0A6FDFB1D1946A9
:1020B0001C4801F0B3FDFB792F2B0CD9FB79322B97
:1020C00009D8FB791946184801F096FD00BFFB7945
:1020D000312B09D104E00721134801F08DFDE5E71C
:1020E000124B00221A7013E0FB79302B03D10F4BF7
:1020F00002221A700CE0FB79322B03D10B4B012228
:102100001A7005E0FB79332B02D1084B03221A70B9
:10211000074801F071FD00BF0837BD4680BD00BF14
:1021200064590000BC590000C0590000080000209C
:10213000C859000080B582B000AF2A4801F05CFDAC
:10214000FB1D1946284801F069FDFB792F2B1DD98D
:10215000FB79372B1AD8FB791846FEF7DDFB00BF59
:10216000FB79303B062B31D801A252F823F000BF97
:10217000952100009D210000A5210000AD21000057
:10218000B5210000BD210000C52100000720FEF799
:10219000C3FBD5E7154B04221A701BE0134B00223A
:1021A0001A7017E0114BFC221A7013E00F4BF82243
:1021B0001A700FE00D4BF4221A700BE00B4BF0225B
:1021C0001A7007E0094BEC221A7003E0074BD82283
:1021D0001A7000BF064801F00FFD00BF0837BD466A
:1021E00080BD00BFCC590000BC590000E8000020B1
:1021F000C859000080B500AF604801F0FDFC604B9D
:102200001B78032B1AD801A252F823F025220000D4
:102210002D2200001D22000035220000594801F047
:10222000EBFC0BE0584801F0E7FC07E0574801F0F1
:10223000E3FC03E0564801F0DFFC00BF554B1B7880
:10224000FC2B77DCD82B04DA002B57D0042B51D091
:1022500070E0D83B242B6DD801A252F823F000BFC8
:102260002D23000035230000352300003523000016
:1022700035230000352300003523000035230000FE
:1022800035230000352300003523000035230000EE
:1022900035230000352300003523000035230000DE
:1022A00035230000352300003523000035230000CE
:1022B00025230000352300003523000035230000CE
:1022C0001D230000352300003523000035230000C6
:1022D00015230000352300003523000035230000BE
:1022E0000D230000352300003523000035230000B6
:1022F00005230000284801F07FFC1CE0274801F07E
:102300007BFC18E0264801F077FC14E0254801F03A
:1023100073FC10E0244801F06FFC0CE0234801F04E
:102320006BFC08E0224801F067FC04E0214801F062
:1023300063FC00E000BF204B1B6819461F4801F0FA
:102340005BFC1F4B1B6819461E4801F055FC1E4BD9
:102350001B6819461D4801F04FFC4FF08043D3F82D
:10236000183403F48033002B01D0194B00E0194BD3
:102370001946194801F040FC00BF80BD0C5A00000E
:10238000080000201C5A0000405A0000645A000057
:10239000885A0000E8000020B05A0000D05A00001F
:1023A000F05A0000105B0000305B0000505B000042
:1023B000705B0000905B0000EC000020B05B000050
:1023C0000C000020CC5B000010000020E85B000047
:1023D000085C00000C5C0000105C000080B584B05C
:1023E00000AF78600023FB600EE007F10803194698
:1023F000094801F013FCB968FB687A681344CAB253
:102400001A70FB680133FB60FB680F2BEDDD00BF2A
:1024100000BF1037BD4680BD2C5C00002DE9F041A7
:1024200096B00EAFF861FB691B789C46FB690133DF
:102430001B789E46FB6902331B789846FB69033381
:102440001B781846FB6904331B781C46FB6905336F
:102450001B781D46FB6906331B781E46FB69073354
:102460001B78BB61FB6908331B787B61FB6909330F
:102470001B783B61FB690A331B78FB60FB690B33FC
:102480001B78BB60FB690C331B787B60FB690D33E9
:102490001B781946FB690E331B781A46FB690F330C
:1024A0001B780C930B920A917A680992BA68089289
:1024B000FA6807923A6906927A690592BB690493B1
:1024C0000396029501940090434672466146044883
:1024D00001F092FB00BF2037BD46BDE8F08100BF90
:1024E000305C000080B592B000AF574801F084FB2B
:1024F000002387F8473007F1280300221A605A604A
:102500009A60DA6007F1180300221A605A609A6034
:10251000DA6007F1080300221A605A609A60DA60F4
:1025200001237B6080E007F13B031946474801F037
:1025300075FB97F83B30653B0D2B74D801A252F820
:1025400023F000BFA9250000272600002726000051
:1025500027260000272600002726000093250000DC
:102560002726000027260000BD25000013260000B6
:102570007D2500001F260000D325000007F1180369
:102580001846FFF72BFF07F118031846FFF746FF21
:102590004AE007F128031846FFF720FF07F1280358
:1025A0001846FFF73BFF3FE007F1080207F128015B
:1025B00007F11803184601F029FA35E03B1D1946CA
:1025C000234801F02BFB7B681946224801F014FBDD
:1025D0002AE000233B6414E00023FB6302E0FB6B72
:1025E0000133FB63FB6BFE2BF9D907F1080207F1FE
:1025F000280107F11803184601F008FA3B6C013373
:102600003B647B683A6C9A42E6D3134801F0F4FAD3
:102610000AE007F108031846FFF700FF04E0012372
:1026200087F8473000E000BF97F8473083F0010398
:10263000DBB2002B7FF477AF084801F0DDFA00BF72
:102640004837BD4680BD00BF645C0000BC59000037
:10265000845C0000885C0000B05C0000B85C000096
:1026600080B582B000AF78607B681B78002B04D007
:1026700000F0A2FA7B6800221A7000BF0837BD463E
:1026800080BD0000B0B592B002AF002387F83F30A4
:10269000002387F83E30002387F83030FFF774FCC2
:1026A000B44B07F118041D460FCD0FC495E8030085
:1026B00084E80300B04BBB600123FB60AF4B3B6180
:1026C0004FF400737B6107F1080107F1180007233D
:1026D000AB4AFEF75DF8B863BB6B7B637B6B002B8B
:1026E00002D0786BFDF7CAFEFDF7ACFEA54801F0FD
:1026F00083FA0820FFF7AEFB62B600BFFB1D194648
:10270000A14801F08BFAFB79613B172B00F2CE80D8
:1027100001A252F823F000BF79270000B72700007C
:10272000F5270000FD2700003B280000AD28000031
:10273000AD280000A7280000AD280000AD2800004B
:10274000AD280000AD2800004728000055280000F3
:102750005B28000069280000AD28000077280000F1
:10276000852800008B280000AD280000AD2800005F
:10277000AD28000099280000844801F03DFA844902
:10278000844801F04BFA824B1B68502B0FDC804BC6
:102790001B68002B0BDB7E4B1B6819467E4801F043
:1027A0002BFA00BF97F83E3087F83F307FE07B4838
:1027B00001F022FAE0E77A4801F01EFA79497548FB
:1027C00001F02CFA774B1B68502B0FDC704B1B6809
:1027D000002B0BDB734B1B6819466F4801F00CFA9A
:1027E00000BF97F83E3087F83F3060E06B4801F05B
:1027F00003FAE0E7012387F83F3058E06A4801F028
:10280000FBF96A49634801F009FA684B1B68002B21
:102810000FDD664B1B68632B0BDC644B1B68194692
:102820005D4801F0E9F900BF97F83E3087F83F3086
:102830003DE05F4801F0E0F9E0E700F0BDF900237A
:1028400087F83E3033E0FFF72BFC97F83E3087F8EF
:102850003F302CE0FFF746FE29E0022387F83F30A7
:10286000544801F0C9F922E0FFF764FC97F83E30C4
:1028700087F83F301BE0052387F83F304E4801F0D2
:10288000BBF914E0FFF7B6FC11E0032387F83F30F3
:102890004A4801F0B1F90AE0042387F83F3048487C
:1028A00001F0AAF903E0FFF78DFB00E000BF97F805
:1028B0003F30013B042B00F2B78001A252F823F015
:1028C000D52800000329000031290000CD2900008F
:1028D000F929000007F130031846FFF7C1FE394B14
:1028E0001B78394A11782A4A1268D2B2184600F089
:1028F0006FF997F83F3087F83E30002387F83F3074
:1029000093E007F130031846FFF7AAFE2D4B1B7822
:102910002D4A11781E4A1268D2B2184600F07CF98E
:1029200097F83F3087F83E30002387F83F307CE04F
:1029300007F130031846FFF793FE224B1878224B1D
:102940001978134B1B68DAB2164B1B68DCB2174BB5
:102950001B68DBB20093234600F0A0F9012387F83F
:10296000303097F83F3087F83E30002387F83F300B
:102970005BE000BF185E0000F0000020F4000020C3
:10298000511F0000D45C0000BC590000E05C000056
:10299000EC0000202C5C0000185D0000205D0000B1
:1029A000445D00000C000020785D00001000002055
:1029B000AC5D0000D05D0000E85D0000F45D00004B
:1029C000005E0000E80000200800002007F130034E
:1029D0001846FFF745FE154B1B78154A1268D2B210
:1029E0001146184600F03EF997F83F3087F83E3020
:1029F000002387F83F3018E00C4B18780C4B1B680D
:102A0000D9B20C4B1B68DAB20B4B1B68DBB200F07F
:102A10007BF9012387F8303097F83F3087F83E3054
:102A2000002387F83F3000E000BF67E60800002081
:102A3000EC0000200C0000201000002080B483B0C7
:102A400000AF0346FB71144B01225A60124B012266
:102A5000C3F80022104B0022C3F804250E4B0222BB
:102A6000C3F808250C4B0422C3F810250A4B4FF479
:102A70008032C3F80423FB79074A4FF47A7101FBD3
:102A800003F3C2F84035044B01221A6000BF0C3733
:102A9000BD465DF8047B70470080004080B400AF05
:102AA000084B0022C3F8002100BF064BD3F80031C9
:102AB000002BFAD0034BD3F808351846BD465DF815
:102AC000047B704700D0004080B582B000AF002387
:102AD0003B600023FB710BE03B681B023B60FFF790
:102AE000DDFF02463B6813433B60FB790133FB711A
:102AF000FB79032BF0D93B6818460837BD4680BDEB
:102B000090B583B000AF1A4CFFF7C8FF0346C4F876
:102B10002435174CFFF7D8FF0346C4F81C35144B77
:102B20000822C3F81425124B124AC3F81825104B7B
:102B30000022C3F83425104BFE221A700023FB71CB
:102B40000AE0FFF7ABFF0246FB790133D1B20A4A34
:102B5000D154FB790133FB71FB79FD2BF1D9044B87
:102B6000054AC3F8042500BF0C37BD4690BD00BF21
:102B700000100040FF000403F402002080B400AF06
:102B80000C4B0022C3F800220A4B0022C3F810218C
:102B9000084B01221A6100BF064BD3F81031002BFD
:102BA000FAD0044B0022C3F8102100BFBD465DF8E7
:102BB000047B70470010004080B500AF034B01223A
:102BC0005A60FFF7DBFF00BF80BD00BF0080004000
:102BD00080B582B000AF0346FB710B46BB71134654
:102BE0007B71FFF7CBFF0B4B0122C3F80022094A90
:102BF000FB79C2F80C35074ABB79C2F81035054A93
:102C00007B79C2F80835034B01221A6000BF0837F0
:102C1000BD4680BD0010004080B582B000AF0346C5
:102C2000FB710B46BB7113467B71FFF7A7FFFFF7E4
:102C300067FF0B4B0722C3F80022094AFB79C2F851
:102C40000C35074ABB79C2F81035054A7B79C2F8C2
:102C50000835034B01221A6000BF0837BD4680BD0E
:102C60000010004080B582B000AF03460A46FB71F9
:102C70001346BB71FFF782FF074B0122C3F8002206
:102C8000054ABB79C2F80835034B01225A6000BFE0
:102C90000837BD4680BD00BF0010004090B583B02E
:102CA00000AF0446084611461A462346FB71034608
:102CB000BB710B467B7113463B710D4AFB79137058
:102CC0000C4ABB7913700C4A7B7913700B4A7B79E1
:102CD00013700B4A3B7913700A4B01221A703B7E2A
:102CE0001846FFF7ABFE00BF0C37BD4690BD00BFD6
:102CF000F5030020F4030020F6030020F803002071
:102D0000F7030020F903002090B583B000AF04461C
:102D1000084611461A462346FB710346BB710B4613
:102D20007B7113463B710B4AFB7913700A4ABB79DE
:102D300013700A4ABB791370094A7B791370094BE7
:102D400000221A703B791846FFF778FE00BF0C3757
:102D5000BD4690BDF4030020F6030020F8030020D8
:102D6000F7030020F903002080B500AF154B1B7856
:102D7000002B09D0144B1B78144A1178144A12788E
:102D80001846FFF725FF07E0104B1B78104A127812
:102D900011461846FFF766FF0D4B1B780133DAB278
:102DA0000B4B1A700A4B1A780A4B1B789A4203D9BC
:102DB000094B1A78064B1A70084B0022C3F84021C1
:102DC00000BF80BDF9030020F5030020F4030020BC
:102DD000F8030020F7030020F603002000800040E5
:102DE0000649074A074B9B1A03DD043BC858D050DD
:102DF000FBDC00F039F8FDF727FA0000EC61000079
:102E00000000002080000020FEE7FEE7FEE7FEE76E
:102E1000FEE7FEE7FEE7FEE7FEE7FEE780B400AF71
:102E2000BFF34F8F00BF074BDB6803F4E062054937
:102E3000054B1343CB60BFF34F8F00BF00BF00BFF4
:102E400000BFFBE700ED00E00400FA0580B400AF2E
:102E5000034B044A1A6000BFBD465DF8047B70470F
:102E6000140000200090D00380B500AF00F05CF9A2
:102E70000346002B06D09B4B1B681B0A9A4A03F0A3
:102E80001F03136000F082F90346002B02D0974B1A
:102E9000974A1A6000F09CF90346002B06D0954B28
:102EA0001B685B0B944A03F00703136000F0C2F940
:102EB0000346002B05D0914BDB68904A23F08073CA
:102EC000D36000F0D9F90346002B0ED04FF08043B9
:102ED0000022C3F80C214FF080430022C3F81021D8
:102EE0004FF080430022C3F8382500F0F7F903467D
:102EF000002B02D0824B03221A6000F011FA034625
:102F0000002B0BD07F4B05221A607F4B01221A60E9
:102F10007E4B00221A607E4B3F221A6000F022FA9C
:102F20000346002B76D04FF080537A4AD3F804340E
:102F3000C2F820354FF08053764AD3F80834C2F8EF
:102F400024354FF08053734AD3F80C34C2F8283537
:102F50004FF080536F4AD3F81034C2F82C354FF03D
:102F600080536C4AD3F81434C2F830354FF0805394
:102F7000684AD3F81834C2F834354FF08053654AA4
:102F8000D3F81C34C2F840354FF08053614AD3F86F
:102F90002034C2F844354FF080535E4AD3F82434CD
:102FA000C2F848354FF080535A4AD3F82834C2F853
:102FB0004C354FF08053574AD3F82C34C2F8503573
:102FC0004FF08053534AD3F83034C2F854354FF0A1
:102FD0008053504AD3F83434C2F860354FF08053F0
:102FE0004C4AD3F83834C2F864354FF08053494A1C
:102FF000D3F83C34C2F868354FF08053454AD3F8D3
:103000004034C2F86C354FF08053424AD3F8443410
:10301000C2F8703500F0C8F90346002B05D03E4BCE
:103020001B683E4A03F04F03136000F0EFF90346BC
:10303000002B0DD04FF08043D3F8003403F0010390
:10304000002B05D04FF080436FF00102C3F800243D
:10305000334BD3F88830324A43F47003C2F88830D7
:10306000BFF34F8F00BFBFF36F8F00BF4FF0102330
:10307000D3F80032002B05DB4FF01023D3F80432D5
:10308000002B2BDA274B0122C3F8042500BF254B68
:10309000D3F80034002BFAD04FF010231522C3F8D8
:1030A000002200BF1F4BD3F80034002BFAD04FF0A2
:1030B00010231522C3F8042200BF1A4BD3F80034A2
:1030C000002BFAD0174B0022C3F8042500BF154B84
:1030D000D3F80034002BFAD0FFF7A0FEFFF7B6FEBE
:1030E00000BF80BD240300104035014074C007407C
:1030F0000DF0ADBA440200103C050040F0ED00E0D8
:10310000A005004010560040885600401856004068
:103110001456004000C0004058020010E40E004069
:1031200000ED00E000E0014080B400AF144B1B68EC
:10313000DBB2062B1DD1134B1B6803F00F03002BD2
:1031400017D1114B1B6803F0F003302B01D1012381
:1031500010E00D4B1B6803F0F003402B01D101235D
:1031600008E0094B1B6803F0F003502B01D1012349
:1031700000E000231846BD465DF8047B704700BFA1
:10318000E00F00F0E40F00F0E80F00F080B400AFB3
:103190000C4B1B68DBB2062B0DD10B4B1B6803F0ED
:1031A0000F03002B07D1094B1B6803F0F003302BF2
:1031B00001D1012300E000231846BD465DF8047BE1
:1031C000704700BFE00F00F0E40F00F0E80F00F0E0
:1031D00080B400AF144B1B68DBB2062B1DD1134B20
:1031E0001B6803F00F03002B17D1114B1B6803F072
:1031F000F003302B01D1012310E00D4B1B6803F0CD
:10320000F003402B01D1012308E0094B1B6803F0B8
:10321000F003502B01D1012300E000231846BD46E6
:103220005DF8047B704700BFE00F00F0E40F00F092
:10323000E80F00F080B400AF0C4B1B68DBB2062B2C
:103240000DD10B4B1B6803F00F03002B07D1094B6B
:103250001B6803F0F003302B01D1012300E00023B1
:103260001846BD465DF8047B704700BFE00F00F0D4
:10327000E40F00F0E80F00F080B400AF144B1B68BF
:10328000DBB2062B1DD1134B1B6803F00F03002B81
:1032900017D1114B1B6803F0F003302B01D1012330
:1032A00010E00D4B1B6803F0F003402B01D101230C
:1032B00008E0094B1B6803F0F003502B01D10123F8
:1032C00000E000231846BD465DF8047B704700BF50
:1032D000E00F00F0E40F00F0E80F00F080B400AF62
:1032E0000C4B1B68DBB2062B0DD10B4B1B6803F09C
:1032F0000F03002B07D1094B1B6803F0F003302BA1
:1033000001D1012300E000231846BD465DF8047B8F
:10331000704700BFE00F00F0E40F00F0E80F00F08E
:1033200080B400AF0C4B1B68DBB2062B0DD10B4BEE
:103330001B6803F00F03002B07D1094B1B6803F038
:10334000F003302B01D1012300E000231846BD46D5
:103350005DF8047B704700BFE00F00F0E40F00F061
:10336000E80F00F080B400AF0C4B1B68DBB2062BFB
:103370000DD10B4B1B6803F00F03002B07D1094B3A
:103380001B6803F0F003502B01D1012300E0002360
:103390001846BD465DF8047B704700BFE00F00F0A3
:1033A000E40F00F0E80F00F080B400AF144B1B688E
:1033B000DBB2062B1DD1134B1B6803F00F03002B50
:1033C00017D1114B1B6803F0F003302B01D10123FF
:1033D00010E00D4B1B6803F0F003402B01D10123DB
:1033E00008E0094B1B6803F0F003502B01D10123C7
:1033F00000E000231846BD465DF8047B704700BF1F
:10340000E00F00F0E40F00F0E80F00F080B400AF30
:10341000144B1B68DBB2062B1DD1134B1B6803F04A
:103420000F03002B17D1114B1B6803F0F003302B57
:1034300001D1012310E00D4B1B6803F0F003402B7A
:1034400001D1012308E0094B1B6803F0F003502B66
:1034500001D1012300E000231846BD465DF8047B3E
:10346000704700BFE00F00F0E40F00F0E80F00F03D
:1034700080B483B000AF0346FB71FB79034AD35C91
:1034800018460C37BD465DF8047B7047305E00007F
:1034900080B584B000AF0023FB6030E05B4B1A685E
:1034A000FB689B001A44FB689B001178584AD15472
:1034B000564B1A68FB689B0001331A44FB689B005B
:1034C00001331178524AD154504B1A68FB689B0063
:1034D00002331A44FB689B00023311784C4AD154E2
:1034E0004A4B1A68FB689B0003331A44FB689B0035
:1034F00003331178464AD154FB680133FB60FB6803
:10350000032BCBD97AE00023BB600EE0FB68013BC4
:103510009A00BB6813443E4AD15C3A46BB681344E8
:103520000A461A70BB680133BB60BB68032BEDD938
:10353000FB6803F00303002B2AD13B787B607B7888
:103540003B70BB787B70FB78BB707B68DBB2FB7039
:103550003B781846FFF78CFF03463B707B78184694
:10356000FFF786FF03467B70BB781846FFF780FFA6
:103570000346BB70FB781846FFF77AFF0346FB70E3
:103580003A78FB689B082349CB5C5340DBB23B7025
:10359000FB68043B9B001E4AD15C3A78FB689B00A9
:1035A0004A40D1B21A4AD154FB689B000F3B184ADB
:1035B000D15C7A78FB689B0001334A40D1B2144A4F
:1035C000D154FB689B000E3B114AD15CBA78FB6872
:1035D0009B0002334A40D1B20D4AD154FB689B0094
:1035E0000D3B0B4AD15CFA78FB689B0003334A40E1
:1035F000D1B2074AD154FB680133FB60FB682B2B27
:1036000081D900BF00BF1037BD4680BDB004002087
:1036100000040020305F000090B484B000AF034687
:10362000FB710023FB7327E00023BB731EE0174BE5
:103630001968FA7BBB7B92000A4413441C78FB791F
:103640009A00FB7B13449A00BB7B1344104AD05C66
:103650000E4B1968FA7BBB7B6040C0B292000A44F3
:10366000134402461A70BB7B0133BB73BB7B032B35
:10367000DDD9FB7B0133FB73FB7B032BD4D900BF6C
:1036800000BF1037BD4690BC704700BFFC03002050
:1036900000040020F0B583B000AF0023FB7120E0F0
:1036A0000023BB7117E0134B1968BA79FB799200BC
:1036B0000A4413441B780F4A1568BE79FC791846F2
:1036C000FFF7D6FE03461A46B3002B4423441A7074
:1036D000BB790133BB71BB79032BE4D9FB7901338F
:1036E000FB71FB79032BDBD900BF00BF0C37BD4654
:1036F000F0BD00BFFC03002080B483B000AF2B4BB3
:103700001B685B78FB71294B1A68284B1B68527940
:103710005A70264B1A68254B1B68527A5A71234BF4
:103720001A68224B1B68527B5A72204B1B68FA792D
:103730005A731E4B1B689B78FB711C4B1A681B4B02
:103740001B68927A9A70194B1B68FA799A72174B18
:103750001B689B79FB71154B1A68144B1B68927B95
:103760009A71124B1B68FA799A73104B1B68DB78BD
:10377000FB710E4B1A680D4B1B68D27BDA700B4B3A
:103780001A680A4B1B68D27ADA73084B1A68074B1F
:103790001B68D279DA72054B1B68FA79DA7100BFBF
:1037A0000C37BD465DF8047B704700BFFC0300206A
:1037B00080B483B000AF0346FB7197F907305B001C
:1037C0005AB2FB79DB09DBB25BB2194649000B4404
:1037D0001946C800194603460B445BB253405BB21E
:1037E000DBB218460C37BD465DF8047B704700001D
:1037F00080B582B000AF0023FB71B8E0604B1B685E
:10380000FA7913F82230BB715D4B1B68FA7913F813
:1038100022205B4B1968FB799B000B445B7853407B
:10382000DAB2574B1968FB799B000B449B785340E5
:10383000DAB2534B1968FB799B000B44DB78534099
:103840007B714F4B1B68FA7913F822204C4B196897
:10385000FB799B000B445B7853403B713B791846E6
:10386000FFF7A6FF03463B71454B1B68FA7913F837
:1038700022003A797B795340D9B2414B1B68FA79DF
:103880004140C9B203F822103D4B1A68FB799B00F6
:1038900013445A783A4B1968FB799B000B449B7888
:1038A00053403B713B791846FFF782FF03463B715B
:1038B000334B1A68FB799B00134458783A797B792B
:1038C0005340D9B22E4B1A68FB794140C9B29B00D4
:1038D00013440A465A702A4B1A68FB799B0013441A
:1038E0009A78274B1968FB799B000B44DB7853408F
:1038F0003B713B791846FFF75BFF03463B71204B5A
:103900001A68FB799B00134498783A797B79534085
:10391000D9B21B4B1A68FB794140C9B29B001344D2
:103920000A469A70164B1A68FB799B001344DA78A2
:10393000BB7953403B713B791846FFF739FF03468B
:103940003B710F4B1A68FB799B001344D8783A7986
:103950007B795340D9B20A4B1A68FB794140C9B20E
:103960009B0013440A46DA70FB790133FB71FB7943
:10397000032B7FF643AF00BF00BF0837BD4680BDB5
:10398000FC03002080B582B000AF0023FB71002053
:10399000FFF742FE0123FB710CE0FFF77BFEFFF710
:1039A000ABFEFFF725FFFB791846FFF735FEFB79E5
:1039B0000133FB71FB79092BEFD9FFF76BFEFFF7A2
:1039C0009BFE0A20FFF728FE00BF0837BD4680BDDA
:1039D00080B485B000AF786039600023FB730AE0E3
:1039E000FB7B3A681A44FB7B79680B4412781A70A7
:1039F000FB7B0133FB73FB7B0F2BF1D900BF00BFB7
:103A00001437BD465DF8047B7047000080B584B074
:103A100000AFF860B9607A60F9687868FFF7D8FF9E
:103A2000064A7B681360064ABB681360FFF730FDE7
:103A3000FFF7A8FF00BF1037BD4680BDFC03002084
:103A4000B0040020002301461A46184600F0D4B9FD
:103A500008B5064B044613B1002100F029FA044BC7
:103A60001B6803B19847204601F034FEB13E0000C8
:103A7000EC050020002310B50446C0E90033C0E97E
:103A80000433836081814366C281836119460822C1
:103A90005C3000F018F90D4B63620D4BA3620D4BC7
:103AA000E3620D4B23630D4B24629C4206D003F16D
:103AB0006802944202D0D0339C4205D104F15800F0
:103AC000BDE8104000F086B910BD00BF413C0000C9
:103AD000633C00009B3C0000BF3C0000B40400209D
:103AE000024A0349034800F069B800BF18000020EB
:103AF000014E00002800002041680C4B994210B58F
:103B0000044601D001F07CF9A168094B994202D02A
:103B1000204601F075F9E168064B994204D0204631
:103B2000BDE8104001F06CB910BD00BFB404002026
:103B30001C0500208405002010B50B4B0B4C0C4AD3
:103B40001A60204600220421FFF794FF04F1680068
:103B500001220921FFF78EFF04F1D0000222BDE807
:103B600010401221FFF786BFEC050020B4040020AE
:103B7000E13A0000014800F02EB900BFF605002030
:103B8000014800F029B900BFF605002010B5044631
:103B9000FFF7F0FF236A1BB1BDE81040FFF7F0BF4D
:103BA000044B2362044B1B68002BF5D1FFF7C4FFC5
:103BB000F2E700BFF93A0000EC0500202DE9F843D8
:103BC0000746884614460026D4E90195B9F1010953
:103BD00005D52468002CF7D13046BDE8F883AB89C1
:103BE000012B07D9B5F90E30013303D029463846E9
:103BF000C04706436835E9E70FB407B5064904AB8B
:103C0000086853F8042B8168019300F0D1FA03B0DF
:103C10005DF804EB04B07047240000200FB407B532
:103C2000064904AB086853F8042B4168019300F07F
:103C300001FF03B05DF804EB04B0704724000020DE
:103C400010B50C46B1F90E1000F068F80028ABBFB3
:103C5000636DA3891B1823F48053ACBF6365A381F4
:103C600010BD2DE9F0411F468B89DB0505460C464A
:103C7000164605D5B1F90E100223002200F03CF8DB
:103C8000A389B4F90E1023F48053A38132463B4636
:103C90002846BDE8F04100F053B810B50C46B1F924
:103CA0000E1000F029F8431CA38915BF606523F4AA
:103CB000805343F48053A38118BFA38110BDB1F991
:103CC0000E1000F009B802440346934200D1704739
:103CD00003F8011BF9E7000038B5064D0023044640
:103CE00008462B6001F0C8FC431C02D12B6803B1CD
:103CF000236038BDF005002038B5074D044608465E
:103D0000114600222A601A4601F0CEFC431C02D163
:103D10002B6803B1236038BDF005002038B5074D8E
:103D200004460846114600222A601A46FCF740FE67
:103D3000431C02D12B6803B1236038BDF00500207D
:103D400038B5074D04460846114600222A601A4637
:103D5000FCF712FE431C02D12B6803B1236038BD6F
:103D6000F005002070B50D4D0D4C641BA41000260D
:103D7000A64209D10B4D0C4C01F0AEFC641BA41003
:103D80000026A64205D170BD55F8043B9847013680
:103D9000EEE755F8043B98470136F2E7780000203B
:103DA00078000020780000207C00002038B5074D06
:103DB000074C641BA4101CB9BDE8384001F092BC4C
:103DC000013C55F824309847F5E700BF7C000020FF
:103DD000800000207047704770470A44914200F10C
:103DE000FF3300D1704710B511F8014B03F8014FB4
:103DF0009142F9D110BD00002DE9F843274D074647
:103E0000286891460E469846FFF7E5FF244A146855
:103E10003CB9244B1360244A12B11268C3F88820BD
:103E2000204C63681F2B06DD2868FFF7D5FF4FF095
:103E3000FF30BDE8F8832FB3D4F8880068B91B4B76
:103E4000002BF1D04FF48470AFF300800028EBD04A
:103E50000023C0E94033C4F88800636840F8239029
:103E600001229A4000EB8301D0F800311343C0F8DF
:103E70000031022FC1F8808002BFD0F80431134313
:103E8000C0F80431636828685A1C0233626044F841
:103E90002360FFF7A1FF0020CBE700BF74000020E4
:103EA00084060020F805002000000000000000004B
:103EB0002DE9F74FDFF8AC800190D8F80000DFF86B
:103EC000A8900F46FFF787FFD9F8005035B9D8F80A
:103ED000000003B0BDE8F04FFFF77EBF6C68D5F877
:103EE00088B0661E013405EB84040BF1800A002EB5
:103EF000EDDB4FB1BBF1000F02D1013E043CF6E710
:103F00005AF82620BA42F8D1696822680139B142CC
:103F100016BF00236E602360002AEED06B6800930A
:103F2000BBF1000F07D0DBF80011012303FA06FCF8
:103F30001CEA010F09D190476968009BD9F800205D
:103F40009942C1D19542D8D0BEE7DBF804015BF8B5
:103F500026101CEA000F02D101989047ECE70846B2
:103F60009047E9E7740000208406002038B5054634
:103F7000002941D051F8043C0C1F002BB8BFE418B5
:103F800000F0E0F81D4A136833B9636014602846F6
:103F9000BDE8384000F0DCB8A34208D920682118F9
:103FA0008B4201BF19685B6809182160EDE71A466A
:103FB0005B680BB1A342FAD911685018A0420BD12B
:103FC00020680144501883421160E0D118685B6892
:103FD000536008441060DAE702D90C232B60D6E75F
:103FE000206821188B4204BF19685B68636004BFB6
:103FF000091821605460CAE738BD00BF8C06002054
:1040000070B50F4E0C463168054611B901F028F91C
:1040100030602146284601F023F9431C03D14FF0BC
:10402000FF34204670BDC41C24F00304A042F8D025
:10403000211A284601F014F90130F2D1EFE700BF50
:10404000880600202DE9F843CD1C25F0030508352E
:104050000C2D38BF0C25002D064601DBA94204D9E2
:104060000C2333600020BDE8F883DFF8D48000F033
:1040700069F8D8F800301C4644BB29463046FFF7A3
:10408000BFFF431C044658D1D8F800402746002FF4
:1040900043D1002C4BD023683946304604EB03094A
:1040A00001F0DEF8814542D121686D1A294630467B
:1040B000FFF7A6FF01303AD023682B442360D8F8DD
:1040C00000305A6862BBC8F800700FE02268521BCB
:1040D00020D40B2A17D96119A342256018BF596053
:1040E000636808BFC8F8001062514B60304600F0AA
:1040F0002FF804F10B00231D20F00700C21A1CBF8B
:104100001B1AA350AFE76268A3420CBFC8F8002097
:104110005A60EBE723466468AEE73C467F68B6E743
:104120001A465B68A342FBD100235360DEE70C23F1
:104130003360304600F00CF894E70560D6E700BF26
:104140008C0600200148FFF746BE00BFF4050020A2
:104150000148FFF741BE00BFF40500209368013B12
:10416000002B10B4936008DA9469A34201DB0A299A
:1041700003D15DF8044B00F0DFBF1368581C1060DA
:10418000197008465DF8044B7047F8B506460F46AF
:104190001446D518AC4201D1002007E014F8011BE9
:1041A0003A463046FFF7DAFF431CF3D1F8BD000072
:1041B0002DE9F04F0D469DB014469846064618B1BD
:1041C000036A0BB9FFF7E2FC6B6ED90705D4AB8924
:1041D0009A0502D4A86DFFF7FEFDAB891B0701D538
:1041E0002B699BB92946304600F0E4FF70B16B6E35
:1041F000DC0704D54FF0FF301DB0BDE8F08FAB8970
:104200009805F7D4A86DFFF7E7FDF3E700230993BE
:1042100020238DF82930CDF80C803023DFF8AC81D5
:104220008DF82A304FF0010923469A4613F8012BE6
:104230000AB1252AF9D1BAEB040B0BD05B46224612
:1042400029463046FFF7A1FF013000F0A780099A08
:104250005A4409929AF80030002B00F09F80002306
:104260004FF0FF32CDE905230AF1010A04930793C9
:104270008DF853301A935446052214F8011B534805
:1042800000F0FEFF049AD8B9D10644BF20238DF870
:104290005330130744BF2B238DF853309AF8003066
:1042A0002A2B15D0079A544600204FF00A0C2146BD
:1042B00011F8013B303B092B4BD9B0B1079214E008
:1042C000A0EB080309FA03F313430493A246D2E7D1
:1042D000039B191D1B680391002BBBBF5B4242F07F
:1042E000020207930793B8BF049223782E2B0AD1BA
:1042F00063782A2B32D1039B1A1D1B68039243EA71
:10430000E37302340593DFF8D4A0217803225046EA
:1043100000F0B6FF38B1049BA0EB0A0040228240B7
:1043200013430134049314F8011B29488DF8281015
:10433000062200F0A5FF00283FD0264B1BBB039BA5
:10434000073323F0070308330393099B3B44099386
:104350006AE70CFB02320C460120A8E70023013477
:10436000059319464FF00A0C204610F8012B303AFD
:10437000092A03D9002BC6D00591C4E70CFB012103
:1043800004460123F0E703AB00932A46124B04A92D
:104390003046AFF300800746781CD6D16B6ED90744
:1043A00005D4AB899A0502D4A86DFFF715FDAB893A
:1043B0005B063FF51FAF09981EE703AB00932A4643
:1043C000054B04A9304600F079F8E4E72F600000BF
:1043D00039600000000000008B41000035600000E3
:1043E0002DE9F047164698468A680B69DDF820905B
:1043F0009342B8BF1346336091F8432007460C46FA
:104400000AB1013333602368990642BF336802332F
:104410003360256815F0060506D104F1190AE36832
:1044200032689B1AAB4226DC94F843302268003B8A
:1044300018BF012392062BD404F1430241463846AB
:10444000C84701301ED02368226903F00603042BFD
:1044500002BFE5683368ED1AA3680CBF25EAE5756D
:1044600000259342C4BF9B1AED1800261A34B542AA
:104470001AD1002008E00123524641463846C84779
:10448000013003D14FF0FF30BDE8F0870135C6E7BA
:10449000E1185A1C302081F84300224494F845105A
:1044A00082F843100233C7E70123224641463846CB
:1044B000C8470130E6D00136D9E700002DE9FF47B3
:1044C0000F7E0C9E782F914680460C469A4601F14D
:1044D000430207D8622F0AD8002F00F0D180582F4E
:1044E00000F0B88004F1420684F842703AE0A7F187
:1044F0006303152BF6D801A151F823F055450000B0
:1045000069450000E5440000E5440000E544000082
:10451000E544000069450000E5440000E544000072
:10452000E5440000E54400006746000093450000B4
:1045300021460000E5440000E544000089460000F3
:10454000E544000093450000E5440000E544000018
:104550002946000033681A1D1B68326004F14206C8
:1045600084F8423001239CE033682068191D3160D3
:10457000060601D51D6803E04506FBD5B3F90050DA
:10458000002D03DA2D236D4284F8433058480A2366
:1045900011E021683368080653F8045B02D4490629
:1045A00048BFADB26F2F5248336014BF0A230823AF
:1045B000002184F843106668A660002E05DB2168A0
:1045C0002E4321F0040121604BD01646B5FBF3F1D8
:1045D00003FB1157C75D06F8017D2F46BB420D4610
:1045E000F4D9082B0BD12368DF0708D5236961684C
:1045F0009942DEBF302306F8013C06F1FF36921BDC
:104600002261CDF800A04B4603AA21464046FFF7A1
:10461000E7FE01304AD14FF0FF3004B0BDE8F0872B
:10462000236843F0200323603248782784F84570DC
:10463000236831681F0651F8045B02D45F0648BF47
:10464000ADB23160D90744BF43F0200323601DB1F0
:104650001023ADE72648E9E7236823F02003236011
:10466000F6E71646BDE7336825686169181D3060B6
:104670002E061B6801D5196002E06806FBD519807B
:10468000002323611646BCE733681A1D32601E689A
:1046900062680021304600F0F3FD08B1801B6060C5
:1046A00063682361002384F84330AAE72369324614
:1046B00049464046D0470130ADD023689B0713D40C
:1046C000E068039B9842B8BF1846A6E7012332462C
:1046D00049464046D04701309DD00135E3680399F3
:1046E0005B1AAB42F2DCEBE7002504F11906F5E7B3
:1046F00040600000516000002DE9F04F1D464B6EF8
:10470000DF07ADF5237D06460C46924605D48B891E
:10471000980502D4886DFFF75EFB0023CDE9443392
:10472000A84BA0930DF10408A74BA84FCDF8188112
:10473000A19300959AF80090B9F1000F00F06D81F7
:1047400017F8093013F008030AF1010519D063685E
:10475000002B0FDD23681A78BA5C110701D4AA4632
:10476000E8E7459A0132459262680133013A626096
:104770002360ECE7A19B2146304698470028E9D00A
:10478000EDE7B9F1250F40F08880419343939AF803
:1047900001302A2B02BF102341930AF102050A229D
:1047A000AA461AF8011BA1F13003092B1FD9DFF823
:1047B00020B20322584600F063FD38B1419AA0EBC5
:1047C0000B000123834013434193554615F8013BE9
:1047D000782B07D8572B11D8252B5ED058D8002B13
:1047E00000F0D280032347930A2342938FE0439B38
:1047F00002FB0311303943915546D1E7A3F158022A
:10480000202AEFD801A151F822F000BFED480000A6
:10481000E5470000E547000047490000E547000084
:10482000E5470000E5470000E5470000E5470000D8
:10483000E5470000E54700005D49000043490000EE
:10484000974800009748000097480000E54700009F
:10485000FF480000E5470000E5470000E54700008D
:10486000E54700006D49000007490000E5480000E9
:10487000E5470000E547000069490000E547000002
:1048800043490000E5470000E5470000ED4800000F
:10489000453B022BA6D8052338E06368002B0DDDCD
:1048A00023681A784A4540F0B88001336268236073
:1048B000459B013A01336260459350E7A19B214635
:1048C000304698470028EBD0636EDA0740F19D80B0
:1048D0004498002861D0A38959065ED40DF5237D44
:1048E000BDE8F08F419A42F020024192419A42F491
:1048F0000072419210226E2B429202D905E00023F1
:104900004293032302E008234293042347936368FE
:10491000002B45DD419B590604D423681A78BA5C04
:10492000120744D4479B022B5BDC6B46224641A90D
:10493000304600F093F801286FD002287FF40FAFC3
:10494000C2E70A22D7E72946404600F003FB419B15
:1049500043F04003419305460123D7E7419B43F0D1
:10496000400341930023D1E70223CFE74198C306D8
:104970003FF5F5AE009B459A191D00911B68C007D5
:104980004CBF1A801A60EAE6636EDE0705D4A3897D
:104990009D0502D4A06DFFF71FFA4FF0FF309DE791
:1049A000A19B2146304698470028B3D08CE7459A12
:1049B000013245926268013A002A62600ADD0133E1
:1049C0002360AAE73B5000006D4E00008D600000A0
:1049D00035600000A19B21463046984700289CD0B6
:1049E00072E7042B06DC6B46224641A9304600F0F4
:1049F0008FF8A0E70E4B002B3FF4B1AE6B4622467A
:104A000041A93046AFF3008095E7A38998053FF5AB
:104A10005FAFA06DFFF7E0F95AE7636EDA0705D4E0
:104A2000A3899B0502D4A06DFFF7D6F9449855E7FA
:104A3000000000002DE9F0410D4616461F460446D1
:104A400018B1036A0BB9FFF7A1F83B463246294675
:104A50002046BDE8F041FFF74FBE00002DE9F843C6
:104A600015468A6880460C4632B98A69002A14BF06
:104A70004FF0FF3201228A602268DFF89090D10661
:104A80005FBF1A68111D196016680027A06988B1F8
:104A9000012807D12B681A7863699B5C53B9002FF2
:104AA00031D022E0022820D12B681B7819F803307E
:104AB0001B071AD42368DA065EBF2B681B7806F83A
:104AC000013B2A686B6801322A60A268013B013A07
:104AD0006B600137A26042B1002BD7DCD4F8803183
:104AE0002946404698470028D0D0236813F0100389
:104AF00005D1E2680132E260A26902B13370236934
:104B00003B4423610020BDE8F88300BF8D600000B6
:104B10002DE9F04F9846744B0C468246164693E8B2
:104B2000070087B003AB83E80700704BA169704AA8
:104B3000032908BF1A46A36801925A1EB2F5AE7F38
:104B400088BF6FF4AE75274682BF03EB050940F2BC
:104B50005D13A36057F81C3B43F4506398BF4FF0BC
:104B6000000923603D464FF0000B316803AB097824
:104B700053F82B00022200F083FB28B3BBF1010F96
:104B800059D162682AB92268082142F40072616032
:104B90002260226822F4A0622260A268511EA160F5
:104BA00092B13268511C3160127805F8012B72689D
:104BB000013A002A726007DCD4F880213146504661
:104BC0009047002840F085800BF1010BBBF1030FEB
:104BD000CBD163680BB90A23636063684549606998
:104BE000C91A00F0B7F94FF0000BA3682268002B38
:104BF0003DD03168606991F800C010F80C000028C1
:104C000035D0BCF1300F24D1100522D50BF1010BAA
:104C1000B9F1000F03D0013309F1FF39A3607368C4
:104C2000013B002B73601BDD336801333360A368E5
:104C3000013BA360D9E7BBF1020FAED1226802F4B9
:104C4000C061B1F5007FBFD11021616042F4807274
:104C5000A2E722F4106222600B7805F8013BDEE740
:104C6000D4F880313146504698470028DFD0236879
:104C7000D9050DD5BD4209D915F8011CD4F87C31F0
:104C800032465046984705F1FF394D46BD4228D07F
:104C9000226812F0100213D12A706368019E39460F
:104CA0005046B047D8F8003021681A1DC8F80020D7
:104CB00011F0200F1B680FD01860E3680133E36028
:104CC0002369ED1B5D442B442361002007B0BDE840
:104CD000F08F4FF0000BCAE7CA074CBF188018606E
:104CE000EBE70120F2E700BF806000007154000094
:104CF0005155000072600000B1F90C202DE9F0411F
:104D0000160705460C4654D44B68002B02DC0B6C8E
:104D1000002B48DDE66A002E45D0002312F48052B5
:104D20002F68216A2B6030D0626DA389590705D5A1
:104D30006368D21A636B0BB1236CD21A0023E66A44
:104D4000216A2846B047431CA38906D129681D293A
:104D50002BD82A4ACA40D60727D500226260D90438
:104D60002269226004D5421C01D12B6803B9606519
:104D7000616B2F60B9B104F14403994202D0284617
:104D8000FFF7F4F8002363630DE001232846B047E2
:104D90000246501CC9D12B68002BC6D01D2B01D058
:104DA000162B1ED12F60002022E043F040031BB2DF
:104DB0001BE00F69002FF6D093070E6808BF4B6900
:104DC0000F6018BF0023A6EB07088B60B8F1000F37
:104DD000E9DD216AA66A43463A462846B0470028DC
:104DE00008DCB4F90C3043F04003A3814FF0FF30EE
:104DF000BDE8F0810744A8EB0008E7E70100402088
:104E000038B50B6905460C4613B90025284638BD50
:104E100018B1036A0BB9FEF7B9FEB4F90C30002BD8
:104E2000F3D0626ED00704D4990502D4A06DFEF7CA
:104E3000D2FF28462146FFF75FFF636EDA0705467B
:104E4000E4D4A3899B05E1D4A06DFEF7C5FFDDE79F
:104E50008B8903F00903092B03D1034B1868FFF773
:104E6000CFBF0020704700BF2400002070B50C4663
:104E7000054618B1036A0BB9FEF788FE002363608C
:104E8000B4F90C309E0608D4580745D4D90607D487
:104E900009222A6043F04003A3814FF0FF3070BD28
:104EA0001A070BD521462846FFF7AAFF0028F4D1A0
:104EB000A389A06023F00803A381A061A38943F024
:104EC0000403A38123691BB92146284600F068FB2F
:104ED000B4F90C60B3070FD001231B4A1B491C48CF
:104EE000A381FEF76BFEA68106F00906092E03D109
:104EF00021462846FFF700FF2269666A6369216A36
:104F000022602846B0470028606017DCB4F90C30F6
:104F100016D143F02003BFE7616B0029D2D004F122
:104F20004403994202D02846FFF720F80023636328
:104F3000236C6360002BC5D0E36B23600020AEE7D9
:104F400000226260A6E700BF18000020514E00005A
:104F50002800002070B50B7804465E2B0BBF4B7801
:104F60004A1C8A1C002108BF0121013804F1FF05F9
:104F700000F8011FA842FBD10BB9501E70BD81F093
:104F80000101E1541046024612F8015B2D2D05D0B7
:104F90005D2D16D0002DF1D02B46F2E746785D2E20
:104FA000FAD0B342F8DC02301A4601329642A154DC
:104FB000FBDCF21A013A5D1CB342A8BF0022AB1819
:104FC000E1E71046DAE72DE9F0410C46496B04F1C0
:104FD000440399421DD14FF48061FFF733F818B9AB
:104FE0004FF0FF30BDE8F0814FF48063A36394F885
:104FF0004630606380F8FF3394F8453080F8FE3324
:1050000094F8443080F8FD3300F2FD302060002039
:10501000E8E7A66B77003A4600F082F905460028DB
:10502000DED000EB0608014632464046FEF7D5FECC
:10503000C4E90D57C4F80080E9E770B50D46691C56
:10504000064614461ED018B1036A0BB9FEF79EFD42
:10505000636EDA0705D4A3899B0502D4A06DFEF721
:10506000BAFEB4F90C3023F020025807A28122D4F2
:10507000D9060AD4626ED20704D4990502D4A06D71
:10508000FEF7AAFE4FF0FF3546E01B070FD521467D
:105090003046FFF7B5FE20B1636ED807F2D4A3897E
:1050A000EBE7A389A06023F00803A381A061A38993
:1050B00043F00403A381636B6268EDB2D3B1A36BC9
:1050C000934205DC21463046FFF77DFF0028E3D1FF
:1050D00023685A1E226003F8015C63680133636031
:1050E000636EDA0718D4A3899B0515D4A06DFEF76B
:1050F00073FE11E0616E2069236801F0010168B15F
:1051000098420BD213F8010CA84207D1013B01329F
:10511000236062600029E6D0284670BDC4E90F32E2
:1051200004F1440363630323A363234603F8465F48
:10513000236001236360EDE7F8B50E46144605468B
:1051400018B1036A0BB9FEF721FDA369A360A38917
:105150001A0701D5236943B92146284600F02AF8E9
:1051600018B14FF0FF373846F8BD23682269981A06
:105170006369F6B28342374605DC21462846FFF7CD
:105180003FFE0028EDD1A368013BA36023685A1CB1
:1051900022601E706269431C9A4204D0A389DB0717
:1051A000E1D50A2EDFD121462846FFF729FE002847
:1051B000D9D0D6E738B5294B054618680C4618B142
:1051C000036A0BB9FEF7E2FCB4F90C30190722D4DC
:1051D000DA0607D409222A6043F04003A3814FF086
:1051E000FF3033E0580712D5616B41B104F144033D
:1051F000994202D02846FEF7B9FE00236363A389D3
:1052000023F02403A3810023636023692360A3891F
:1052100043F00803A38123694BB9A38903F42073E6
:10522000B3F5007F03D02146284600F0B9F9B4F960
:105230000C3013F001020AD00022A26062695242CF
:10524000A261226942B913F08000C5D138BD990727
:1052500058BF6269A260F4E70020F7E7240000204D
:1052600038B5064D0023044608462B6000F024FAAA
:10527000431C02D12B6803B1236038BDF005002028
:1052800001F0FF01102A2BDB10F0070F08D010F8F7
:10529000013B013A8B422DD010F0070F42B3F6D1FB
:1052A000F0B441EA012141EA014122F007047FF014
:1052B00000070023F0E80256083C85EA010586EA6B
:1052C000010685FA47F5A3FA87F586FA47F6A5FAA7
:1052D00087F68EB9EED1F0BC01F0FF0102F00702B3
:1052E00032B110F8013B013A83EA010313B1F8D15E
:1052F0000020704701387047002D06BF354603383F
:10530000073815F0010F07D1013015F4807F02BF77
:10531000013015F4C03F0130F0BC0138704700BFC8
:105320002DE9F041074614460D4621B9BDE8F0418C
:105330001146FEF787BE2AB9FEF718FE2546284615
:10534000BDE8F08100F090F98442064602D8B4EB43
:10535000500FF4D821463846FEF774FE804608B94F
:105360004546ECE7B4422246294628BF3246FEF7BE
:1053700034FD29463846FEF7F9FDF1E7242B2DE9E7
:10538000F0478646904601D8012B06D100F066F919
:10539000162303600020BDE8F08734480D462A46F6
:1053A00015F8014B065D16F00806F8D12D2C10D12A
:1053B0002C780126951C33F0100215D1302C0DD11C
:1053C0002A7802F0DF02582A08D16C7802351023BF
:1053D0000AE02B2C04BF2C78951CECE7002BF6D1AF
:1053E000302C14BF0A23082306F1004C0CF1FF3CBB
:1053F0000022BCFBF3F9104603FB19CAA4F13007E5
:10540000092F0FD83C46A3421BDD571C07D081450E
:1054100014D301D1A24511DB00FB0340012215F892
:10542000014BEBE7A4F14107192F01D8373CEAE71C
:10543000A4F16107192F04D8573CE4E74FF0FF327D
:10544000EDE7531C08D12223CEF800306046B8F1B6
:10545000000FA0D0691E06E006B14042B8F1000F6F
:1054600099D0002AF6D1C8F8001094E78D600000AA
:10547000FFF784BF2DE9F043344E86460D4628469B
:1054800015F8014B375D17F00807F8D12D2C10D116
:105490002C780127851C33F0100015D1302C0DD14C
:1054A000287800F0DF00582808D16C7802351023E6
:1054B0000AE02B2C04BF2C78851CECE7002BF6D1DE
:1054C000302C14BF0A2308234FF0FF380026B8FB06
:1054D000F3F803FB08F96FEA09093046A4F1300C30
:1054E000BCF1090F10D86446A3421EDDB6F1FF3FA0
:1054F00007D0804516D301D1A14513DB00FB034043
:10550000012615F8014BE9E7A4F1410CBCF1190F94
:1055100001D8373CE8E7A4F1610CBCF1190F04D8BD
:10552000573CE1E74FF0FF36EBE7731C06D122232F
:10553000CEF80030304632B9BDE8F08307B14042C2
:10554000002AF9D006B1691E1160F5E78D600000F0
:10555000FFF790BF70B50C46B1F90E10002996B058
:1055600015461E460DDAA38913F0800F4FF0000197
:1055700014BF40234FF48063002031602B6016B0CD
:1055800070BD6A4600F048F80028ECDB019901F490
:105590007041A1F50053594259414FF48063EBE744
:1055A0008B89F7B59D0706460C4607D504F14703DE
:1055B000236023610123636103B0F0BD01AB6A4640
:1055C000FFF7C8FF009F054639463046FEF73AFD13
:1055D00048B9B4F90C309A05EED423F0030343F034
:1055E0000203A381E2E7A389206043F08003A38143
:1055F000019BC4E904075BB1B4F90E10304600F01A
:105600001DF828B1A38923F0030343F00103A3810C
:10561000A3891D43A581CFE738B5074D0023044674
:10562000084611462B6000F02FF8431C02D12B686E
:1056300003B1236038BD00BFF005002038B5064D2A
:105640000023044608462B6000F026F8431C02D1D4
:105650002B6803B1236038BDF0050020014B1868AA
:10566000704700BF2400002051F8043C181F002B95
:10567000BCBF0B58C0187047024B58221A604FF03D
:10568000FF307047F0050020024B58221A604FF09F
:10569000FF307047F0050020024B58221A600020AE
:1056A000704700BFF0050020024B58221A604FF0EF
:1056B000FF307047F0050020044A05491368002BAD
:1056C00008BF0B461844106018467047900600202B
:1056D00098060020FEE700BFF8B500BFF8BC08BC84
:1056E0009E467047F8B500BFF8BC08BC9E467047A0
:1056F00011121314FFFFFFFFFFFFFFFFFFFFFFFF6C
:10570000FFFFFFFF00000000000000000000D601C6
:105710000701000055736167653A0D0A000000003B
:10572000613A20456E7465722073746172742063EF
:1057300068616E6E656C20666F7220737765657048
:105740002F6368616E6E656C20666F7220636F6E8A
:105750007374616E7420636172726965720D0A0000
:10576000623A20456E74657220656E6420636861DC
:105770006E6E656C20666F722073776565700D0ABA
:1057800000000000633A2053746172742054582062
:10579000636172726965720D0A000000643A204507
:1057A0006E7465722074696D65206F6E206561632B
:1057B00068206368616E6E656C2028316D732D39C9
:1057C000396D73290D0A0000653A2043616E6365E7
:1057D0006C2073776565702F636172726965720DF5
:1057E0000A0000006D3A20456E7465722064617491
:1057F0006120726174650D0A000000006F3A205349
:1058000074617274206D6F64756C6174656420548A
:105810005820636172726965720D0A00703A204502
:105820006E746572206F757470757420706F776513
:10583000720D0A00733A205072696E74206375729B
:1058400072656E742064656C61792C206368616E8A
:105850006E656C7320616E6420736F206F6E0D0A2D
:1058600000000000723A2053746172742052582074
:1058700073776565700D0A00743A20537461727411
:105880002054582073776565700D0A00783A2053CC
:105890007461727420525820636172726965720D6E
:1058A0000A0000006E3A20456E7465722074696EBD
:1058B000795F6165735F313238206D6F64650D0A01
:1058C00000000000202020703A20456E7465722090
:1058D000706C61696E746578740D0A002020206B0D
:1058E0003A20456E746572206B65790D0A000000E0
:1058F000202020653A20456E63727970740D0A008D
:105900002020206E3A20536574206E756D6265729A
:10591000206F662072657065746974696F6E730DAF
:105920000A000000202020723A2052756E20726515
:1059300070656174656420656E6372797074696FF7
:105940006E0D0A00202020713A2051756974207470
:10595000696E795F6165735F313238206D6F6465A0
:105960000D0A0000456E74657220646174612072D6
:1059700061746520282730273D323530204B62691D
:10598000742F732C202731273D31204D6269742FED
:10599000732C202732273D32204D6269742F7320EB
:1059A000616E64202733273D424C452031204D62F3
:1059B00069742F73293A0D0A000000002563000066
:1059C00025630D0A000000000D0A0000456E746595
:1059D00072206F757470757420706F7765722028EF
:1059E0002730273D2B342064426D2C202731273D62
:1059F000302064426D2C2E2E2E2C2737273D2D3340
:105A0000302064426D293A0D0A0000005061726135
:105A10006D65746572733A0D0A000000446174612B
:105A200020726174652E2E2E2E2E2E2E2E2E2E2EB0
:105A30003A20323530204B6269742F730D0A000012
:105A40004461746120726174652E2E2E2E2E2E2ECE
:105A50002E2E2E2E3A2031204D6269742F730D0A9E
:105A6000000000004461746120726174652E2E2E66
:105A70002E2E2E2E2E2E2E2E3A2032204D6269747E
:105A80002F730D0A0000000044617461207261747C
:105A9000652E2E2E2E2E2E2E2E2E2E2E3A20424CBF
:105AA000452031204D6269742F730D0A00000000FB
:105AB000545820506F7765722E2E2E2E2E2E2E2E9D
:105AC0002E2E2E2E3A202B342064426D0D0A00001B
:105AD000545820506F7765722E2E2E2E2E2E2E2E7D
