:100000000C9435000C945D000C945D000C945D0024
:100010000C945D000C945D000C945D000C945D00EC
:100020000C945D000C945D000C945D000C945D00DC
:100030000C945D000C945D000C945D000C945D00CC
:100040000C94A7050C945D000C94A0060C94CD06AE
:100050000C945D000C945D000C945D000C945D00AC
:100060000C945D000C945D00E00B11241FBECFEFDB
:10007000D8E0DEBFCDBF15E0A0E0B1E0E4ECFDE1EB
:1000800002C005900D92AC3AB107D9F727E0ACEA6F
:10009000B5E001C01D92A031B207E1F710E0C5E361
:1000A000D0E004C02197FE010E945D0CC433D1074B
:1000B000C9F70E940D0C0C94D20E0C940000CF9244
:1000C000DF92EF92FF921F93CF93DF93C091AE0523
:1000D000D091AF05E0EBF5E0DF0188818C93898159
:1000E00011968C9311978A8112968C9312978B811B
:1000F00013968C9313972496149685E0A03CB8072A
:1001000061F744E050E060E070E0A4853585168535
:1001100027856A017B01D3E0CD22DD24EE24FF2474
:10012000CD28CE28CF2809F5C32FD0E0C150DD4F10
:10013000F880C12FD0E0C150DD4F3881C22FD0E010
:10014000C150DD4F1881B0E0A150BD4F2C91DB01B3
:10015000CA01C2E0B695A79597958795CA95D1F73C
:1001600080509F4FEC01A881AF2580818A27808B2A
:1001700081818327818B82818127828B8381822762
:10018000838B4F5F5F4F6F4F7F4F34964C325105DB
:100190006105710509F0B9CFDF91CF911F91FF90F3
:1001A000EF90DF90CF9008951F93CF93DF9320912E
:1001B00060063091610640E1849FC0011124B901BD
:1001C000605F7F4FDC01A055BA4FF90140E05191CB
:1001D0001D91EF0151275A934F5F4430C1F72C5FB7
:1001E0003F4F04962617370769F7DF91CF911F918C
:1001F00008958091600690916106AC014C5F5F4F5D
:10020000DC0124E0EC91F0E0E150FD4F30813C93C3
:10021000215014962111F6CF01968417950781F786
:100220000895E0916006F091610681819581918346
:100230009185958395859187858782819285928323
:100240008287868196859683868783819785938327
:10025000938597879781938787830895982F990F20
:10026000990B9B71880F8927089580916006909162
:100270006106AC014C5F5F4FDC0124E0EC91F0E0E3
:10028000E150FE4F30813C93215014962111F6CF5E
:1002900001968417950781F70895E0916006F09123
:1002A0006106858591859587958191879181958353
:1002B00081838281928592838287868196859683C7
:1002C0008687838197819383938597839785938787
:1002D000878708959F92AF92BF92CF92DF92EF925D
:1002E000FF920F931F93CF93DF9380E00E94D4007F
:1002F000CC24C3940E94F9000E941101C0916006B1
:10030000D09161067E0180E1E80EF11CA880D980C1
:100310008A2D8D250A811B81902E9126B82EB92415
:100320000E942E018A258B2588838D2D80270E948F
:100330002E01D826DB24D982892D0E942E01082780
:100340000B250A838A2D81270E942E0118271B2541
:100350001B832496EC16FD06C9F68C2D0E94D40052
:10036000C3948AE0C812C6CF0E94F9000E9411010E
:100370008AE0DF91CF911F910F91FF90EF90DF9076
:10038000CF90BF90AF909F900C94D4002F923F924B
:100390004F925F926F927F928F929F92AF92BF9295
:1003A000CF92DF92EF92FF920F931F93CF93DF9341
:1003B00000D000D0CDB7DEB78AE00E94D40089E03B
:1003C000682E0E944D010E943501862D0E94D400A6
:1003D00080916006909161069C838B8340965C01BE
:1003E000EB81FC813080418052802380832D0E94EC
:1003F0002E0189830E942E018A830E942E01C82E1D
:10040000842D0E942E01182F0E942E01982E0E94EA
:100410002E01D82E852D0E942E01782E0E942E01AD
:10042000882E0E942E01082F822D0E942E01E82E78
:100430000E942E01F82E0E942E01282F8981FA8118
:100440008F278C2581278D25882580278227842545
:1004500085258225EB81FC8180838C2D8127892550
:100460008D25872580278F25822783258525822531
:1004700081839A819C259D259725982590279E25E7
:100480009227932594259225928389818C2589250D
:100490008D2580278E258F258227832584258525F8
:1004A00083833496FC83EB83AE16BF0609F098CFA6
:1004B0006A9409F086CF0E944D010E94350180E0C8
:1004C0000F900F900F900F90DF91CF911F910F9190
:1004D000FF90EF90DF90CF90BF90AF909F908F9064
:1004E0007F906F905F904F903F902F900C94D4002E
:1004F000FB01DC01CB01409621912D93E817F90710
:10050000D9F70895CF93DF93FC01A091AC05B0918A
:10051000AD059C01205F3F4F81919D91EF0189279F
:100520008A93E217F307C1F7DF91CF9108950F93F4
:100530001F93CF93DF938B01D42FC52FBC01842F42
:10054000952F0E947802D0936006C09361060093B5
:10055000AE051093AF050E945F00DF91CF911F9110
:100560000F910C946A010F931F93CF93DF938B012C
:10057000D42FC52FBC01842F952F0E947802D093D1
:100580006006C09361060093AE051093AF050E940C
:100590005F00DF91CF911F910F910C94C6014F9294
:1005A0005F926F927F928F929F92AF92BF92CF9203
:1005B000DF92EF92FF920F931F93CF93DF936C0123
:1005C0004B0129013A01E701822F8F70F82EC601F5
:1005D0000E947802D0926106C09260060115110552
:1005E00031F01093AF050093AE050E945F00209795
:1005F00021F0D093AD05C093AC0500E010E05401AC
:10060000A00EB11EE601C00FD11F0415150516047A
:10061000170438F1F114C9F1B501CE010E94780236
:1006200040E150E04F19510960E070E0CE018F0DBC
:10063000911D0E949F0ED0936106C0936006DF91CA
:10064000CF911F910F91FF90EF90DF90CF90BF90CF
:10065000AF909F908F907F906F905F904F900C9491
:100660006A01C5010E948202B501CE010E94780292
:10067000D0936106C09360060E946A01D093AD05D5
:10068000C093AC05005F1F4FBACFDF91CF911F9190
:100690000F91FF90EF90DF90CF90BF90AF909F9021
:1006A0008F907F906F905F904F9008953F924F9200
:1006B0005F926F927F928F929F92AF92BF92CF92F2
:1006C000DF92EF92FF920F931F93CF93DF936C0112
:1006D0002B0149015A01E8013701822F8F70382E12
:1006E000C6010E947802D0926106C0926006CD2BAE
:1006F00031F01093AF050093AE050E945F006114C6
:10070000710421F07092AD056092AC0500E010E03C
:100710007201E00EF11EE601C00FD11F0815190588
:100720001A041B0440F13114D1F1B701CE010E942B
:10073000780240E150E04319510960E070E0CE01D9
:10074000830D911D0E949F0ED0936106C093600699
:10075000DF91CF911F910F91FF90EF90DF90CF909D
:10076000BF90AF909F908F907F906F905F904F90D1
:100770003F900C94C601B701CE010E947802D0933D
:100780006106C09360060E94C601CE010E948202EB
:10079000F092AD05E092AC05005F1F4FB9CFDF913D
:1007A000CF911F910F91FF90EF90DF90CF90BF906E
:1007B000AF909F908F907F906F905F904F903F9001
:1007C00008950F931F93CF93DF93EC018C01005F8B
:1007D0001F4F69914AE050E08DE696E00E941E0AA4
:1007E00066E774E08DE696E00E94B808C017D1076E
:1007F00081F766EC74E08DE696E0DF91CF911F9172
:100800000F910C94B808CF93DF93CDB7DEB7E09784
:100810000FB6F894DEBF0FBECDBF8FEF93E00E94FE
:10082000A60E20E1CE018196FC01322F11923A955D
:10083000E9F7DE015196FD01322F11923A95E9F761
:10084000AE014F5F5F4FFA0111922A95E9F7F82E3A
:10085000E92EDA2ECB2EB42EA52E60E174E08DE6C3
:1008600096E00E94B80868EE73E080E090E00E9495
:10087000200663E274E08DE696E00E94B80800E08E
:1008800010E04B2D5A2D6F2D7E2D8D2D9C2D0E940D
:1008900097020F5F1F4F0838F3E11F0791F7DDCF75
:1008A00026E040E855E260E070E08DE696E00C94CA
:1008B000D607FF920F931F93CF93DF93C0E0D0E052
:1008C0008AE0F82E8DE696E00E94FD0618161906BD
:1008D000CCF78DE696E00E9416078C018D309105CD
:1008E00079F08A30910561F0809751F0FC9EC0014B
:1008F000FD9E900D1124E801E097C80FD91FE2CFAB
:10090000CE01DF91CF911F910F91FF9008950F932A
:100910001F93CF93DF93EC018C01005F1F4F0E9468
:1009200059048993C017D107D1F7DF91CF911F9157
:100930000F9108954F925F926F927F928F929F9244
:10094000AF92BF92CF92DF92EF92FF920F931F93DD
:10095000CF93DF93CDB7DEB7E0970FB6F894DEBF45
:100960000FBECDBF69E374E08DE696E00E94B80843
:1009700020E1CE018196FC01322F11923A95E9F7E0
:10098000DE015196FD01322F11923A95E9F7AE0141
:100990004F5F5F4FFA0111922A95E9F7C12CD12CD4
:1009A0007601C394182F092FBA2EAB2E4A018DE67B
:1009B00096E00E94FD0618161906CCF78DE696E023
:1009C0000E941607EBE9E80FEE3088F70E2E000CB8
:1009D000FF0BEC52F14F0C945D0C8B2D9A2D0E9465
:1009E00087048B2D9A2D0E94E103E1CF812F902F58
:1009F0000E948704812F902FF6CFA401612F702FC2
:100A00008B2D9A2D0E949702D2CF0E9459046C011F
:100A1000990FEE08FF0866E574E08DE696E00E9407
:100A2000B8082AE030E0B701A6018DE696E00E9402
:100A3000110A66EC74E08DE696E00E94B808B7CF24
:100A4000A401612F702F8B2D9A2D0E949702FFEF2A
:100A50004F1A5F0A6F0A7F0A4C145D046E047F040C
:100A600079F768E774E0E7CF412C512C3201F4CFDD
:100A7000C401B9CF6FE774E08DE696E00E94B80834
:100A8000E0960FB6F894DEBF0FBECDBFDF91CF91D9
:100A90001F910F91FF90EF90DF90CF90BF90AF909C
:100AA0009F908F907F906F905F904F9008958DE60C
:100AB00096E00E94FD0618161906CCF78DE696E022
:100AC0000E941607282F30E0883651F02E36310567
:100AD00029F021363105D1F50E9403040C949A04C3
:100AE0006BE974E08DE696E00E94B80864EA74E071
:100AF0008DE696E00E94B80869EC74E08DE696E019
:100B00000E94B80866EE74E08DE696E00E94B80890
:100B10006EEF74E08DE696E00E94B80860E175E043
:100B20008DE696E00E94B80860E275E08DE696E0FA
:100B30000E94B80862E475E08DE696E00E94B8086D
:100B400062E675E08DE696E00C94B80808951F9271
:100B50001FB61F9211242F933F938F939F93AF93B0
:100B6000BF938091640690916506A0916606B0914E
:100B7000670630916C0623E0230F2D3750F5019660
:100B8000A11DB11D20936C068093640690936506A9
:100B9000A0936606B09367068091680690916906F7
:100BA000A0916A06B0916B060196A11DB11D8093BC
:100BB000680690936906A0936A06B0936B06BF918E
:100BC000AF919F918F913F912F911F901FBE1F90CA
:100BD000189526E8230F0296A11DB11DD3CF2FB77C
:100BE000F894609164067091650680916606909114
:100BF00067062FBF08953FB7F894809168069091DB
:100C00006906A0916A06B0916B0626B5A89B05C03F
:100C10002F3F19F00196A11DB11D3FBFBA2FA92F7B
:100C2000982F8827BC01CD01620F711D811D911D78
:100C300042E0660F771F881F991F4A95D1F70895E4
:100C40008F929F92AF92BF92CF92DF92EF92FF92DC
:100C50006B017C010E94FB054B015C01C114D104B6
:100C6000E104F104E9F00E94DF0B0E94FB05681922
:100C700079098A099B09683E73408105910570F3E3
:100C800021E0C21AD108E108F10888EE880E83E05D
:100C9000981EA11CB11CC114D104E104F10429F770
:100CA000FF90EF90DF90CF90BF90AF909F908F908C
:100CB00008959C01029740F0220F331F220F331F2B
:100CC000C90105970197F1F70895789484B582607A
:100CD00084BD84B5816084BD85B5826085BD85B5E0
:100CE000816085BDEEE6F0E0808181608083E1E88F
:100CF000F0E01082808182608083808181608083C7
:100D0000E0E8F0E0808181608083E1EBF0E08081C9
:100D100084608083E0EBF0E0808181608083EAE79B
:100D2000F0E0808184608083808182608083808124
:100D3000816080838081806880831092C1000895E3
:100D40002F932FB72F938F939F93EF93FF93E09160
:100D50007D06F0917E068081E0918306F091840605
:100D600082FD19C09081809186068F5F8F732091DC
:100D70008706821741F0E0918606F0E0E359F94FCB
:100D8000958F80938606FF91EF919F918F912F9180
:100D90002FBF2F9118958081F6CF1F920F920FB61B
:100DA0000F9211242F933F934F935F936F937F93F1
:100DB0008F939F93AF93BF93EF93FF938DE696E04E
:100DC0000E944707FF91EF91BF91AF919F918F9143
:100DD0007F916F915F914F913F912F910F900FBE37
:100DE0000F901F9018958DE696E00E94FD069C01DD
:100DF00081E0232B09F480E00895FC01818D228D90
:100E000090E0805C9F4F821B91098F739927089512
:100E1000FC01918D828D981731F0828DE80FF11DC4
:100E2000858D90E008958FEF9FEF0895FC01918DDF
:100E3000828D981761F0A28DAE0FBF2FB11D5D9608
:100E40008C91928D9F5F9F73928F90E008958FEFAA
:100E50009FEF0895FC01538D448D842F90E0252F42
:100E600030E0821B930B541710F0CF960895019732
:100E7000089583EF96E0892B49F080E090E0892B7C
:100E800029F00E94F30681110C9400000895FC01E2
:100E9000A48DA80FB92FB11DA35ABF4F2C91848DDB
:100EA00090E001968F739927848FA689B7892C9338
:100EB000A089B1898C91837080648C93938D848D8B
:100EC000981306C00288F389E02D80818F7D80838E
:100ED0000895CF93DF93EC01888D81110FC0DF91CE
:100EE000CF9108950FB607FC0DC08C9185FF0AC005
:100EF000808185FF07C0CE010E944707AA89BB8970
:100F0000E889F9898C9185FDEDCF808186FFEACF54
:100F1000E6CFEF92FF920F931F93CF93DF93EC01F5
:100F2000F62E81E0888F9B8D8C8D98131AC0E889EE
:100F3000F989808185FF15C09FB7F894EE89FF89F4
:100F40006083E889F98980818370806480839FBF92
:100F500081E090E0DF91CF911F910F91FF90EF9092
:100F600008950B8D10E00F5F1F4F0F731127E02EB8
:100F70008C8D8E1579F0EB8DEC0FFD2FF11DE35A62
:100F8000FF4FF0829FB7F8940B8FEA89FB8980812D
:100F90008062DCCF0FB607FCEBCFE889F98980814E
:100FA00085FFE6CFCE010E944707E2CFCF92DF92C6
:100FB000EF92FF921F93CF93DF93EC016A017B01C5
:100FC000122FE889F98982E08083C11481EED80666
:100FD000E104F104A1F060E079E08DE390E0A70185
:100FE00096010E943B0C2150310941095109569547
:100FF000479537952795211580E1380798F0E889BE
:10100000F989108260E874E88EE190E0A70196010A
:101010000E943B0C215031094109510956954795D1
:1010200037952795EC85FD853083EE85FF852083F8
:10103000188EEC89FD891083EA89FB8980818061A3
:101040008083EA89FB89808188608083EA89FB89C3
:10105000808180688083EA89FB8980818F7D80839D
:10106000DF91CF911F91FF90EF90DF90CF90089587
:10107000CF93DF93EC01E881F9810680F781E02DC1
:101080000995EA89FB8980818F7E8083EA89FB89C3
:101090008081877F8083EA89FB8980818F77808345
:1010A000EA89FB8980818F7D80838A8D898FDF919A
:1010B000CF91089580E090E0089508950895CF922B
:1010C000DF92EF92FF920F931F93CF93DF937C01F8
:1010D0006A0100E010E00C151D0551F4C801DF9114
:1010E000CF911F910F91FF90EF90DF90CF900895D7
:1010F000EB01D701ED91FC910190F081E02D699118
:10110000C7010995892B51F30F5F1F4FBE01E3CF34
:10111000EF92FF920F931F93CF93DF938C017B018C
:10112000C0E0D0E0F701EC0FFD1F6491611561F0A4
:10113000D801ED91FC910190F081E02DC801099555
:10114000892B11F02196EECFCE01DF91CF911F9127
:101150000F91FF90EF900895DC01FB0144815581D0
:1011600060817181ED91FC910280F381E02D099401
:101170000C94200CDC01ED91FC910190F081E02DAC
:101180000994DB01ED91FC9111970190F081E02D24
:10119000BC01CD01099466EC74E00C94200C0F9313
:1011A0001F93CF93DF93D82FC92F0E9488088C01FB
:1011B0008D2F9C2F0E94CB08800F911FDF91CF9124
:1011C0001F910F9108950F931F93CF93DF93D82F03
:1011D000C92F0E94AC088C018D2F9C2F0E94CB0838
:1011E000800F911FDF91CF911F910F9108950F9361
:1011F0001F93CF93DF93D82FC92F0E94200C8C010F
:101200008D2F9C2F0E94CB08800F911FDF91CF91D3
:101210001F910F9108950F931F93CF93DF93D82FB2
:10122000C92F0E94BA088C018D2F9C2F0E94CB08D9
:10123000800F911FDF91CF911F910F9108950F9310
:101240001F93CF93DF93D82FC92F0E94C1088C0121
:101250008D2F9C2F0E94CB08800F911FDF91CF9183
:101260001F910F9108952F923F924F925F926F922C
:101270007F928F929F92AF92BF92CF92DF92EF9226
:10128000FF920F931F93CF93DF93CDB7DEB7A19754
:101290000FB6F894DEBF0FBECDBF1C01142F052F73
:1012A000B62EA72E19A2223008F42AE04E0181E2C0
:1012B000880E911CC22ED12CE12CF12C612F702FA5
:1012C0008B2D9A2DA70196010E943B0C412E502E8A
:1012D0006B2C7A2C122F032FB42EA52E6A3034F5E6
:1012E000605DF40162934F014C145D046E047F0451
:1012F00028F7BF01C1010E94200CA1960FB6F894F7
:10130000DEBF0FBECDBFDF91CF911F910F91FF9038
:10131000EF90DF90CF90BF90AF909F908F907F9095
:101320006F905F904F903F902F900895695CD9CF58
:10133000CF92DF92EF92FF920F931F93CF93DF93A1
:10134000EC016A017B01F901EF2B79F4E881F98165
:101350000190F081E02D642FDF91CF911F910F91CB
:10136000FF90EF90DF90CF9009942A303105E9F497
:101370002AE0F7FE1AC06DE20E94BA088C014427E9
:101380005527BA014C195D096E097F092AE0CE0183
:101390000E943309800F911FDF91CF911F910F9110
:1013A000FF90EF90DF90CF900895B701A601CE0196
:1013B000DF91CF911F910F91FF90EF90DF90CF9031
:1013C0000C9433099A01AB01770F660B770B0C94E1
:1013D00098090F931F93CF93DF93D82FC92F0E94A3
:1013E000E2098C018D2F9C2F0E94CB08800F911F4A
:1013F000DF91CF911F910F9108950F931F93CF937A
:10140000DF93D82FC92F0E9498098C018D2F9C2F14
:101410000E94CB08800F911FDF91CF911F910F91F8
:101420000895DC01F901EF2B39F4ED91FC91019065
:10143000F081E02D642F09940C9433099A01462F12
:1014400050E060E070E00C94110A0F931F93CF936B
:10145000DF93D82FC92F0E941E0A8C018D2F9C2F3D
:101460000E94CB08800F911FDF91CF911F910F91A8
:1014700008959A01AB0160E070E00C94110A0F939B
:101480001F93CF93DF93D82FC92F0E94390A8C0165
:101490008D2F9C2F0E94CB08800F911FDF91CF9141
:1014A0001F910F9108950F931F93CF93DF93D82F20
:1014B000C92F0E94110A8C018D2F9C2F0E94CB08EE
:1014C000800F911FDF91CF911F910F9108952F925F
:1014D0003F924F925F926F927F928F929F92AF92C4
:1014E000BF92CF92DF92EF92FF920F931F93CF9311
:1014F000DF93CDB7DEB7A6970FB6F894DEBF0FBE69
:10150000CDBF8DA39EA36A017B01022FA701960187
:10151000C701B6010E949A0E61E875E081112BC0E7
:10152000D701C601BF7789A39AA3ABA3BCA32FEFB2
:101530003FEF4FE75FE7BC01CD010E949A0E81119A
:101540000EC02FEF3FEF4FE75FE769A17AA18BA1B4
:101550009CA10E94D00C65E875E0181664F02FEF8E
:101560003FEF4FE75FE4C701B6010E94280E18164F
:10157000F4F469E875E08DA19EA1A6960FB6F894E3
:10158000DEBF0FBECDBFDF91CF911F910F91FF90B6
:10159000EF90DF90CF90BF90AF909F908F907F9013
:1015A0006F905F904F903F902F900C94200C2FEFF6
:1015B0003FEF4FE75FECC701B6010E94D00C87FDFB
:1015C000D8CF20E030E0A901C701B6010E94D00CBD
:1015D000212C312C87FF0AC06DE28DA19EA10E94B3
:1015E000BA081C01F7FAF094F7F8F09410E060E004
:1015F00070E080E09FE3011362C0A70196016D8354
:101600007E838F8398876D817E818F8198850E94EC
:10161000640CF62EC72ED82E192F862E972EA82EA4
:10162000B92EC501B4010E94470D4B015C012AE0AF
:10163000AB01BC018DA19EA10E943309280E391E69
:10164000011519F1B401C5010E94760D69877A87E9
:101650008B879C8729853A854B855C85FD86CE8660
:10166000DF86188B6D857E858F8598890E94630C37
:10167000162FD72EC82EB92E6EE28DA19EA10E94E4
:10168000BA08280E391E01112AC0C101A6960FB64C
:10169000F894DEBF0FBECDBFDF91CF911F910F91A8
:1016A000FF90EF90DF90CF90BF90AF909F908F9082
:1016B0007F906F905F904F903F902F90089520E023
:1016C00030E040E251E469837A838B839C836981B3
:1016D0007A818B819C810E94D50C1F5F8CCF20E08A
:1016E00030E040E251E4198BDA8ACB8ABC8A6989FE
:1016F0007A898B899C890E942D0EB62EC72ED82EF2
:10170000192F6D8B7E8B8F8B988F6D897E898F893A
:10171000988D0E94470D2B014AE050E08DA19EA1BB
:101720000E94390A280E391EB20180E090E00E9422
:10173000760D698F7A8F8B8F9C8F298D3A8D4B8D8B
:101740005C8DBD8ECE8EDF8E18A36D8D7E8D8F8DC0
:1017500098A10E94630C162FD72EC82EB92E0150C7
:1017600092CFCF92DF92EF92FF926A017B01B70195
:10177000A601FF90EF90DF90CF900C94670ACF9274
:10178000DF92EF92FF920F931F93CF93DF93D82FA7
:10179000C92F6A017B01B701A6010E94670A8C016B
:1017A0008D2F9C2F0E94CB08800F911FDF91CF912E
:1017B0001F910F91FF90EF90DF90CF9008950895C3
:1017C000EDE6F6E01382128288EE93E0A0E0B0E04E
:1017D00084839583A683B78381E995E09183808391
:1017E00085EC90E09587848784EC90E097878687E6
:1017F00080EC90E0918B808B81EC90E0938B828BDE
:1018000082EC90E0958B848B86EC90E0978B868BB6
:10181000118E128E138E148E08950E9465060E94FA
:101820005D080E945004C9E3D7E00E945705209745
:10183000E1F30E943907F9CF80E090E00895089520
:10184000CF93DF93EC01DB01AB2B81F0FB01019027
:101850000020E9F73197AF01461B570BE881F9816A
:101860000280F381E02DDF91CF91099480E090E038
:10187000DF91CF910895A1E21A2EAA1BBB1BFD0197
:101880000DC0AA1FBB1FEE1FFF1FA217B307E4075F
:10189000F50720F0A21BB30BE40BF50B661F771FB7
:1018A000881F991F1A9469F7609570958095909597
:1018B0009B01AC01BD01CF010895EE0FFF1F059004
:1018C000F491E02D09945058BB27AA270E947B0C65
:1018D0000C94EE0D0E94E00D38F00E94E70D20F010
:1018E00039F49F3F19F426F40C94DD0D0EF4E095C5
:1018F000E7FB0C94D70DE92F0E94FF0D58F3BA17A0
:10190000620773078407950720F079F4A6F50C9415
:10191000210E0EF4E0950B2EBA2FA02D0B01B9016C
:1019200090010C01CA01A0011124FF27591B99F055
:10193000593F50F4503E68F11A16F040A22F232F61
:10194000342F4427585FF3CF469537952795A795B1
:10195000F0405395C9F77EF41F16BA0B620B730B58
:10196000840BBAF09150A1F0FF0FBB1F661F771FC9
:10197000881FC2F70EC0BA0F621F731F841F48F47E
:10198000879577956795B795F7959E3F08F0B0CF07
:101990009395880F08F09927EE0F979587950895EE
:1019A0000E94B30D08F481E008950E94E90C0C94A4
:1019B000EE0D0E94E70D58F00E94E00D40F029F472
:1019C0005F3F29F00C94D70D51110C94220E0C940A
:1019D000DD0D0E94FF0D68F39923B1F3552391F3B8
:1019E000951B550BBB27AA2762177307840738F08E
:1019F0009F5F5F4F220F331F441FAA1FA9F335D0EB
:101A00000E2E3AF0E0E832D091505040E695001C9E
:101A1000CAF72BD0FE2F29D0660F771F881FBB1F58
:101A2000261737074807AB07B0E809F0BB0B802D36
:101A3000BF01FF2793585F4F3AF09E3F510578F062
:101A40000C94D70D0C94220E5F3FE4F3983ED4F330
:101A5000869577956795B795F7959F5FC9F7880F36
:101A6000911D9695879597F90895E1E0660F771F88
:101A7000881FBB1F621773078407BA0720F0621B19
:101A8000730B840BBA0BEE1F88F7E09508950E9444
:101A9000070E88F09F5798F0B92F9927B751B0F0EB
:101AA000E1F0660F771F881F991F1AF0BA95C9F7E2
:101AB00014C0B13091F00E94210EB1E008950C9451
:101AC000210E672F782F8827B85F39F0B93FCCF304
:101AD000869577956795B395D9F73EF4909580955F
:101AE000709561957F4F8F4F9F4F0895E89409C07F
:101AF00097FB3EF490958095709561957F4F8F4F41
:101B00009F4F9923A9F0F92F96E9BB279395F69556
:101B1000879577956795B795F111F8CFFAF4BB0FD4
:101B200011F460FF1BC06F5F7F4F8F4F9F4F16C038
:101B3000882311F096E911C0772321F09EE8872FC2
:101B4000762F05C0662371F096E8862F70E060E07E
:101B50002AF09A95660F771F881FDAF7880F9695F7
:101B6000879597F90895990F0008550FAA0BE0E89B
:101B7000FEEF16161706E807F907C0F0121613064F
:101B8000E407F50798F0621B730B840B950B39F48F
:101B90000A2661F0232B242B252B21F408950A26F5
:101BA00009F4A140A6958FEF811D811D089597F935
:101BB0009F6780E870E060E008959FEF80EC0895F3
:101BC00000240A941616170618060906089500241C
:101BD0000A9412161306140605060895092E039496
:101BE000000C11F4882352F0BB0F40F4BF2B11F40A
:101BF00060FF04C06F5F7F4F8F4F9F4F089557FD69
:101C00009058440F551F59F05F3F71F04795880F6A
:101C100097FB991F61F09F3F79F087950895121601
:101C200013061406551FF2CF4695F1DF08C01616AD
:101C300017061806991FF1CF86957105610508945E
:101C40000895E894BB2766277727CB0197F9089575
:101C50000E94B30D08F48FEF08950E94400E0C947B
:101C6000EE0D0E94E00D38F00E94E70D20F0952364
:101C700011F00C94D70D0C94DD0D11240C94220E50
:101C80000E94FF0D70F3959FC1F3950F50E0551F13
:101C9000629FF001729FBB27F00DB11D639FAA27C1
:101CA000F00DB11DAA1F649F6627B00DA11D661F10
:101CB000829F2227B00DA11D621F739FB00DA11D31
:101CC000621F839FA00D611D221F749F3327A00DEB
:101CD000611D231F849F600D211D822F762F6A2F87
:101CE00011249F5750409AF0F1F088234AF0EE0FEC
:101CF000FF1FBB1F661F771F881F91505040A9F719
:101D00009E3F510580F00C94D70D0C94220E5F3F3E
:101D1000E4F3983ED4F3869577956795B795F79554
:101D2000E7959F5FC1F7FE2B880F911D96958795CC
:101D300097F908950E94B30D880B990B0895DC0163
:101D400001C06D9341505040E0F708950F931F93E9
:101D5000CF93DF93E0910C07F0910D07238100E012
:101D600010E021FD0EC00FEF1FEFC801DF91CF91F2
:101D70001F910F9108950995892B11F00FEF1FEF17
:101D8000CE01EC01899160910C0770910D07DB0188
:101D90001896ED91FC918111EECF8AE00995892B7F
:101DA00021F3E1CFF894FFCFFD04D704D704D70483
:101DB000D704D704F604D704D70405053805ED0485
:041DC0003A053405A7
:101DC4008D01020408102040801B366CD8AB4D9A5C
:101DD4002F5EBC63C697356AD4B37DFAEFC59139DB
:101DE40072E4D3BD61C29F254A943366CC831D3A05
:101DF40074E8CB8D01020408102040801B366CD897
:101E0400AB4D9A2F5EBC63C697356AD4B37DFAEFA7
:101E1400C5913972E4D3BD61C29F254A943366CC1F
:101E2400831D3A74E8CB8D01020408102040801B06
:101E3400366CD8AB4D9A2F5EBC63C697356AD4B363
:101E44007DFAEFC5913972E4D3BD61C29F254A94EE
:101E54003366CC831D3A74E8CB8D0102040810204C
:101E640040801B366CD8AB4D9A2F5EBC63C6973549
:101E74006AD4B37DFAEFC5913972E4D3BD61C29FD0
:101E8400254A943366CC831D3A74E8CB8D01020451
:101E940008102040801B366CD8AB4D9A2F5EBC6373
:101EA400C697356AD4B37DFAEFC5913972E4D3BDD0
:101EB40061C29F254A943366CC831D3A74E8CB52A1
:101EC400096AD53036A538BF40A39E81F3D7FB7C81
:101ED400E339829B2FFF87348E4344C4DEE9CB541D
:101EE4007B9432A6C2233DEE4C950B42FAC34E08B6
:101EF4002EA16628D924B2765BA2496D8BD12572B6
:101F0400F8F66486689816D4A45CCC5D65B6926CC9
:101F1400704850FDEDB9DA5E154657A78D9D849043
:101F2400D8AB008CBCD30AF7E45805B8B34506D047
:101F34002C1E8FCA3F0F02C1AFBD0301138A6B3A37
:101F44009111414F67DCEA97F2CFCEF0B4E6739675
:101F5400AC7422E7AD3585E2F937E81C75DF6E47CE
:101F6400F11A711D29C5896FB7620EAA18BE1BFC30
:101F7400563E4BC6D279209ADBC0FE78CD5AF41F68
:101F8400DDA8338807C731B11210592780EC5F6090
:101F9400517FA919B54A0D2DE57A9F93C99CEFA0ED
:101FA400E03B4DAE2AF5B0C8EBBB3C8353996117B7
:101FB4002B047EBA77D626E169146355210C7D6320
:101FC4007C777BF26B6FC53001672BFED7AB76CA8B
:101FD40082C97DFA5947F0ADD4A2AF9CA472C0B7B0
:101FE400FD9326363FF7CC34A5E5F171D8311504BD
:101FF400C723C31896059A071280E2EB27B2750926
:10200400832C1A1B6E5AA0523BD6B329E32F845358
:10201400D100ED20FCB15B6ACBBE394A4C58CFD01D
:10202400EFAAFB434D338545F9027F503C9FA851ED
:10203400A3408F929D38F5BCB6DA2110FFF3D2CDC0
:102044000C13EC5F974417C4A77E3D645D1973605D
:10205400814FDC222A908846EEB814DE5E0BDBE06A
:10206400323A0A4906245CC2D3AC629195E479E71A
:10207400C8376D8DD54EA96C56F4EA657AAE08BAA8
:1020840078252E1CA6B4C6E8DD741F4BBD8B8A7060
:102094003EB5664803F60E613557B986C11D9EE10B
:1020A400F8981169D98E949B1E87E9CE5528DF8C48
:1020B400A1890DBFE6426841992D0FB054BB16416A
:1020C40075746F6D61746963206D6F6465200D00B4
:1020D40053746172742077616974696E672E2E2E51
:1020E4000D0A00537461727420656E6372797074A2
:1020F400696E672E2E2E0D0A00456E746572696E28
:10210400672074696E795F6165735F313238206D61
:102114006F64650D0A0053657474696E67206E758B
:102124006D626572206F662072657065746974698A
:102134006F6E7320746F2000446F6E650D0A004546
:10214400786974696E672074696E795F6165735F1D
:10215400313238206D6F64650D0A0055736167650F
:102164003A0D0A00613A20537461727420617574E7
:102174006F6D61746963206D6F64652028576169B0
:10218400742F414553290D0A006E3A20456E74653B
:10219400722074696E795F6165735F313238206DC6
:1021A4006F64650D0A00202020703A20456E746526
:1021B4007220706C61696E746578740D0A00202059
:1021C400206B3A20456E746572206B65790D0A00A8
:1021D400202020653A20456E63727970740D0A00E0
:1021E4002020206E3A20536574206E756D626572EE
:1021F400206F662072657065746974696F6E730D03
:102204000A00202020723A2052756E207265706593
:102214006174656420656E6372797074696F6E0DA4
:102224000A00202020713A20517569742074696E67
:10223400795F6165735F313238206D6F64650D0AB3
:10224400006E616E00696E66006F766600000000C5
:102254000089075F082A076907FD061607080700B3
:0C22640000000000005F081C0C1F0C00B4
:00000001FF
