:1000000000800020712D0000B12D0000B32D0000F4
:1000100000000000000000000000000000000000E0
:10002000000000000000000000000000B52D0000EE
:100030000000000000000000B72D0000B92D0000F6
:10004000BB2D0000BB2D0000612D0000BB2D00006A
:10005000BB2D000000000000BB2D0000BB2D0000E8
:10006000991A0000BB2D0000BB2D0000BB2D000025
:10007000BB2D0000BB2D0000BB2D0000BB2D0000E0
:10008000BB2D0000BB2D0000BB2D0000BB2D0000D0
:10009000BB2D0000BB2D0000BB2D0000BB2D0000C0
:1000A000BB2D0000BB2D0000000000000000000080
:1000B0000000000000000000000000000000000040
:1000C00010B5064C2378002B07D1054B002B02D02E
:1000D000044800E000BF0123237010BDE8010020A8
:1000E0000000000090570000084B10B5002B03D013
:1000F0000749084800E000BF07480368002B00D10B
:1001000010BD064B002BFBD09847F9E7000000001C
:10011000EC01002090570000E401002000000000E6
:10012000164B002B00D1144B9D46402292029A1A86
:10013000924600218B460F461348144A121A00F0CB
:1001400065F80F4B002B00D098470E4B002B00D0CA
:1001500098470020002104000D000D48002802D01F
:100160000C4800E000BF00F02DF82000290000F04E
:100170003BFD00F011F8C0460000080000800020A0
:100180000000000000000000E80100202806002018
:100190000000000000000000084B10B50400002B18
:1001A00002D0002100E000BF054B1868836A002BD5
:1001B00000D09847200000F031F8C0460000000051
:1001C0007C4A000070B500260C4D0D4C641BA41039
:1001D000A64209D1002604F045FC0A4D0A4C641BD6
:1001E000A410A64205D170BDB300EB589847013664
:1001F000EEE7B300EB5898470136F2E7DC01002048
:10020000DC010020DC010020E00100200300821856
:10021000934200D1704719700133F9E7FEE7C046F9
:1002200080B500AF00F036F8031E06D0134B144A19
:100230001A60144B802212021A6000F06BF8031E41
:1002400005D08023DA05C123DB000121D15000F065
:1002500087F8031E0ED00C4B1B68012B07D00A4BEE
:100260000A4A1A60C046084B1B68012BFBD1084B99
:10027000C0221A60C046BD4680BDC046040500408D
:10028000DFFF07C0186C004000EC064075930000CB
:1002900014EC064080B500AF1A4B1B68FF221340D8
:1002A000012B2AD1184B1B680F22134025D1174B65
:1002B0001B68F022134006D1154B1B68F022134037
:1002C00001D101231AE0114B1B68F0221340102BBF
:1002D00006D10F4B1B68F022134001D101230DE022
:1002E0000A4B1B68F0221340302B06D1084B1B68C9
:1002F000F022134001D1012300E000231800BD4685
:1003000080BDC046E00F00F0E40F00F0E80F00F001
:10031000EC0F00F080B500AF0D4B1B68FF221340BF
:10032000012B11D10B4B1B680F2213400CD10A4B30
:100330001B68F0221340402B06D1084B1B68F022AB
:10034000134001D1012300E000231800BD4680BD09
:10035000E00F00F0E40F00F0E80F00F0EC0F00F009
:1003600080B500AF144B1B68FF221340012B1ED138
:10037000124B1B680F22134019D1114B1B68F0223E
:100380001340A02B06D10F4B1B68F022134001D164
:1003900001230DE00A4B1B68F0221340D02B06D13D
:1003A000084B1B68F022134001D1012300E0002319
:1003B0001800BD4680BDC046E00F00F0E40F00F01D
:1003C000E80F00F0EC0F00F080B582B000AF020043
:1003D000FB1D1A70064BFA1D127811001F220A40ED
:1003E000012191400A001A60C046BD4602B080BD9E
:1003F00000E100E080B582B000AF78607B681B78D8
:10040000022B05D17B685B68180001F083FB08E0D4
:100410007B681B78012B04D17B685B68180001F0B6
:1004200079FBC046BD4602B080BD000080B500AF7C
:100430000B4B01221A608023DA0580235B00002128
:10044000D1508023DB0501221A60C0468023DA05E3
:1004500080235B00D358002BF8D0C046BD4680BD3A
:1004600000D0004080B500AF2E4B180002F0A6FC73
:100470002D4B180002F0A2FC2C4B180002F09EFC41
:100480002B4B180002F09AFC2A4B180002F096FC45
:10049000294B180002F092FC284B180002F08EFC49
:1004A0000A2001F0EDFD264B180002F087FC254BD9
:1004B000180002F083FC244B180002F07FFC234B51
:1004C000180002F07BFC224B180002F077FC214B55
:1004D000180002F073FC204B180002F06FFC0A2099
:1004E00001F0CEFD1D4B180002F068FC1C4B1800FB
:1004F00002F064FC1B4B180002F060FC1A4B180061
:1005000002F05CFC194B180002F058FC184B180064
:1005100002F054FC174B180002F050FCC046BD46D8
:1005200080BDC046804A00008C4A0000B44A0000EA
:10053000F44A0000184B0000304B00005C4B0000F8
:10054000784B0000904B0000B04B0000C84B0000FF
:10055000F84B00000C4C0000204C0000384C000010
:10056000584C0000704C0000844C0000944C00007B
:10057000B84C0000D84C000080B582B000AF244BCE
:10058000180002F01BFCFA1D224B1100180002F0AB
:100590002FFCFB1D1B782F2B11D9FB1D1B78322B39
:1005A0000DD8FB1D1B781A001B4B1100180002F020
:1005B00005FCC046FB1D1B78312B0AD105E0164B0C
:1005C0000721180002F0FAFBDDE7144B00221A7035
:1005D00016E0FB1D1B78302B03D1104B02221A7042
:1005E0000EE0FB1D1B78322B03D10C4B01221A703D
:1005F00006E0FB1D1B78332B02D1084B03221A7037
:10060000074B180002F0DAFBC046BD4602B080BDC1
:10061000F84C0000504D0000544D000064000020D4
:100620005C4D000080B582B000AF274B180002F08F
:10063000C5FBFA1D254B1100180002F0D9FBFB1D6C
:100640001B782F2B0FD9FB1D1B78372B0BD8FB1DCD
:100650001B78180001F0E0FCC046FB1D1B78303B06
:10066000062B25D803E0072001F0D6FCE1E79A002D
:10067000174BD3181B689F46164B04221A701BE0B9
:10068000144B00221A7017E0124BFC221A7013E070
:10069000104BF8221A700FE00E4BF4221A700BE088
:1006A0000C4BF0221A7007E00A4BEC221A7003E0A0
:1006B000084BD8221A70C046074B180002F07EFB88
:1006C000C046BD4602B080BD604D0000504D0000E8
:1006D000F8510000040200205C4D000080B500AF1E
:1006E000464B180002F06AFB454B1B78012B12D0D9
:1006F00002DC002B0AD018E0022B02D0032B0FD013
:1007000013E0404B180002F059FB0EE03E4B18007E
:1007100002F054FB09E03D4B180002F04FFB04E0EF
:100720003B4B180002F04AFBC0463A4B1B78EC2BBF
:1007300030D006DC042B0FD0D82B30D0002B10D0BB
:1007400032E0F42B1CD002DCF02B1ED02CE0F82B76
:1007500011D0FC2B0AD027E02F4B180002F02EFB03
:1007600022E02E4B180002F029FB1DE02C4B180054
:1007700002F024FB18E02B4B180002F01FFB13E0E3
:10078000294B180002F01AFB0EE0284B180002F06B
:1007900015FB09E0264B180002F010FB04E0254B86
:1007A000180002F00BFBC046234B1A68234B1100C4
:1007B000180002F003FB224B1A68224B11001800AC
:1007C00002F0FCFA204B1A68204B1100180002F0CE
:1007D000F5FA8023DA058323DB00D25880235B02FD
:1007E000134001D01A4B00E01A4B1B4A19001000AD
:1007F00002F0E4FAC046BD4680BDC046A04D0000F0
:1008000064000020B04D0000D44D0000F84D000001
:100810001C4E000004020020444E0000644E000004
:10082000844E0000A44E0000C44E0000E44E0000C0
:10083000044F0000244F000008020020444F000035
:1008400068000020604F00006C0000207C4F00001A
:100850009C4F0000A04F0000A44F000080B584B062
:1008600000AF78600023FB600FE00823FA180A4B02
:100870001100180002F0BCFAFB687A68D318BA6855
:10088000D2B21A70FB680133FB60FB680F2BECDD02
:10089000C046BD4604B080BDC04F0000F0B5DE4686
:1008A00057464E464546E0B595B00EAF78617B6938
:1008B0001B783B617B6901331B78FB607B690233EA
:1008C0001B78BB607B6903331B781D007B69043395
:1008D0001B781E007B6905331B789C467B690633B9
:1008E0001B7898467B6907331B7899467B690833E8
:1008F0001B789A467B6909331B789B467B690A33D0
:100900001B787B607B690B331B783B607B690C3306
:100910001B781C007B690D331B7819007B690E3333
:100920001B781A007B690F331B7811480C930B92CC
:100930000A9109943C6808947C6807945C46069484
:10094000544605944C4604944446039464460294E9
:1009500001960095BB68FA68396902F02FFAC04623
:10096000BD4607B03CBC90469946A246AB46F0BD9A
:10097000C44F000080B58EB000AF204B180002F0CD
:100980001DFA2023FB18180010231A000021FFF77E
:100990003DFC1023FB18180010231A000021FFF75C
:1009A00035FC3B00180010231A000021FFF72EFC35
:1009B000134B180002F002FA00237B6302E07B6B0A
:1009C00001337B637B6B0F4A9342F8D90E4B1800BF
:1009D00002F0F4F900233B630AE03A002023F918FF
:1009E0001023FB18180000F045FE3B6B01333B63FE
:1009F0003A6BF423FF339A42EFD9D9E7F84F00005E
:100A00000C500000FEFF0F002050000080B592B097
:100A100000AF654B180002F0D1F94723FB18002204
:100A20001A702823FB18180010231A000021FFF762
:100A3000EDFB1823FB18180010231A000021FFF704
:100A4000E5FB0823FB18180010231A000021FFF70C
:100A5000DDFB01237B6096E03B23FA18534B11002A
:100A6000180002F0C5F93B23FB181B78653B0D2BE2
:100A700000D981E09A004E4BD3181B689F4618237B
:100A8000FB181800FFF7EAFE1823FB181800FFF701
:100A900005FF4723FB184722BA1812781A7072E034
:100AA0002823FB181800FFF7D9FE2823FB1818008D
:100AB000FFF7F4FE4723FB184722BA1812781A7082
:100AC00061E00823FA182823F9181823FB181800E6
:100AD00000F0D0FD4723FB184722BA1812781A708D
:100AE00051E03A1D334B1100180002F081F97A6889
:100AF000314B1100180002F061F94723FB1847221F
:100B0000BA1812781A703EE000233B6414E0002308
:100B1000FB6302E0FB6B0133FB63FB6BFE2BF9D93C
:100B20000823FA182823F9181823FB18180000F0D6
:100B3000A1FD3B6C01333B647B683A6C9A42E6D37F
:100B40001E4B180002F03AF94723FB184722BA1847
:100B500012781A7017E00823FB181800FFF79EFEA2
:100B60004723FB184722BA1812781A700BE0472364
:100B7000FB1801221A7006E04723FB184722BA1817
:100B800012781A70C0464723FB181B780122534085
:100B9000DBB2002B00D05FE7094B180002F00EF922
:100BA000C046BD4612B080BD38500000504D000018
:100BB00014520000585000005C50000084500000A7
:100BC0008C50000080B582B000AF78607B681B78E5
:100BD000002B04D000F04EFE7B6800221A70C04645
:100BE000BD4602B080BD000090B58FB002AF2F238C
:100BF000FB1800221A702E23FB1800221A702023E3
:100C0000FB1800221A70FFF711FC1423FB18CB4AC3
:100C100013CA13C33B1DCA4A1A603B1D01225A6006
:100C20003B1DC84A9A603B1D80229200DA60C64A8A
:100C3000391D1423F818032301F030F90300BB62B7
:100C4000BB6A7B627B6A002B03D07B6A180000F0D2
:100C500061FFBE4B180002F0B1F80820FFF7B4FBAB
:100C600062B6FA1CBA4B1100180002F0C1F8FB1C66
:100C70001B78303B482B00D9C4E09A00B54BD31801
:100C80001B689F46FFF776FEBDE0B34B180002F0ED
:100C900095F8B24AB24B1100180002F0A9F8AF4B18
:100CA0001B68502B12DCAD4B1B68002B0EDBAB4BD3
:100CB0001A68AC4B1100180002F080F8C0462F23D0
:100CC000FB182E22BA1812781A709CE0A64B180056
:100CD00002F074F8D9E7A54B180002F06FF8A44AA7
:100CE0009F4B1100180002F083F8A14B1B68502B9A
:100CF00012DC9A4B1B68002B0EDB9D4B1A68994B3C
:100D00001100180002F05AF8C0462F23FB182E22BB
:100D1000BA1812781A7076E0934B180002F04EF869
:100D2000D9E72F23FB1801221A706CE0914B1800B1
:100D300002F044F8904A8A4B1100180002F058F86B
:100D40008D4B1B68002B12DD8B4B1B68632B0EDC5D
:100D5000894B1A68834B1100180002F02FF8C04627
:100D60002F23FB182E22BA1812781A704BE0834BEF
:100D7000180002F023F8D9E700F07CFD2E23FB18C1
:100D800000221A703FE0FFF7F7FB2F23FB182E22FB
:100D9000BA1812781A7036E0FFF738FE33E02F23C6
:100DA000FB1802221A70764B180002F007F82AE0AE
:100DB000FFF738FC2F23FB182E22BA1812781A706E
:100DC00021E02F23FB1805221A706E4B180001F04A
:100DD000F5FF18E0FFF782FC15E02F23FB18032234
:100DE0001A70694B180001F0E9FF0CE02F23FB1883
:100DF00004221A70654B180001F0E0FF03E0FFF7D2
:100E000031FB00E0C0462F23FB181B78052B00D9CF
:100E100092E09A005E4BD3181B689F462023FB1874
:100E20001800FFF7CFFE5B4B18785B4B19784B4BE4
:100E30001B68DBB21A0000F029FD2E23FB182F22BD
:100E4000BA1812781A702F23FB1800221A7074E057
:100E50002023FB181800FFF7B5FE4E4B18784E4BB9
:100E600019783E4B1B68DBB21A0000F047FD2E23B9
:100E7000FB182F22BA1812781A702F23FB180022A1
:100E80001A705AE02023FB181800FFF79BFE414B15
:100E90001878414B1978314B1B68DAB2344B1B6818
:100EA000DCB2354B1B68DBB20093230000F07AFD07
:100EB0002023FB1801221A702E23FB182F22BA18A8
:100EC00012781A702F23FB1800221A7035E02023A5
:100ED000FB181800FFF776FE2F4B1A781F4B1B6884
:100EE000DBB21900100000F03DFD2E23FB182F226D
:100EF000BA1812781A702F23FB1800221A701CE0FF
:100F0000254B1878154B1B68D9B2194B1B68DAB200
:100F1000194B1B68DBB200F085FD2023FB18012272
:100F20001A702E23FB182F22BA1812781A702F234A
:100F3000FB1800221A7000E0C04692E6EC51000057
:100F40000C02002010020020F5030000A850000051
:100F5000504D00004C520000B45000000802002028
:100F6000C04F0000EC500000F45000001851000089
:100F7000680000204C5100006C00002080510000EF
:100F8000A4510000BC510000C8510000D451000021
:100F900070530000040200206400002080B582B07D
:100FA00000AF0200FB1D1A70FB1D1B78024AD35CC8
:100FB0001800BD4602B080BD8853000080B584B0E3
:100FC00000AF0023FB6030E0FB689A006D4B1968AE
:100FD000FB689B00CB1819786B4B9954FB689B00FE
:100FE0005A1C684B1968FB689B000133CB181978B1
:100FF000654B9954FB689B009A1C624B1968FB680F
:101000009B000233CB1819785F4B9954FB689B0007
:10101000DA1C5C4B1968FB689B000333CB1819780A
:10102000594B9954FB680133FB60FB68032BCBD908
:10103000A0E00023BB6010E0FB68544A9446634480
:101040009A00BB68D318504AD15C3A00BB68D318E9
:101050000A1C1A70BB680133BB60BB68032BEBD959
:10106000FB680322134040D13B001B787B603B00B0
:101070005A783B001A703B009A783B005A703B004C
:10108000DA783B009A707B68DAB23B00DA703B009A
:101090001B781800FFF782FF03001A003B001A704C
:1010A0003B005B781800FFF779FF03001A003B0054
:1010B0005A703B009B781800FFF770FF03001A007E
:1010C0003B009A703B00DB781800FFF767FF0300D6
:1010D0001A003B00DA703B001A78FB689B082C4929
:1010E000CB5C5340DAB23B001A70FB689B00FA6895
:1010F00028498C46624492002349895C3A00127860
:101100004A40D1B2204AD154FB689B000133FA68AF
:1011100020498C466244920001321B49895C3A00A6
:1011200052784A40D1B2184AD154FB689B0002332E
:10113000FA6818498C466244920002321249895C6E
:101140003A0092784A40D1B20F4AD154FB689B00D2
:101150000333FA680F498C466244920003320A490D
:10116000895C3A00D2784A40D1B2074AD154FB6830
:101170000133FB60FB682B2B00D85AE7C046BD4605
:1011800004B080BDC404002014040020FFFFFF3F12
:1011900088540000FCFFFF3FB0B584B000AF0200F0
:1011A000FB1D1A700F23FB1800221A703EE00E235D
:1011B000FB1800221A702DE0214B19680F23FB1831
:1011C00018780E23FB181A781D4B1D680F23FB1887
:1011D0001C780E23FB181B78A4002C19E45CFB1D63
:1011E0001B789D000F23FB181B78EB189D000E2326
:1011F000FB181B78EB18134DEB5C6340DCB28300EB
:10120000CB18211C99540E23FB180E22BA18127801
:1012100001321A700E23FB181B78032BCCD90F2335
:10122000FB180F22BA18127801321A700F23FB181C
:101230001B78032BBBD9C046BD4604B0B0BDC04629
:101240001004002014040020F0B583B000AFFB1D93
:1012500000221A7028E0BB1D00221A701BE0164BFA
:101260001D68BB1D1E78FB1D1C78134B1968BB1D28
:101270001A78FB1D1B7892008A18D35C1800FFF7C0
:101280008DFE03001A00B300EB181A55BB1DBA1DE2
:10129000127801321A70BB1D1B78032BDFD9FB1D9E
:1012A000FA1D127801321A70FB1D1B78032BD2D95C
:1012B000C046BD4603B0F0BD1004002080B582B02A
:1012C00000AF2E4B1A68FB1D52781A702B4B1A6810
:1012D0002A4B1B685B795370284B1A68274B1B6895
:1012E0005B7A5371254B1A68244B1B685B7B5372E6
:1012F000224B1B68FA1D12785A73204B1A68FB1D8B
:1013000092781A701D4B1A681C4B1B689B7A93705D
:101310001A4B1B68FA1D12789A72184B1A68FB1D3B
:1013200092791A70154B1A68144B1B689B7B93714A
:10133000124B1B68FA1D12789A73104B1A68FB1D2A
:10134000D2781A700D4B1A680C4B1B68DB7BD3707C
:101350000A4B1A68094B1B68DB7AD373074B1A6870
:10136000064B1B68DB79D372044B1B68FA1D12789D
:10137000DA71C046BD4602B080BDC04610040020F0
:1013800080B582B000AF0200FB1D1A70FB1D1B78F8
:101390005B005AB2FB1D1B78DB09DBB2191C0B1C6E
:1013A000DB185B18191CC800191C031CCB18DBB216
:1013B0005BB253405BB2DBB21800BD4602B080BDE9
:1013C00090B583B000AFFB1D00221A70F5E07F4B93
:1013D0001A68FB1D1978BB1D89008A5C1A707B4B4B
:1013E0001B68FA1D12789200D25C784B1968FB1DBD
:1013F0001B789B00CB1801331B785340DAB2734B38
:101400001968FB1D1B789B00CB1802331B785340D7
:10141000D9B26E4B1A68FB1D1B789B00D31803339F
:101420001A787B1D4A401A70684B1B68FA1D1278A7
:101430009200D15C654B1A68FB1D1B789B00D3188A
:1014400001331A783B1D4A401A703C1D3B1D1B7826
:101450001800FFF795FF030023705C4B1A68FB1D13
:1014600019785A4B1B68F81D00788000C05C3C1D41
:101470007B1D24781B786340DBB24340D8B28B00DD
:10148000011C9954514B1A68FB1D1B789B00D31803
:10149000013319784D4B1A68FB1D1B789B00D3183C
:1014A00002331A783B1D4A401A703C1D3B1D1B78C5
:1014B0001800FFF765FF03002370444B1A68FB1DFB
:1014C0001978424B1868FB1D1B789B00C318013329
:1014D00018783C1D7B1D24781B786340DBB24340A9
:1014E000D8B28B00D3180133021C1A70374B1A681C
:1014F000FB1D1B789B00D31802331978334B1A68F5
:10150000FB1D1B789B00D31803331A783B1D4A4000
:101510001A703C1D3B1D1B781800FFF731FF0300BC
:1015200023702A4B1A68FB1D1978284B1868FB1D7D
:101530001B789B00C318023318783C1D7B1D247850
:101540001B786340DBB24340D8B28B00D318023320
:10155000021C1A701D4B1A68FB1D1B789B00D318C8
:10156000033319783B1DBA1D12784A401A703C1D8E
:101570003B1D1B781800FFF703FF03002370134B7C
:101580001A68FB1D1978114B1868FB1D1B789B000E
:10159000C318033318783C1D7B1D24781B786340E7
:1015A000DBB24340D8B28B00D3180333021C1A704D
:1015B000FB1DFA1D127801321A70FB1D1B78032BDC
:1015C00000D804E7C046BD4603B090BD100400201B
:1015D00080B582B000AFFB1D00221A700020FFF71B
:1015E000DBFDFB1D01221A700FE0FFF72DFEFFF758
:1015F00065FEFFF7E5FEFB1D1B781800FFF7CCFD2D
:10160000FB1DFA1D127801321A70FB1D1B78092B85
:10161000EBD9FFF719FEFFF751FE0A20FFF7BCFDDB
:10162000C046BD4602B080BD80B584B000AF7860D2
:1016300039600F23FB1800221A7012E00F23FB18E9
:101640001B787A68D3180F22BA18127839688A186A
:1016500012781A700F23FB180F22BA181278013271
:101660001A700F23FB181B780F2BE7D9C046BD4615
:1016700004B080BD80B584B000AFF860B9607A6016
:10168000FA687B6811001800FFF7CEFF064B7A68F6
:101690001A60064BBA681A60FFF790FCFFF798FFD4
:1016A000C046BD4604B080BD10040020C404002024
:1016B00080B582B000AF0200FB1D1A70154B0122ED
:1016C0005A60144A80239B000121D150114A124BC9
:1016D0000021D1500F4AA123DB000221D1500D4A35
:1016E000A223DB000421D1500A49C1239B008022A0
:1016F0005202CA500749FB1D1B78FA2292005A4336
:10170000A823DB00CA50034B01221A60C046BD4625
:1017100002B080BD008000400405000080B500AF2D
:10172000094A80235B000021D150C046064A80232D
:101730005B00D358002BF9D0034AA123DB00D35818
:101740001800BD4680BDC04600D0004080B582B0C4
:1017500000AF00233B60FB1D00221A700DE03B68C8
:101760001B023B60FFF7DAFF02003B6813433B605C
:10177000FB1D1A78FB1D01321A70FB1D1B78032B11
:10178000EDD93B681800BD4602B080BD90B583B06E
:1017900000AF1D4CFFF7C2FF02001C4BE2501A4C79
:1017A000FFF7D4FF02001A4BE250174A194B0821E9
:1017B000D150154AA323DB001749D150124A174BC9
:1017C0000021D150164BFE221A70FB1D00221A7008
:1017D0000DE0FB1D1B785C1CFFF7A0FF0300DAB2D5
:1017E0000F4B1A55FB1D1A78FB1D01321A70FB1D99
:1017F0001B78FD2BEDD90449094B0A4A8B50C04692
:10180000BD4603B090BDC046001000402405000056
:101810001C05000014050000FF000403340500004F
:10182000C80400200405000080B500AF104A8023E2
:101830009B000021D1500E4A88235B000021D1502B
:101840000B4AA823DB000021D150094B01221A6169
:10185000C046074A88235B00D358002BF9D0044ABE
:1018600088235B000021D150C046BD4680BDC046E4
:101870000010004080B500AF034B01225A60FFF713
:10188000D3FFC046BD4680BD0080004090B583B008
:1018900000AF040008001100FB1D221C1A70BB1DC4
:1018A000021C1A707B1D0A1C1A70FFF7BDFF114A3B
:1018B00080239B000121D1500E49FB1D1B780E4A4D
:1018C0008B500C49BB1D1A78A223DB00CA50094972
:1018D0007B1D1A78A123DB00CA50064AA823DB002F
:1018E0000321D150034B01221A60C046BD4603B00C
:1018F00090BDC046001000400C05000090B583B0BC
:1019000000AF040008001100FB1D221C1A70BB1D53
:10191000021C1A707B1D0A1C1A70FFF785FFFFF767
:1019200035FF0E4A80239B000721D1500B49FB1D38
:101930001B780B4A8B500949BB1D1A78A223DB0088
:10194000CA5006497B1D1A78A123DB00CA50034BFD
:1019500001221A60C046BD4603B090BD0010004091
:101960000C05000080B582B000AF0200FB1D1A70AC
:10197000BB1D0A1C1A70FFF757FF094A80239B0002
:101980000121D1500649BB1D1A78A123DB00CA50A2
:10199000034B01225A60C046BD4602B080BDC0461E
:1019A00000100040B0B582B000AF05000C00100080
:1019B0001900FB1D2A1C1A70BB1D221C1A707B1DEE
:1019C000021C1A703B1D0A1C1A70104BFA1D12786B
:1019D0001A700F4BBA1D12781A700E4B7A1D1278BE
:1019E0001A700D4B7A1D12781A700C4B3A1D127832
:1019F0001A700B4B01221A701823FB181B78180061
:101A0000FFF756FEC046BD4602B0B0BDC905002076
:101A1000C8050020CA050020CC050020CB05002009
:101A2000CD050020B0B582B000AF05000C0010005D
:101A30001900FB1D2A1C1A70BB1D221C1A707B1D6D
:101A4000021C1A703B1D0A1C1A700E4BFA1D1278EC
:101A50001A700D4BBA1D12781A700C4BBA1D127801
:101A60001A700B4B7A1D12781A700A4B00221A70EA
:101A70003B1D1B781800FFF71BFEC046BD4602B099
:101A8000B0BDC046C8050020CA050020CC05002016
:101A9000CB050020CD05002080B500AF164B1B788C
:101AA000002B09D0154B1878154B1978154B1B785E
:101AB0001A00FFF7EBFE07E0114B1A78114B1B7869
:101AC00019001000FFF74EFF0E4B1B780133DAB2FE
:101AD0000C4B1A700B4B1A780B4B1B789A4203D99C
:101AE0000A4B1A78074B1A70094AA0235B000021A1
:101AF000D150C046BD4680BDCD050020C90500209F
:101B0000C8050020CC050020CB050020CA05002018
:101B10000080004080B586B000AF78600C23FB18D1
:101B200000221A800C23FB1800225A600C23FB1899
:101B30007A689A600C23FB1804481A00002100F010
:101B400017F8C046BD4606B080BDC0460140000043
:101B500080B500AFBFF34F8F034B044ADA60BFF389
:101B60004F8FC046FDE7C04600ED00E00400FA05D7
:101B700080B584B000AFF860B9607A60FFF7E8FF25
:101B8000C046BD4604B080BD80B584B000AF78606B
:101B90007B689B68FB607B68DA68FB68D31A180077
:101BA000BD4604B080BD80B582B000AF78600A0049
:101BB000FB1C1A707B681A687B68DB687968898807
:101BC0000B40D318FA1C12781A707B68DB685A1C19
:101BD0007B68DA60C046BD4602B080BD80B584B087
:101BE00000AFF8607A600A23FB180A1C1A80FB68B1
:101BF0001A68FB6899680A23FB181B88CB18F968D8
:101C000089880B40D3181A787B681A70C046BD4685
:101C100004B080BD80B582B000AF786039603A68AA
:101C20007B6800211800FFF7D9FF7B689B685A1C6E
:101C30007B689A60C046BD4602B080BD80B584B066
:101C400000AFF860B960BB1D1A80BB68002B01D1E2
:101C50000E231CE0BB1D1B88002B06D0BB1D1B8860
:101C6000013BBA1D1288134001D009230FE0FB6825
:101C7000BA681A60BB1D1B88013B9AB2FB689A8048
:101C8000FB6800229A60FB680022DA6000231800DB
:101C9000BD4604B080BD80B582B000AF78600A0058
:101CA000FB1C1A707B681800FFF76EFF02007B6850
:101CB0009B889A4208D8FB1C1A787B681100180090
:101CC000FFF771FF002300E004231800BD4602B0B7
:101CD00080BD80B582B000AF786039607B68180045
:101CE000FFF752FF031E07D03A687B681100180007
:101CF000FFF790FF002300E005231800BD4602B067
:101D000080BD80B586B000AFF860B9607A6000230E
:101D10007B6109E0BB685A1CBA601B78180000F0B0
:101D20007BF97B6901337B617A697B689A42F1DBDD
:101D30007B681800BD4606B080BD80B584B000AF9A
:101D4000F860B9607A60C046BB68180000F03CF9E2
:101D50000300052BF8D001231800BD4604B080BD58
:101D600080B584B000AF78607B689B68FB607B685F
:101D7000DA68FB68D31A1800BD4604B080BD0000C5
:101D800080B586B000AF786039607B681B78012B26
:101D90003BD17B685B681A783B4B11001800FFF75A
:101DA0007AFF03007B617B69002B0ED00C23FB18AC
:101DB00001221A700C23FB187A695A60334B1B6896
:101DC0000C22BA181000984710E02F4B1800FFF7AC
:101DD000C7FF0300012B09D10C23FB1800221A7046
:101DE0002A4B1B680C22BA1810009847264B180083
:101DF000FFF7B6FF0200244B9B889A423FD8244B42
:101E00000121180000F0F2FD39E07B681B78022BFD
:101E100014D10C23FB1802221A707B68DA680C2399
:101E2000FB185A601A4B0121180000F0DFFD174B18
:101E30001B680C22BA181000984720E07B681B78BA
:101E4000002B1CD1134A144B11001800FFF741FF5F
:101E5000031E04D10F4B0121180000F0A9FC0E4B0A
:101E60001800FFF77DFF031E09D10C23FB18032286
:101E70001A70064B1B680C22BA1810009847C0460F
:101E8000BD4606B080BDC046DC050020D005002060
:101E9000D8050020D4050020EC05002090B58FB0B7
:101EA00000AFF860B9607A601A00FB1C1A70404BF2
:101EB0007A681A60BB68002B01D1072373E0BB6806
:101EC0001968BB685B689AB23A4B1800FFF7B6FE18
:101ED00003007B637B6B002B01D07B6B63E0BB68F3
:101EE0009968BB68DB689AB2334B1800FFF7A6FE0F
:101EF00003007B637B6B002B01D07B6B53E01423CF
:101F0000FB182E4A13CA13C313CA13C303CA03C34D
:101F1000FB689A681423FB189A61FB681B795A1EA8
:101F20009341DBB21A001423FB181A751423FB1813
:101F3000FA1C12781A77FB685B79002B01D00E220D
:101F400000E000221423FB185A75FB68DB781A00A6
:101F50001423FB189A60FB689B781A001423FB1863
:101F6000DA60FB681B781A001423FB185A60FB68C0
:101F70005B781A001423FB181A60114A1423FB180B
:101F80001100180000F042FB03007B637B6B002B09
:101F900001D07B6B07E000F087FD0A4B01211800A0
:101FA00000F024FD03001800BD460FB090BDC046F0
:101FB000D0050020DC050020EC050020885500003D
:101FC000811D0000D805002080B584B000AF786086
:101FD0000F4B1800FFF7C4FE02000D4B9B889A427E
:101FE0000BD10C4B0121180000F000FD0300FB6039
:101FF000FB68002B01D0052306E07A68044B110032
:102000001800FFF766FE03001800BD4604B080BD4F
:10201000DC050020D805002080B584B000AF0200A8
:10202000FB1D1A70FB1D1A78134B11001800FFF7E7
:1020300032FE0300FB60FB68002B17D100F0D8FBD9
:1020400003001A0001235340DBB2002B0ED00B4AD1
:10205000094B11001800FFF73CFE031E06D1074B89
:102060000121180000F0A4FB0300FB60FB681800CE
:10207000BD4604B080BDC046EC050020D40500205C
:1020800080B584B000AF786014E07B68013B7B6072
:102090000C4BFB60FB6818000138C046C046C046C8
:1020A000C046C046C046C046C046C046C046C04600
:1020B000C046F1D17B68002BE7D1C046BD4604B0D5
:1020C00080BDC046E703000080B582B000AF0200CB
:1020D000FB1D1A70064BFA1D127811001F220A40D0
:1020E000012191400A001A60C046BD4602B080BD81
:1020F00000E100E080B582B000AF0200FB1D1A7065
:102100000749FB1D1B781A001F23134001229A4028
:10211000C0235B00CA50C046BD4602B080BDC04669
:1021200000E100E0B0B582B000AF02003960FB1DF5
:102130001A70FB1D1B787F2B32D92F4CFB1D1B788F
:102140001A000F231340083B99082B4AFB1D1B78EC
:1021500018000F230340083B9B0806339B00D3184D
:1021600004331B68FA1D1278100003220240D200CB
:10217000FF2090400200D2431A403B689B01FF20A1
:102180001840FB1D1B781D0003232B40DB009840EB
:1021900003001A438B1D9B00E31804331A6027E0E9
:1021A000164CFB1D1B785BB29B081449FA1D127874
:1021B00052B29208C03292005258F91D09780800B4
:1021C00003210140C900FF2088400100C94311409C
:1021D0003A689201FF201040FA1D12781500032280
:1021E0002A40D200904002000A43C0339B001A519B
:1021F000C046BD4602B0B0BD00ED00E000E100E029
:1022000080B582B000AF0200FB1D1A70BB1D0A1C16
:102210001A70BB1D1A78FB1D1B785BB211001800E9
:10222000FFF780FFFB1D1B785BB21800FFF762FF12
:10223000FB1D1B785BB21800FFF746FFC046BD468A
:1022400002B080BD80B582B000AF78600A00BB1CD0
:102250001A80BB1C1B887A68D31800221A60C046FB
:10226000BD4602B080BD80B582B000AF78600A0084
:10227000BB1C1A80BB1C1B887A68D3181B685A1EAB
:102280009341DBB21800BD4602B080BD80B582B07C
:1022900000AF786039607A68C1239B003968D150FB
:1022A000C046BD4602B080BD80B582B000AF786048
:1022B00039607A68C1239B00D3583A6813405A1E8C
:1022C0009341DBB21800BD4602B080BD80B582B03C
:1022D00000AF786039607A68C2239B003968D150BA
:1022E000C046BD4602B080BD80B584B000AF786006
:1022F0007A689023DB00D358FB607A689023DB0078
:10230000F968D150FB681800BD4604B080BD80B5A7
:1023100082B000AF78607A68A023DB000421D1503E
:10232000C046BD4602B080BD80B584B000AFF86045
:10233000B9607A60FB680549BA685A50FB6804497D
:102340007A685A50C046BD4604B080BD0C050000F6
:102350001405000080B584B000AFF860B9607A6001
:10236000FA68A123DB00B968D150FA68A223DB0028
:102370007968D150C046BD4604B080BD80B582B0FA
:1023800000AF78607A68A323DB00D358DBB2180073
:10239000BD4602B080BD000080B582B000AF78605D
:1023A0000A00FB1C1A70FB1C1A787B6802495A5001
:1023B000C046BD4602B080BD1C05000080B582B09D
:1023C00000AF78600A00FB1C1A70FB1C1B787A684F
:1023D000D31801221A60C046BD4602B080BD00007D
:1023E00080B582B000AF786008001100FB1C021CB1
:1023F0001A70BB1C0A1C1A70FA1CBB1C12781B78C2
:102400001343DBB219007B68024A9950C046BD46AF
:1024100002B080BD6C05000080B582B000AF78606E
:1024200039607B6803493A685A50C046BD4602B0DD
:1024300080BDC0462405000090B583B000AF786031
:102440000C0010001900FB1C221C1A70BB1C021C83
:102450001A707B1C0A1C1A70A023DB05FA1C117869
:10246000BA1C1278520011437A1C12789200114360
:102470001822BA181278120211431C22BA181278C4
:10248000120411437A68C132FF329200D150C04623
:10249000BD4603B090BD80B584B002AF7860786867
:1024A0000023019300230093002301220121FFF761
:1024B000C3FFC046BD4602B080BD80B584B002AF48
:1024C00078600A00FB1C1A70FB1C1A7878680023DD
:1024D000019300230093130000220021FFF7ACFFBB
:1024E000C046BD4602B080BD80B582B000AF786006
:1024F000A023DA0501217B689940A123DB00D1509C
:10250000C046BD4602B080BD80B582B000AF7860E5
:102510007B681B681800FFF7E7FF7B681B681800E3
:10252000FFF7B9FF7B685B6800211800FFF7C5FF64
:102530007B689B691A4A19001000FFF76DFF7B68E2
:10254000597D7B681B7D16481A00FFF749FF7B68A1
:1025500019687B685B6812481A00FFF7E5FE7B6824
:102560001B7D012B17D17B689B6800211800FFF7AA
:10257000A4FF7B68DB681800FFF7B6FF7B68DB68A9
:102580001800FFF788FF7B68D9687B689B68044860
:102590001A00FFF7DFFEC046BD4602B080BDC04650
:1025A0000020004080B582B000AF0200FB1D1A7011
:1025B0008E235B000D4A19001000FFF743FEA22393
:1025C0005B000A4A19001000FFF73CFE084A074B5F
:1025D00011001800FFF75AFEFB1D1B78190002209E
:1025E000FFF70EFEC046BD4602B080BD0020004091
:1025F0008000020080B500AF034B1800FFF787FE94
:10260000C046BD4680BDC0460020004080B582B0B7
:1026100000AF786039601A4BDB7E002B01D00823B5
:102620002AE07B68002B01D1164B7B607B68180089
:10263000FFF76AFF124B3A685A607B681A69104BC1
:102640001A600F4B5B68002B04D07B681B7F18005F
:10265000FFF7A8FFFFF7CEFF094B0022DA75084B02
:1026600000221A76064B00229A75054B0122DA7673
:10267000034B00229A7600231800BD4602B080BDAD
:10268000FC050020A855000080B582B000AF8E2365
:102690005B00104A19001000FFF7D4FD0E4B9B6839
:1026A0000D4A928A92B29A18FB1D12781A700A4B40
:1026B0009B8A9BB201339AB2074B9A82FB1D1B780F
:1026C000044A19001000FFF767FEC046BD4602B07D
:1026D00080BDC04600200040FC05002080B582B0CF
:1026E00000AF00237B608E235B002F4A190010008F
:1026F000FFF7A8FD2C4B08211800FFF75FFEFFF73E
:10270000C3FF2A4B5B68002B48D11EE0C0468E23D6
:102710005B00254A19001000FFF7A5FD03001A0011
:1027200001235340DBB2002B06D0204B9B8A9AB288
:1027300080235B009A42EAD11C4B9B8A9AB2802389
:102740005B009A4201D0FFF79FFF184B9B8A9AB219
:10275000164B9B7D9BB29A42D8D3144B9B8A9AB25C
:1027600080235B009A4202D10F237B6013E0C046B6
:102770008E235B000C4A19001000FFF774FD030064
:102780001A0001235340DBB2002BF1D1064B0C2180
:102790001800FFF713FE054B00229A757B6818009E
:1027A000BD4602B080BDC04600200040FC050020B0
:1027B00080B582B000AF78600A00FB1C1A7000F090
:1027C00017F8031E01D011230CE0084BFA1C1278F5
:1027D0009A75064B7A689A60044B00229A82FFF73A
:1027E0007DFF03001800BD4602B080BDFC0500203F
:1027F00080B500AF034B9B7D5A1E9341DBB218009E
:10280000BD4680BDFC05002080B500AF92235B0073
:10281000094A19001000FFF715FD84235B00064AE2
:1028200019001000FFF70EFD034B00211800FFF701
:10283000C5FDC046BD4680BD00200040B0B500AF1C
:10284000154BDB7D002B0BD184235B00134A190051
:102850001000FFF7F7FC114B1800FFF78FFD19E090
:1028600084235B000D4A19001000FFF7EBFC0A4BB4
:10287000DB68094A527ED2B29C18084B1800FFF759
:102880007DFD03002370044B5B7EDBB20133DAB2C3
:10289000014B5A76BD46B0BDFC050020002000402B
:1028A00090B585B000AF786008001100FB1C021CD9
:1028B0001A70BB1C0A1C1A704A4B9B7E01225340A3
:1028C000DBB2002B08D0BB1C1B7801225340DBB2CB
:1028D000002B01D0FFF798FF424B5B68002B00D024
:1028E00073E0A2235B00404A19001000FFF7AAFC26
:1028F0000F23FC1892235B003B4A19001000FFF7DE
:10290000B2FC030023700E23FC1884235B00364ABC
:1029100019001000FFF7A7FC030023700D23FC181B
:10292000A2235B00304A19001000FFF79CFC030053
:1029300023700E23FB181B7801225340DBB2002BBF
:102940000FD00D23FB181B7801225340DBB2002B64
:1029500007D00F23FB181B7801225340DBB2002B5A
:10296000C6D10F23FB181B78002B0DD10D23FB18AC
:102970001B78002B08D1FFF761FF1A4BDA7D194B4A
:102980005B7EDBB29A42B3D8164B0022DA750F2376
:10299000FB181B78002B01D003231EE00D23FB182E
:1029A0001B78002B01D00F2317E00E4B9B7E002BD2
:1029B00005D00D4B00211800FFF700FD0CE00A4B7D
:1029C00004211800FFF7FAFC06E081239B00064A69
:1029D00019001000FFF75AFC00231800BD4605B08F
:1029E00090BDC046FC0500200020004080B584B0AA
:1029F00000AF78600A00FB1C1A700F23FB1800223E
:102A00001A70274B5B68002B06D081239B00254A58
:102A100019001000FFF75AFC214BDB7D002B14D06E
:102A20001F4B1B7E002B0CD01D4B5B68002B06D070
:102A300081239B001B4A19001000FFF727FC11237C
:102A40002AE00F23FB1801221A700F23FB181B78B2
:102A500001225340DBB2002B0DD0114BFA1C12782F
:102A6000DA750F4B7A68DA600D4B00225A760C4B00
:102A700000221A7606E00A4B7A681A61084BFA1CA3
:102A800012781A760F23FB181A78FB1C19787B68CA
:102A90001800FFF705FF03001800BD4604B080BD15
:102AA000FC0500200020004080B500AF074B9B7E56
:102AB00001225340DBB2002B04D0FFF7A5FE034BED
:102AC00001229A76C046BD4680BDC046FC05002066
:102AD00080B586B000AF02003960FB1D1A70082374
:102AE000FB1801221A700823FB18FA1D12781A72BB
:102AF0000823FB183A685A60054B5A68044B19685A
:102B00000823FB1818009047C046BD4606B080BD9C
:102B1000FC05002080B586B000AF0200FB1D1A70D6
:102B20000823FB1800221A700823FB18FA1D1278DC
:102B30001A720A4B9A680823FB185A60074B002246
:102B40009A75064B5A68054B19680823FB1818003C
:102B50009047C046BD4606B080BDC046FC0500207B
:102B600080B586B000AF80239B007B4A190010001F
:102B7000FFF79AFB031E42D092235B00764A1900AE
:102B80001000FFF770FB031E39D092235B00724ADE
:102B900019001000FFF756FB81239B006E4A1900B5
:102BA0001000FFF793FB6D4B9B7E01225340DBB27D
:102BB000002B04D0684B04211800FFF7FFFB3B00FB
:102BC00002221A70644B1800FFF78EFB02003B00D4
:102BD000DA60624BDA7D3B001A72604BDA683B00C8
:102BE0005A605E4B0022DA755C4B00221A765B4B12
:102BF0005A685A4B19683B00180090475AE0564BE8
:102C000004211800FFF750FB031E53D084235B0000
:102C1000514A19001000FFF726FB031E4AD0FFF7A8
:102C20000DFE4E4BDA7D4D4B5B7EDBB29A4241D1BD
:102C30004A4B1B7E002B1ED0484BDB687B61132365
:102C4000FB18464A527E1A70444B1A7E434BDA7583
:102C5000424B1A69414BDA60404B00221A763F4BD7
:102C600000225A767A691323FB181B78110018008A
:102C7000FFF72EFF1EE0394B9B7E01225340DBB253
:102C8000002B04D0344B04211800FFF797FB81235D
:102C90009B00314A19001000FFF718FB2F4B002250
:102CA000DA752E4B5B7EDAB22C4BDB681900100014
:102CB000FFF70EFF8E235B00274A19001000FFF775
:102CC000D2FA031E1AD0254B9B8A9AB2234B9B7DC6
:102CD0009BB29A4202D2FFF7D7FC0FE08E235B0033
:102CE0001D4A19001000FFF7ADFA1C4B9B7D002B0D
:102CF00004D01A4B9B7D1800FFF70CFFA2235B004A
:102D0000154A19001000FFF7AEFA031E1FD0A223C8
:102D10005B00114A19001000FFF794FA0F4B9B7EDD
:102D2000002B04D00C4B00211800FFF747FB0B4B86
:102D3000DB7D002B0BD0094B0022DA75074B5B7E45
:102D4000DAB2064BDB6819001000FFF7C1FEC0467F
:102D5000BD4606B080BDC04600200040FC050020F6
:102D600080B500AFFFF7FCFEC046BD4680BD000049
:102D700003210A4802680A430260094802680A43BC
:102D800002600849084A094B9B1A03DD043BC858F6
:102D9000D050FBDCFDF744FAFDF7C2F924050040F2
:102DA000540500409C57000000000020E80100206E
:102DB000FEE7FEE7FEE7FEE7FEE7FEE70FB40B4B9C
:102DC00013B51C68002C05D0A369002B02D120008C
:102DD00000F06AF805AB049AA1682000019300F0A6
:102DE0009BF916BC08BC04B01847C0460000002080
:102DF0000FB40B4B13B51C68002C05D0A369002B36
:102E000002D1200000F050F805AB049A6168200060
:102E1000019300F0ABFD16BC08BC04B01847C046D7
:102E20000000002010B5024900F0CEF810BDC046E9
:102E300091450000002310B50400036043608360E7
:102E400081814366C2810361436183611900082265
:102E50005C30FDF7DBF9054B24626362044BA3622F
:102E6000044BE362044B236310BDC046453E0000A3
:102E70006D3E0000A53E0000D13E000070B5682503
:102E80004A1E55430E002900743100F0BFF8041E9D
:102E900008D000212A00016046600C30A060683232
:102EA000FDF7B4F9200070BD836913B50400002B51
:102EB00028D18364C3640365134B144A1B68826280
:102EC0000193984201D101238361200000F020F892
:102ED0006060200000F01CF8A060200000F018F8EE
:102EE0000022E06004216068FFF7A4FF01220921AD
:102EF000A068FFF79FFF02221221E068FFF79AFF08
:102F00000123A36113BDC0467C4A0000252E0000AA
:102F1000F8B51E4B07001E68B369002B02D13000C4
:102F2000FFF7C2FF4836B4687368013B04D53368C5
:102F3000002B07D03668F6E70C22A55E002D0DD0D9
:102F40006834F2E704213800FFF798FF306000286A
:102F5000F0D10C2304003B602000F8BD01232000C9
:102F60005B42E3810233A38165662560A5606560ED
:102F700025616561A561082229005C30FDF746F9ED
:102F80006563A563A564E564E6E7C0467C4A000086
:102F9000F7B54830040000260191002C01D1300023
:102FA000FEBDA5686768013F01D52468F5E7AB89D8
:102FB000012B07D90E22AB5E013303D02800019B01
:102FC000984706436835EEE7F7B50400070000268A
:102FD00001914834002C01D13000FEBD6368A56822
:102FE0000093009B013B009301D52468F2E7AB8975
:102FF000012B08D90E22AB5E013304D02900380022
:10300000019B984706436835EBE70000032370B542
:10301000CD1C9D43083506000C2D1ED20C25A9425F
:103020001DD8300001F0A6FB254A146821000029B4
:1030300019D1244C2368002B03D1300000F0BEFED0
:1030400020602900300000F0B9FE431C2CD10C2375
:103050003000336001F08FFB03E0002DDFDA0C233A
:103060003360002070BD0B685B1B1AD40B2B03D997
:103070000B60CC18256003E08C420ED163681360AE
:10308000300001F078FB200007220B30231D904315
:10309000C31AE7D05A42E250E4E74B6863600C0081
:1030A000EEE70C004968C2E70323C41C9C43A0421E
:1030B000E0D0211A300000F081FE431CDAD1C6E7CF
:1030C000180600201C060020936810B5013B936091
:1030D000002B05DA9469A34208DBCBB20A2B05D09A
:1030E0001368581C10601970C8B210BD01F0D4F8F4
:1030F000FBE7F8B506000F001400D518AC4201D16B
:10310000002007E021783A003000FFF7DDFF0134AE
:10311000431CF3D1F8BD0000F0B59FB006000F00CE
:1031200014000593002804D08369002B01D1FFF718
:10313000BBFE7F4B9F425CD17768BB891B0762D582
:103140003B69002B5FD0002306AD6B6120336B76AB
:103150001033AB760294029C2378002B5DD1029B46
:10316000E31A04930DD0049B029A39003000FFF754
:10317000C0FF431C00D1CCE06A69049B94466344C1
:103180006B612378002B00D1C3E00122002352425F
:103190006A6002A95432521801342B60EB60AB60B4
:1031A0001370AB6521780522624801F0CFFA631CE9
:1031B0009C46002835D12968CB0604D5532302AAA2
:1031C00020309B1818700B0704D553232B2002AA1C
:1031D0009B18187023782A2B2CD000200A21099BD9
:1031E0002278303A092A00D86BE000282AD00993C7
:1031F00028E0514B9F4201D1B7689EE74F4B9F4259
:103200009BD1F76899E73900300001F0AFF800284A
:1032100099D0012040421FB0F0BD252B9FD0013432
:103220009AE7444B2968C01A012383400B432B6063
:103230006446B7E7059B181D1B680590002B3ADB19
:103240000993644623782E2B0BD16378621C2A2BBA
:103250003FD1059B02341A1D1B680592002B35DBFC
:10326000079321780322364801F070FA002807D02E
:10327000334B2A68C01A4023834013432B60013428
:103280002178631C06222F480293297601F05EFA0A
:10329000002844D02C4B002B2FD12968059B0722F6
:1032A000C90528D59B189343083305936B69039A86
:1032B0009B186B614FE75B42EB6002230B432B6073
:1032C000BFE74B4301349B18012089E701235B4290
:1032D000C6E7002314000A201A006B6021783039F9
:1032E000092903D9002BBCD00792BAE74243013425
:1032F00052180123F2E70733D5E705AB00933A00F4
:10330000124B2900300000E000BF0390039B013303
:10331000CCD1BB895B0600D57BE70B987BE705AB7F
:1033200000933A00094B2900300000F07FF8ECE7E9
:10333000E85500002856000008560000C855000057
:103340002E5600003256000000000000F33000004E
:10335000F7B5150001938A680B6900900C00934241
:1033600000DA130022002B6043321278002A01D0C9
:1033700001332B6023689B0602D52B6802332B6038
:10338000062723681F4027D0230043331B785A1E8B
:1033900093412268920630D422000199433200986A
:1033A000089EB047431C25D0062320682A68E168A0
:1033B00003400025042B03D18D1AEB43DB171D407E
:1033C000A3682269934201DD9B1AED180027BD42D4
:1033D00020D1002010E00137E3682A689B1A9F4241
:1033E000D2DA22000123193201990098089EB047D1
:1033F000431CF0D101204042FEBD3020E118433192
:10340000087021005A1C45310978A2184332023352
:103410001170C1E7220001231A3201990098089E19
:10342000B047431CE6D00137D1E70000F0B58BB0C0
:1034300006920A0043320793059004920A7E0C001C
:10344000109B6E2A00D18FE017D8632A2CD008D8A1
:10345000002A00D199E0582A54D026004236327012
:1034600029E0642A01D0692AF7D121681A68080680
:1034700023D5111D1960156825E0732A00D188E055
:1034800008D86F2A29D0702AE7D1202209680A4378
:10349000226003E0752A20D0782ADED1220078212C
:1034A000453211706C4A30E00E001A684236111D28
:1034B000196013683370012379E04906D9D5111DCD
:1034C00019600023D55E002D03DA2D23049A6D4286
:1034D0001370624B0A2703932FE0206819680506D2
:1034E00003D5081D18600D6805E04006F9D50D6884
:1034F000081D1860ADB2594B082703936F2A18D0E6
:103500000A2716E045310A70544A03921A68216866
:10351000101D18601568080622D5CB0702D5202398
:10352000194321601027002D03D1202322689A43DC
:1035300022602300002243331A706368A360002BCB
:103540005CDB0422216891432160002D58D1049E48
:10355000002B64D02600039B42361B7833705EE05C
:103560004806DAD5ADB2D8E709681A68080605D565
:10357000111D1960136862691A6006E04906F7D5E3
:10358000111D19601368A28A1A800023049E23610A
:1035900054E01A68111D1960166800216268300035
:1035A00001F0D4F8002801D0801B606063682361BB
:1035B0000023049A137041E02369320006990598AC
:1035C000079DA847431C43D0236800259B070FD4C1
:1035D000099BE06898423DDA18003BE02200012395
:1035E000193206990598079EB047431C30D0013523
:1035F000E368099A9B1A9D42F0DBE9E7002DA9D008
:10360000049E2800390001F0F9F9039B013E5B5C40
:1036100028003370390001F06BF9051EF1D1082F35
:1036200009D12368DB0706D563682269934202DC6F
:103630003023013E3370049B9B1B2361079B09AA27
:1036400000932100069B0598FFF782FE431CB3D12F
:10365000012040420BB0F0BD4A5600003956000030
:10366000F0B5BD4C8625A5440393002348934993A8
:1036700005AB4A93BE236D0000900C0002A8B74929
:103680005B004019C027C15002AB5B191500B4495B
:103690007F00D9512B78002B00D15BE100F0BCFFFB
:1036A00008222B78C01801934378134041D1019A26
:1036B0006E1C252A00D0A8E0479345936B782A2BEF
:1036C00002D11A3B4593AE1C35000A2229780B0023
:1036D000303B092B48D9A34E0322300001F036F8C5
:1036E000002807D00123801B8340459A01351343EE
:1036F000029245932B786E1C672B58D8652B00D30C
:10370000DDE0472B38D8452B00D3D8E0002B00D183
:103710001DE1252B79D003234B930733469353E0C8
:10372000499A013301920132499262682360013A59
:1037300062606368002B0BDD00F06EFF08212368D8
:103740001A78801842780A42EAD16E1C3500A1E747
:10375000862202AB52009B18DB592100009801938E
:1037600098470028E8D0F0E7479B01350293534380
:10377000303B59184791A9E75B2B00D177E00FD870
:10378000582BC8D1459A01928022019992000A4390
:1037900045921022469203226E2B14DD013212E074
:1037A000632B00D171E0642BB5D10A22F2E7702BB4
:1037B00052D022D86E2B00D16FE054D8692BAAD1F9
:1037C0000023032246934B926368002B00DC78E0D1
:1037D000459B01935B0600D48BE04B9B022B00DDE5
:1037E0009DE003AB220045A9009800F0E7F801280E
:1037F00000D1AFE00228A9D125E0752BD5D0782BD8
:10380000C0D0732B87D102233DE06368002B0FDD0E
:10381000236801991A78914200D09BE001336268D5
:103820002360499B013A01930133626049938DE71C
:10383000862202AB52009B18DB59210000980293AC
:1038400098470028E4D04898002800D07BE0013851
:10385000A7239B009D44F0BD459A01922022019927
:103860000A4345928EE7082304224693ABE73100D2
:1038700005A800F0B5FA459B060001934023019A84
:103880001343459301234B939EE7459B01934023AC
:10389000019A134345930023F5E74599CB0600D5DC
:1038A00054E7039B499AC80704D5191D03911B6867
:1038B0001A804BE7191D03911B681A6046E7052320
:1038C000E1E7862202AB52009B18DB5921000098E9
:1038D00001939847002800D17AE7B4E7499A01920A
:1038E000013249926268013A6260002A0BDD0133BD
:1038F000236000F091FE082123681A78801842782E
:103900000A42EBD169E7862202AB52009B18DB59D1
:1039100021000098019398470028EAD093E7042BF0
:1039200006DC03AB220045A9009800F0ABF85EE787
:103930000D4B002B00D109E703AB220045A90098ED
:1039400000E000BF53E7A3895B0600D480E70120B5
:1039500040427DE748987BE764FDFFFFB5410000EA
:103960009D3C00002E56000000000000F8B5040049
:103970000D0016001F00002804D08369002B01D120
:10398000FFF792FA0A4B9D4207D165683B0032006F
:1039900029002000FFF764FEF8BD064B9D4201D1CF
:1039A000A568F3E7044B9D42F0D1E568EEE7C04619
:1039B000E855000008560000C8550000F7B515008E
:1039C0008A6801900C00002A06D18A69511E8A413A
:1039D000012152420A43A2602268D20603D41A6827
:1039E000111D196017680026A369002B1CD0012B3C
:1039F00008D12B6862691B78D35C002B14D1002E90
:103A000030D106E0022B06D0002E2BD1A369012B6A
:103A100028D10120FEBD00F0FFFD08222B681B7895
:103A2000C01843781342EFD11022236801361342A5
:103A300003D12B681B783B7001372A686B68013211
:103A40002A60A268013B013A6B60A260002A09D09B
:103A5000002BC9DCC0235B00E3582900019898477C
:103A60000028C1D010232268134006D1E268013239
:103A7000E260A269002A00D03B70236900209E19F1
:103A80002661C7E7F0B50C008DB00293774B059027
:103A9000160009AA23CB23C2754B0693A369032BF7
:103AA00001D0744B0693AE220020A3685200591E29
:103AB0000490914205D95E3BFF3B04935E23FF33A4
:103AC000A36023001C330193D023002722681B012D
:103AD00013432360019B0393336809A81978BB0043
:103AE0000222185800F032FE00282BD0012F5FD19F
:103AF0006368002B06D1083322686360F933FF3313
:103B0000134323605C4B226813402360A3685A1E52
:103B1000A260002B16D0039B5D1C33685A1C3260D8
:103B20001B78039A039513707368013B7360002B35
:103B300008DCC0235B00E3583100059807939847E1
:103B400000287DD10137032FC6D16368002B01D136
:103B50000A3363601021002763686069C91A474B04
:103B6000C91800F03DF9039DA368002B41D03268CD
:103B700060691178405C00283BD0302928D1802032
:103B800021680001014223D0049A0137002A03D0A2
:103B9000013A01330492A3607368013B7360002B08
:103BA0001EDD336801333360A368013BA360DBE7AC
:103BB000022FABD1C02180232268C90011409B0095
:103BC0009942C2D1F13BFF3B6360F03313439CE762
:103BD00021682B4B0B40236013782B700135DBE7FA
:103BE000C0235B00E35831000598039398470028F1
:103BF000DAD02368DB050ED5019B9D4207D9BE2391
:103C0000013D5B002978E358320005989847019BF5
:103C100001209D4227D0102223681A401CD12A700F
:103C2000636801990598069EB047029B22681B684D
:103C3000910607D502991A1D0A601B68186008E0F2
:103C40000027D6E7D107F5D502991A1D0A601B682F
:103C50001880E3680133E3600020019BED1A2369BB
:103C6000EF19DF1927610DB0F0BDC0465C560000AA
:103C7000E93F000019410000FFFAFFFF685600000D
:103C8000FFF6FFFF092210B5838913400022092B9C
:103C900002D100F0A9FC0200100010BDF8B505002B
:103CA0000C00002804D08369002B01D1FFF7FCF839
:103CB0003D4B9C420AD16C68002363600C23E25E9A
:103CC00093B299060CD50120404268E0374B9C42E4
:103CD00001D1AC68F0E7364B9C42EDD1EC68EBE7E4
:103CE00059074AD4D90605D409232B603733134327
:103CF000A381E8E7082633420AD02100280000F01B
:103D000047FC0028DFD1A389A060B343A381A06151
:103D10000423A2891343A3812369002B03D121002B
:103D2000280000F0C3FC0C23E75EBEB2B3070FD03F
:103D30000123A3811F4B20491868FFF729F90923A4
:103D4000A7811E409E4203D12100280000F096FB6F
:103D500023692269236028006369216A656AA8478C
:103D6000020060600020824219DCA189824217D1E2
:103D700020230B43A381013811E0616B0029CBD0D4
:103D800023004433994202D0280000F0F5FC0020C3
:103D9000236C606363608342BED0E36B2360F8BD35
:103DA000402360600B43A3E7E8550000085600007D
:103DB000C85500007C4A0000853C0000002370B517
:103DC000064C05000800236000F03EFE431C03D1B2
:103DD0002368002B00D02B6070BDC0462406002055
:103DE00070B50B785E2B0DD04A1C00210400451CD9
:103DF000FF3521700134A542FBD1002B06D1013AD9
:103E0000100070BD8A1C4B780121EFE701244C4063
:103E10001100C4540D784A1C2D2D07D05D2DEFD014
:103E2000002D01D10A00EBE72B00F1E74E785D2E63
:103E3000FAD0B342F8DC02310133C4549E42FBDCB9
:103E4000E8E7000070B50C000E25495F00F004FDA6
:103E5000002803DB636D1B18636570BDA389024AEC
:103E60001340A381F9E7C046FFEFFFFFF8B51F003D
:103E70008B8905000C001600DB0505D50E23C95EF5
:103E80000022022300F0D6FBA389054A2800134034
:103E9000A38132000E23E15E3B0000F053FAF8BD2F
:103EA000FFEFFFFF70B50C000E25495F00F0C2FB6D
:103EB000A389421C03D1054A1340A38170BD80220F
:103EC00052011343A3816065F8E7C046FFEFFFFF8F
:103ED00010B50E23C95E00F0BFFA10BDF0B51F008B
:103EE0000E0087B00590039102920C98347800F090
:103EF0008FFB082200194378751C13400CD12D2C20
:103F00000CD101332C780193B51C002F0CD0102F4D
:103F100014D1302C0AD011E02E00E6E701932B2CAF
:103F2000F3D12C78B51CF0E7302C2FD120222B7840
:103F30009343582B51D110276C780235019B294AA5
:103F400039009E18300000F059FD3000049139000E
:103F500000F0CEFC01210023494202008C461800EB
:103F600021003039092913D80C00A7421CDD591C47
:103F700009D06346824206D302D10499A14202DBF2
:103F80000123784320182C780135E9E70A27D5E783
:103F900021004139192901D8373CE6E72100613970
:103FA000192901D8573CE0E75A1C08D1059A233358
:103FB0001360029B3000002B0BD107B0F0BD019ABB
:103FC000002A00D04042029A002AF6D0039A002B21
:103FD00000D06A1E029B1A60EFE73024002FADD19B
:103FE0000837ABE7FFFFFF7F13B5054C2468246A51
:103FF000002C00D1034C0094FFF770FF16BDC046A3
:104000000000002070000020F0B51F000E0087B0F7
:104010000590039101920C98347800F0F9FA082287
:1040200000194378751C13400CD12D2C0CD1013391
:104030002C780293B51C002F0CD0102F14D1302CEB
:104040000AD011E02E00E6E702932B2CF3D12C7856
:10405000B51CF0E7302C2FD120222B789343582B1E
:1040600054D110276C78023501203900404200F00D
:104070003FFC060001203900404200F0BFFC002355
:1040800004910121012218008C465242210030394E
:10409000092913D80C00A7421EDD002B1ADB1300E0
:1040A000864206D302D10499A14202DB63467843DB
:1040B00020182C780135E9E70A27D5E72100413996
:1040C000192901D8373CE6E721006139192903D8BD
:1040D000573CE0E71300ECE7002B09DA222301202C
:1040E000059A40421360019B002B0BD107B0F0BD35
:1040F000029A002A00D04042019A002AF6D0039A80
:10410000002B00D06A1E019B1A60EFE73024002FBD
:10411000AAD10837A8E7000013B5054C2468246A23
:10412000002C00D1034C0094FFF76EFF16BDC04673
:1041300000000020700000200B00F7B54D6B4433E9
:104140000C009D421CD18026F6003100FEF75EFF78
:10415000002802D101204042FEBD23006063A66317
:1041600046331A78104BC254230045331A780F4B4C
:10417000C2542A780E4BC254C01820600020EBE7CE
:104180008E6B290073001A00019300F03FFB051E9F
:10419000E0D0871901003200380000F0E2FA019BFC
:1041A00027606563A363E9E7FF030000FE030000E7
:1041B000FD030000F8B505000E0014004B1C03D1F0
:1041C000012676423000F8BD002804D08369002B18
:1041D00001D1FEF769FE2D4B9C422DD16C68202247
:1041E000A38993431BB2A3819BB25A0713D4DA0667
:1041F000E6D508273B420AD02100280000F0C8F984
:104200000028DDD1A389A060BB43A381A061042362
:10421000A2891343A381626BF7B26368F6B2002AE6
:104220001BD0A26B934211DA2368013B23601F70FD
:10423000636801336360C5E7154B9C4201D1AC68EC
:10424000CDE7144B9C42CAD1EC68C8E72100280096
:10425000FFF772FF0028E7D0B2E721692268002942
:1042600007D0914205D2511E0878864201D12160C3
:10427000DFE723642300443363630323A363230042
:104280004633E2631F7023600123D3E7E855000043
:1042900008560000C8550000F8B505000E001400CF
:1042A000002804D08369002B01D1FEF7FDFD224BCD
:1042B0009C422DD16C68A369A360A3891B0731D5EB
:1042C0002369002B2ED023682269F7B2981A6369FC
:1042D000F6B2984205DB2100280000F059F90028C9
:1042E00026D1A3680130013BA36023685A1C2260D9
:1042F0001F706369984204D0A389DB071AD50A2E80
:1043000018D12100280000F043F9002812D00FE056
:104310000A4B9C4201D1AC68CDE7094B9C42CAD103
:10432000EC68C8E72100280000F020F80028CAD077
:10433000012676423000F8BDE8550000085600001E
:10434000C855000070B50500080011000022064C99
:1043500022601A00FDF7D5FC431C03D12368002B13
:1043600000D02B6070BDC04624060020364B70B5CF
:104370001D6806000C00002D05D0AB69002B02D192
:104380002800FEF791FD314B9C420FD16C680C2345
:10439000E25E93B219072DD4D90611D40923012066
:1043A000336037331343A381404270BD284B9C4296
:1043B00001D1AC68EBE7274B9C42E8D1EC68E6E71B
:1043C0005B0713D5616B002908D023004433994261
:1043D00002D0300000F0D0F9002363632422A389C7
:1043E0009343A38100236360236923600823A28988
:1043F0001343A3812369002B0BD1A0218022A38921
:10440000890092000B40934203D02100300000F05D
:104410004DF90123A289134011D00023A3606369E1
:104420005B42A361002023698342BED10C23E25E7C
:104430001306BAD540231343A3810138B5E7920789
:1044400000D46369A360EDE700000020E855000098
:1044500008560000C8550000002370B5064C050042
:104460000800236000F0D0FA431C03D12368002B1E
:1044700000D02B6070BDC04624060020F7B58A89A5
:1044800005000C00130760D44B68002B04DC0B6C98
:10449000002B01DC0020FEBDE76A002FFAD00023CC
:1044A0002E682B6080235B011A4034D0606DA38995
:1044B0005B0706D56368C01A636B002B01D0236CC1
:1044C000C01A0200216A00232800E76AB847A189C0
:1044D000431C06D12B681D2B31D82C4ADA40D30758
:1044E0002DD50023636023692360CB0405D5431CCD
:1044F00002D12B68002B00D16065616B2E60002912
:10450000C8D023004433994202D0280000F034F987
:1045100000206063BFE70123216A2800B847431CDD
:10452000C5D12B68002BC2D01D2B01D0162B01D179
:104530002E60AFE74023A2891343A381ABE740235A
:104540000B430120A3814042A5E70F69002FA1D0B2
:104550000B680F60DB1B01930023920700D14B69AE
:10456000A360019B002B00DC94E7019B3A00216AC9
:104570002800A66AB047002803DC4023A289134321
:10458000DFE7019B3F181B1A0193EAE70100402077
:104590000B6970B505000C00002B01D1002070BD27
:1045A000002804D08369002B01D1FEF77DFC0B4B62
:1045B0009C4209D16C680C22A35E002BEED0210036
:1045C0002800FFF75BFFEAE7054B9C4201D1AC688E
:1045D000F1E7044B9C42EED1EC68ECE7E8550000B3
:1045E00008560000C855000010B5011E05D1054B46
:1045F00005491868FEF7E8FC10BD044B1868FFF782
:10460000C7FFF9E77C4A0000914500000000002048
:10461000EC30006870470000044B1B681B6A002BDD
:1046200000D1034BEC3318687047C04600000020EF
:104630007000002070B50500080011000022064C33
:1046400022601A0000F0F8F9431C03D12368002B04
:1046500000D02B6070BDC0462406002070B50E004F
:104660001D000E23C95E90B01400002907DA002354
:104670002B60B3891B0611D48023DB000FE001AA55
:1046800000F00AF90028F2DBF022029B120213402C
:10469000054A9B185A4253412B60EDE74023002006
:1046A000236010B070BDC04600E0FFFFF7B50226E2
:1046B0008B8905000C00334206D02300473323606A
:1046C000236101236361F7BD01AB6A46FFF7C6FFB3
:1046D000009907002800FEF799FC002806D10C225B
:1046E000A35E9A05EFD41E43A681E6E70D4BAB62AD
:1046F0008023A28920601343A381009B2061636112
:10470000019B002B0AD00E23E15E280000F0D6F8B2
:10471000002803D00123A2891343A381A089384331
:10472000A081D0E7252E000082B0002900D101A988
:10473000101E06D0002B06D013780B601078431E95
:10474000984102B0704702204042FAE7C9B282188D
:10475000904201D10020704703788B42FBD001309A
:10476000F6E7002310B59A4200D110BDCC5CC454CA
:104770000133F8E77047704770B50500002910D085
:104780000C1F2368002B00DAE4182800FFF7F2FF63
:104790001D4A1368002B05D1636014602800FFF7E1
:1047A000EAFF70BDA34209D9216860188342F3D1A2
:1047B00018685B6841182160EEE713005A68002A08
:1047C00001D0A242F9D919685818A0420BD120682B
:1047D0000918581819608242E0D1106852684118CF
:1047E00019605A60DAE7A04202D90C232B60D5E7A2
:1047F00021686018824203D1106852684118216014
:1048000062605C60CAE7C04618060020F8B5070081
:104810000D001600002905D11100FEF7F7FB04007A
:104820002000F8BD002A03D1FFF7A6FF3400F7E708
:1048300000F056F82C008642F2D931003800FEF71D
:10484000E5FB041EECD029003200FFF78AFF2900A7
:104850003800FFF791FFE3E770B50500080011008D
:104860000022064C22601A00FDF767FA431C03D1B0
:104870002368002B00D02B6070BDC04624060020AA
:104880000B1E04D0FF2A04D98A2303608B3B180037
:1048900070470A700123FAE7002370B5064C050043
:1048A00008001100236000F0B7F8431C03D123680F
:1048B000002B00D02B6070BD24060020002370B5B3
:1048C000064C05000800236000F0AEF8431C03D13D
:1048D0002368002B00D02B6070BDC046240600204A
:1048E0000B1F1B68181F002B01DA0B58C0187047EC
:1048F000002243088B4274D303098B425FD3030A1F
:104900008B4244D3030B8B4228D3030C8B420DD331
:10491000FF22090212BA030C8B4202D312120902BF
:1049200065D0030B8B4219D300E0090AC30B8B42FD
:1049300001D3CB03C01A5241830B8B4201D38B03AB
:10494000C01A5241430B8B4201D34B03C01A524150
:10495000030B8B4201D30B03C01A5241C30A8B4293
:1049600001D3CB02C01A5241830A8B4201D38B027E
:10497000C01A5241430A8B4201D34B02C01A524122
:10498000030A8B4201D30B02C01A5241CDD2C30994
:104990008B4201D3CB01C01A524183098B4201D310
:1049A0008B01C01A524143098B4201D34B01C01AFB
:1049B000524103098B4201D30B01C01A5241C30873
:1049C0008B4201D3CB00C01A524183088B4201D3E2
:1049D0008B00C01A524143088B4201D34B00C01ACE
:1049E0005241411A00D20146524110467047FFE73A
:1049F00001B5002000F006F802BDC0460029F7D03E
:104A000076E770477047C04658220120014B40426C
:104A10001A6070472406002058220120014B4042B2
:104A20001A607047240600205822024B00201A60AA
:104A30007047C0462406002058220120014B404206
:104A40001A60704724060020044A1368002B03D024
:104A50001818106018007047014BF9E72006002075
:104A600028060020F8B5C046F8BC08BC9E46704732
:104A7000F8B5C046F8BC08BC9E467047040000204C
:104A800055736167653A0D0A00000000303A205303
:104A900074617274206175746F6D61746963206DE7
:104AA0006F64652028576169742F414553290D0AA9
:104AB00000000000613A20456E74657220737461D5
:104AC0007274206368616E6E656C20666F7220730D
:104AD000776565702F6368616E6E656C20666F72B6
:104AE00020636F6E7374616E7420636172726965A6
:104AF000720D0A00623A20456E74657220656E641C
:104B0000206368616E6E656C20666F7220737765D6
:104B100065700D0A00000000633A205374617274DE
:104B200020545820636172726965720D0A0000009A
:104B3000643A20456E7465722074696D65206F6EED
:104B40002065616368206368616E6E656C20283142
:104B50006D732D39396D73290D0A0000653A2043B4
:104B6000616E63656C2073776565702F6361727227
:104B70006965720D0A0000006D3A20456E74657219
:104B8000206461746120726174650D0A0000000088
:104B90006F3A205374617274206D6F64756C617428
:104BA000656420545820636172726965720D0A0051
:104BB000703A20456E746572206F7574707574203C
:104BC000706F7765720D0A00733A205072696E74C7
:104BD0002063757272656E742064656C61792C2037
:104BE0006368616E6E656C7320616E6420736F2004
:104BF0006F6E0D0A00000000723A205374617274E7
:104C00002052582073776565700D0A00743A20535E
:104C1000746172742054582073776565700D0A00B2
:104C2000783A205374617274205258206361727212
:104C30006965720D0A0000006E3A20456E74657257
:104C40002074696E795F6165735F313238206D6FF2
:104C500064650D0A00000000202020703A20456E97
:104C600074657220706C61696E746578740D0A00E9
:104C70002020206B3A20456E746572206B65790D9B
:104C80000A000000202020653A20456E637279708A
:104C9000740D0A002020206E3A20536574206E7532
:104CA0006D626572206F66207265706574697469E3
:104CB0006F6E730D0A000000202020723A2052759A
:104CC0006E20726570656174656420656E637279CB
:104CD0007074696F6E0D0A00202020713A205175A2
:104CE00069742074696E795F6165735F3132382051
:104CF0006D6F64650D0A0000456E74657220646115
:104D00007461207261746520282730273D32353068
:104D1000204B6269742F732C202731273D31204DA1
:104D20006269742F732C202732273D32204D62692F
:104D3000742F7320616E64202733273D424C452039
:104D400031204D6269742F73293A0D0A000000006A
:104D50002563000025630D0A000000000D0A000015
:104D6000456E746572206F757470757420706F77FE
:104D7000657220282730273D2B342064426D2C207B
:104D80002731273D302064426D2C2E2E2E2C2737C4
:104D9000273D2D33302064426D293A0D0A00000072
:104DA000506172616D65746572733A0D0A0000009E
:104DB0004461746120726174652E2E2E2E2E2E2E6B
:104DC0002E2E2E2E3A20323530204B6269742F73EE
:104DD0000D0A00004461746120726174652E2E2EEC
:104DE0002E2E2E2E2E2E2E2E3A2031204D6269741C
:104DF0002F730D0A00000000446174612072617419
:104E0000652E2E2E2E2E2E2E2E2E2E2E3A20322097
:104E10004D6269742F730D0A0000000044617461D3
:104E200020726174652E2E2E2E2E2E2E2E2E2E2EBC
:104E30003A20424C452031204D6269742F730D0A8F
:104E400000000000545820506F7765722E2E2E2ED1
:104E50002E2E2E2E2E2E2E2E3A202B342064426DF6
:104E60000D0A0000545820506F7765722E2E2E2E9A
:104E70002E2E2E2E2E2E2E2E3A20302064426D0DF8
:104E80000A000000545820506F7765722E2E2E2E87
:104E90002E2E2E2E2E2E2E2E3A202D342064426DB4
:104EA0000D0A0000545820506F7765722E2E2E2E5A
:104EB0002E2E2E2E2E2E2E2E3A202D382064426D90
:104EC0000D0A0000545820506F7765722E2E2E2E3A
:104ED0002E2E2E2E2E2E2E2E3A202D3132206442B2
:104EE0006D0D0A00545820506F7765722E2E2E2EAD
:104EF0002E2E2E2E2E2E2E2E3A202D31362064428E
:104F00006D0D0A00545820506F7765722E2E2E2E8C
:104F10002E2E2E2E2E2E2E2E3A202D323020644272
:104F20006D0D0A00545820506F7765722E2E2E2E6C
:104F30002E2E2E2E2E2E2E2E3A202D333020644251
:104F40006D0D0A0028537461727429204368616EE4
:104F50006E656C2E2E2E2E2E3A2025640D0A000032
:104F6000456E64204368616E6E656C2E2E2E2E2E6B
:104F70002E2E2E2E3A2025640D0A000054696D65F0
:104F8000206F6E2065616368206368616E6E656C7A
:104F90003A202564206D730D0A0000006F6E00003A
:104FA0006F6666004C6F77206672657175656E631B
:104FB0007920636C6F636B2E3A2025730D0A000015
:104FC00025640000256420256420256420256420B4
:104FD000256420256420256420256420256420255F
:104FE0006420256420256420256420256420256410
:104FF0002025640D0A0000004175746F6D617469AD
:1050000063206D6F6465200D0A00000053746172A7
:10501000742077616974696E672E2E2E0D0A000068
:10502000537461727420656E6372797074696E670F
:105030002E2E2E0D0A000000456E746572696E6793
:105040002074696E795F6165735F313238206D6FEE
:1050500064650D0A00000000256C750053657474CA
:10506000696E67206E756D626572206F662072656D
:105070007065746974696F6E7320746F20256C6439
:105080000D0A0000446F6E650D0A000045786974D2
:10509000696E672074696E795F6165735F3132385C
:1050A000206D6F64650D0A00524620546573740DBF
:1050B0000A000000456E746572207374617274207A
:1050C0006368616E6E656C202874776F2064656319
:1050D000696D616C206469676974732C20303020BD
:1050E000746F203830293A0D0A00000025640D0A3B
:1050F000000000004368616E6E656C206D7573740E
:10510000206265206265747765656E203020616E6F
:10511000642038300D0A0000456E74657220656E9B
:1051200064206368616E6E656C202874776F2064FC
:105130006563696D616C206469676974732C2030E4
:105140003020746F203830293A0D0A00456E74659E
:10515000722064656C617920696E206D73202874FB
:10516000776F20646563696D616C20646967697439
:10517000732C20303120746F203939293A0D0A0000
:1051800044656C6179206D75737420626520626579
:10519000747765656E203120616E642039390D0A9F
:1051A000000000005458206D6F64756C6174656474
:1051B00020636172726965720D0A000052582053B3
:1051C000776565700D0A0000545820537765657047
:1051D0000D0A0000525820636F6E7374616E742064
:1051E000636172726965720D0A0000000B09080A9A
:1051F0000000000000502700780600008006000034
:10520000880600009006000098060000A006000036
:10521000A8060000C20A0000780B0000780B00000E
:10522000780B0000780B0000780B0000A00A00004B
:10523000780B0000780B0000E20A0000560B00001B
:105240007E0A00006E0B0000080B0000840C0000BA
:10525000040E0000040E0000040E0000040E000006
:10526000040E0000040E0000040E0000040E0000F6
:10527000040E0000040E0000040E0000040E0000E6
:10528000040E0000040E0000040E0000040E0000D6
:10529000040E0000040E0000040E0000040E0000C6
:1052A000040E0000040E0000040E0000040E0000B6
:1052B000040E0000040E0000040E0000040E0000A6
:1052C000040E0000040E0000040E0000040E000096
:1052D000040E0000040E0000040E0000040E000086
:1052E000040E0000040E0000040E0000040E000076
:1052F000040E0000040E0000040E0000040E000066
:10530000040E0000040E0000040E0000040E000055
:105310008A0C0000D60C0000220D00002C0D0000AD
:10532000780D0000040E0000040E0000FE0D0000C9
:10533000040E0000040E0000040E0000040E000025
:10534000860D0000980D00009E0D0000B00D0000BD
:10535000040E0000C20D0000D40D0000DA0D0000A4
:10536000040E0000040E0000040E0000EC0D00000E
:10537000380F00001C0E0000500E0000840E0000CC
:10538000CE0E0000000F0000637C777BF26B6FC5D0
:105390003001672BFED7AB76CA82C97DFA5947F038
:1053A000ADD4A2AF9CA472C0B7FD9326363FF7CC14
:1053B00034A5E5F171D8311504C723C31896059AB1
:1053C000071280E2EB27B27509832C1A1B6E5AA0D4
:1053D000523BD6B329E32F8453D100ED20FCB15BBF
:1053E0006ACBBE394A4C58CFD0EFAAFB434D338528
:1053F00045F9027F503C9FA851A3408F929D38F5FC
:10540000BCB6DA2110FFF3D2CD0C13EC5F97441732
:10541000C4A77E3D645D197360814FDC222A9088A9
:1054200046EEB814DE5E0BDBE0323A0A4906245C35
:10543000C2D3AC629195E479E7C8376D8DD54EA99A
:105440006C56F4EA657AAE08BA78252E1CA6B4C666
:10545000E8DD741F4BBD8B8A703EB5664803F60EBF
:10546000613557B986C11D9EE1F8981169D98E94AE
:105470009B1E87E9CE5528DF8CA1890DBFE64268C7
:1054800041992D0FB054BB168D0102040810204025
:10549000801B366CD8AB4D9A2F5EBC63C697356ABD
:1054A000D4B37DFAEFC5913972E4D3BD61C29F25B3
:1054B0004A943366CC831D3A74E8CB8D010204080C
:1054C000102040801B366CD8AB4D9A2F5EBC63C653
:1054D00097356AD4B37DFAEFC5913972E4D3BD61D3
:1054E000C29F254A943366CC831D3A74E8CB8D0164
:1054F000020408102040801B366CD8AB4D9A2F5EFA
:10550000BC63C697356AD4B37DFAEFC5913972E4AE
:10551000D3BD61C29F254A943366CC831D3A74E89B
:10552000CB8D01020408102040801B366CD8AB4D97
:105530009A2F5EBC63C697356AD4B37DFAEFC591E6
:105540003972E4D3BD61C29F254A943366CC831D72
:105550003A74E8CB8D01020408102040801B366CA1
:10556000D8AB4D9A2F5EBC63C697356AD4B37DFA2B
:10557000EFC5913972E4D3BD61C29F254A94336669
:10558000CC831D3A74E8CB00090000000B0000003A
:105590000A000000080000000000000000000000F9
:1055A00000E0D70103000000090000000B0000002C
:1055B0000A000000080000000000000000000000D9
:1055C00000E0D70103000000000000000000000020
:1055D00000000000000000000000000000000000CB
:1055E00000000000000000000000000000000000BB
:1055F00000000000000000000000000000000000AB
:10560000000000000000000000000000000000009A
:10561000000000000000000000000000000000008A
:105620000000000000000000232D302B2000686CDB
:105630004C006566674546470030313233343536B5
:1056400037383941424344454600303132333435EE
:105650003637383961626364656600007A56000047
:105660007D56000080560000412D46612D66383978
:1056700030313233343536375D002B2D0030300079
:105680007858004300504F534958002E0000202006
:1056900020202020202020282828282820202020E2
:1056A00020202020202020202020202020208810A2
:1056B0001010101010101010101010101010040402
:1056C0000404040404040404101010101010104109
:1056D000414141414101010101010101010101017A
:1056E000010101010101010101101010101010420F
:1056F000424242424202020202020202020202024A
:105700000202020202020202021010101020000027
:105710000000000000000000000000000000000089
:105720000000000000000000000000000000000079
:105730000000000000000000000000000000000069
:105740000000000000000000000000000000000059
:105750000000000000000000000000000000000049
:105760000000000000000000000000000000000039
:105770000000000000000000000000000000000029
:105780000000000000000000000000000000000019
:045790000000000015
:085794008CA9FF7F0100000059
:10579C000400002000000000E8550000085600003E
:1057AC00C8550000000000000000000000000000D0
:1057BC0000000000000000000000000000000000DD
:1057CC0000000000000000000000000000000000CD
:1057DC0000000000000000000000000000000000BD
:1057EC0000000000000000000000000000000000AD
:1057FC000000000003000000500000000A00000040
:10580C004300000000000000000000000000000049
:10581C00000000000000000000000000000000007C
:10582C004300000000000000000000000000000029
:10583C00000000000000000000000000000000005C
:10584C004300000000000000000000000000000009
:10585C00000000000000000000000000000000003C
:10586C0043000000000000000000000000000000E9
:10587C00000000000000000000000000000000001C
:10588C0043000000000000000000000000000000C9
:10589C0000000000000000000000000000000000FC
:1058AC0043000000000000000000000000000000A9
:1058BC0000000000000000000000000000000000DC
:1058CC004300000000000000000000000000000089
:1058DC0000000000000000000000000000000000BC
:1058EC008148000029470000000000008D56000090
:1058FC008B5600002D5600002D5600002D56000032
:10590C002D5600002D5600002D5600002D5600007F
:10591C002D5600002D560000FFFFFFFFFFFFFFFF7D
:10592C00FFFFFFFFFFFF0000010041534349490007
:10593C00000000000000000000000000000000005B
:10594C0000000000000000000000415343494900E2
:10595C00000000000000000000000000000000003B
:10596C00000000000000000000000000E900000042
:08597C00C10000000000000062
:0400000300002D715B
:00000001FF
